:020000040800F2
:108000000004022019890008F9F10808FDF10808A8
:1080100065F20808FDF1080831F208081B8900081C
:108020001B8900081B8900081B89000875B110080E
:108030001B8900081B8900081B8900081B89000890
:108040001B8900081B8900081B8900081B89000880
:108050001B8900081B890008B51A1108E51A1108C8
:10806000151B1108451B1108751B1108F1B81008E4
:108070001DB910084DB910087DB91008ADB9100828
:10808000D9B9100809BA100875B7100871EC0808BA
:10809000A1EC0808D5EC08081B890008A51B1108ED
:1080A0001B8900081B8900081B8900081B89000820
:1080B000D92211081B8900081B89000855C2100825
:1080C00089C21008BDC21008F1C210081B8900083F
:1080D0001B890008DDD71008F5D710080DD8100847
:1080E000111C11081B8900081B8900081B89000846
:1080F0001B8900081B8900081B89000839BA100871
:108100001B89000809C910081B8900081B89000881
:1081100025D810081B8900081B8900081B89000846
:1081200069BA100895BA1008C5BA1008F5BA10084F
:1081300025BB10081B8900081B89000809ED0808E9
:1081400039ED08086DED08081B890008691611084B
:1081500051BB100881BB1008B1BB10083DD81008F6
:1081600025C3100859C310081B8900081B89000883
:108170001B8900081B8900081B8900081B8900084F
:108180001B8900081B89000855D810086DD81008F5
:108190001B8900081B8900081B8900081B8900082F
:1081A0001B8900081B8900081B8900081B8900081F
:1081B0001B8900081B8900081B8900088DC3100853
:1081C000C1C310081B8900081B8900081B8900080F
:1081D0001B8900081B8900081B8900081B890008EF
:1081E0001B8900081B8900081B8900081B890008DF
:1081F0001B8900081B8900081B8900081B890008CF
:10820000D1B4000855E8000841800108A5370208EC
:10821000E54A02083555020855590208515D020821
:10822000AD5D020829660208F5BA020865DC02089D
:10823000A93E030881F8030885710408D173040876
:10824000859E040805A204081DAF0408714F0508A7
:108250004D570508D55A0508D5DE05083509060825
:10826000D9FE0608354F07081585080811D90808F2
:10827000E5DC08086DDE0808A1ED080839F00808FB
:10828000B1F60808B9530A080D5E0A08B97F0A0852
:1082900059900A08A1AA0A08D9AA0A0851D90A08B5
:1082A000AD0F0B083D300B08E15B0B0819180E08E9
:1082B000E9200E08E55C0E082D930E08E9060F086C
:1082C000ED0F0F081D360F0865420F0811610F08EA
:1082D00080F0004002E000BF81F0004142001FBF7B
:1082E0005FEA410392EA030F7FEA226C7FEA236C84
:1082F0006AD04FEA1262D2EB1363C1BFD218414079
:1083000048404140B8BF5B42192B88BF704710F00E
:10831000004F40F4000020F07F4018BF404211F0B1
:10832000004F41F4000121F07F4118BF494292EA19
:10833000030F3FD0A2F1010241FA03FC10EB0C0045
:10834000C3F1200301FA03F100F0004302D54942D2
:1083500060EB4000B0F5000F13D3B0F1807F06D37F
:1083600040084FEA310102F10102FE2A51D2B1F177
:10837000004F40EBC25008BF20F0010040EA03006C
:108380007047490040EB0000013A28BFB0F5000FEC
:10839000EDD2B0FA80FCACF1080CB2EB0C0200FAA2
:1083A0000CF0AABF00EBC25052421843BCBFD040F1
:1083B0001843704792F0000F81F4000106BF80F46B
:1083C00000000132013BB5E74FEA41037FEA226C2E
:1083D00018BF7FEA236C21D092EA030F04D092F0F9
:1083E000000F08BF0846704790EA010F1CBF00202D
:1083F000704712F07F4F04D1400028BF40F000408A
:10840000704712F100723CBF00F50000704700F0A9
:10841000004343F0FE4040F4000070477FEA2262D0
:1084200016BF08467FEA23630146420206BF5FEAA1
:10843000412390EA010F40F4800070474FF00003A1
:1084400004E000BF10F0004348BF40425FEA000C68
:1084500008BF704743F0964301464FF000001CE010
:1084600050EA010208BF70474FF000030AE000BF66
:1084700050EA010208BF704711F0004302D54042A4
:1084800061EB41015FEA010C02BF84460146002016
:1084900043F0B64308BFA3F18053A3F50003BCFA31
:1084A0008CF2083AA3EBC25310DB01FA02FC6344DE
:1084B00000FA02FCC2F12002BCF1004F20FA02F2E5
:1084C00043EB020008BF20F00100704702F12002D8
:1084D00001FA02FCC2F1200250EA4C0021FA02F239
:1084E00043EB020008BF20EADC7070477BB972B929
:1084F0000029BEBF00204FF0004106E008BF002861
:108500001CBF6FF000414FF0FF3000F003BAADF137
:10851000080C6DE904CE002909DB002B1ADB00F002
:1085200091F8DDF804E0DDE9022304B07047404231
:1085300061EB4101002B1BDB00F084F8DDF804E067
:10854000DDE9022304B0404261EB4101524263EB9A
:1085500043037047524263EB430300F073F8DDF8C6
:1085600004E0DDE9022304B0404261EB41017047C1
:10857000524263EB430300F065F8DDF804E0DDE907
:10858000022304B0524263EB4303704753B94AB924
:10859000002908BF00281CBF4FF0FF314FF0FF300B
:1085A00000F0B8B9ADF1080C6DE904CE00F04AF85E
:1085B000DDF804E0DDE9022304B07047430803F06E
:1085C0005533C01A830803F0333300F033301844B6
:1085D00000EB101000F00F3000EB002000EB00402B
:1085E000000E704780EA104080EA102080EA1010E8
:1085F00046F6961300F00F0043FA00F000F0010079
:10860000704700BF9FED0B6B07EE900A9FED0B5B71
:10861000B7EEE77A27EE066BBCEEC66BB8EE464BBC
:10862000A4EE457BFCEEC77B16EE101A17EE900AFF
:10863000704700BF000000000000F03D0000000097
:108640000000F0412DE9F047089D04468E46002BBE
:108650004DD18A42944669D9B2FA82F252B101FAF6
:1086600002F3C2F1200120FA01F10CFA02FC41EA06
:10867000030E94404FEA1C48210CBEFBF8F61FFA8B
:108680008CF708FB16E341EA034306FB07F1994226
:108690000AD91CEB030306F1FF3080F01F819942D9
:1086A00040F21C81023E63445B1AA4B2B3FBF8F0B3
:1086B00008FB103344EA034400FB07F7A7420AD93A
:1086C0001CEB040400F1FF3380F00A81A74240F262
:1086D00007816444023840EA0640E41B00261DB1CD
:1086E000D4400023C5E900433146BDE8F0878B4202
:1086F00009D9002D00F0EF800026C5E900013046C1
:108700003146BDE8F087B3FA83F6002E4AD18B429A
:1087100002D3824200F2F980841A61EB0303012044
:108720009E46002DE0D0C5E9004EDDE702B9FFDE30
:10873000B2FA82F2002A40F09280A1EB0C014FEADB
:108740001C471FFA8CFE0126200CB1FBF7F307FB38
:10875000131140EA01410EFB03F0884208D91CEBDB
:10876000010103F1FF3802D2884200F2CB80434678
:10877000091AA4B2B1FBF7F007FB101144EA014457
:108780000EFB00FEA64508D91CEB040400F1FF31E6
:1087900002D2A64500F2BB800846A4EB0E0440EAD4
:1087A00003409CE7C6F12007B34022FA07FC4CEADD
:1087B000030C20FA07F401FA06F31C43F9404FEAD0
:1087C0001C4900FA06F3B1FBF9F8200C1FFA8CFEE5
:1087D00009FB181140EA014108FB0EF0884202FA39
:1087E00006F20BD91CEB010108F1FF3A80F08880FA
:1087F000884240F28580A8F102086144091AA4B2B7
:10880000B1FBF9F009FB101144EA014100FB0EFE37
:108810008E4508D91CEB010100F1FF346CD28E4566
:108820006AD90238614440EA0840A0FB0294A1EBF7
:108830000E01A142C846A64656D353D05DB1B3EB54
:10884000080261EB0E0101FA07F722FA06F3F14084
:108850001F43C5E9007100263146BDE8F087C2F12B
:108860002003D8400CFA02FC21FA03F391400143A3
:108870004FEA1C471FFA8CFEB3FBF7F007FB1036DC
:108880000B0C43EA064300FB0EF69E4204FA02F488
:1088900008D91CEB030300F1FF382FD29E422DD9DB
:1088A000023863449B1B89B2B3FBF7F607FB163310
:1088B00041EA034106FB0EF38B4208D91CEB010190
:1088C00006F1FF3816D28B4214D9023E6144C91A10
:1088D00046EA004638E72E46284605E70646E3E620
:1088E0001846F8E64B45A9D2B9EB020864EB0C0E2A
:1088F0000138A3E74646EAE7204694E74046D1E739
:10890000D0467BE7023B614432E7304609E76444E6
:10891000023842E7704700BF02E000F000F8FEE7CF
:1089200072B6394880F30888384880F30988384897
:108930004EF60851CEF20001086040F20000CCF281
:1089400000004EF63471CEF200010860BFF34F8F85
:10895000BFF36F8F40F20000C0F2F0004EF6885176
:10896000CEF200010860BFF34F8FBFF36F8F4FF05F
:108970000000E1EE100A4EF63C71CEF200010860F4
:10898000062080F31488BFF36F8F08F1F7FA07F120
:1089900029FC4FF055301F491B4A91423CBF41F81A
:1089A000040BFAE71C49194A91423CBF41F8040BF9
:1089B000FAE71A491A4A1B4B9A423EBF51F8040B78
:1089C00042F8040BF8E700201749184A91423CBFCF
:1089D00041F8040BFAE708F10FFB07F163FC144CB4
:1089E000144DAC4203DA54F8041B8847F9E702F04F
:1089F0005FFD114C114DAC4203DA54F8041B88475B
:108A0000F9E708F1F7BA0000000402200024022070
:108A100000800008000002200004022068551408AD
:108A2000002402206429022068290220B467032060
:108A300000820008D0820008D0820008D08200089E
:108A40002DE9F04F2DED108AC1F80CD0D0F80CD0E4
:108A5000BDEC108ABDE8F08F07F120F8002383F306
:108A600011882846A047002007F1BEF907F110F849
:108A700006F164FF07F112F800DFFEE770B54FF072
:108A8000FF0C4CF4E06C1CEA11541DBF1CEA13559A
:108A900094EA0C0F95EA0C0F00F0DEF82C4481EA02
:108AA000030621EA4C5123EA4C5350EA013518BF22
:108AB00052EA033541F4801143F4801338D0A0FB0F
:108AC00002CE4FF00005E1FB02E506F00042E0FBBC
:108AD00003E54FF00006E1FB03569CF0000F18BFC2
:108AE0004EF0010EA4F1FF04B6F5007F64F540746A
:108AF00004D25FEA4E0E6D4146EB060642EAC621FD
:108B000041EA55514FEAC52040EA5E504FEACE2E69
:108B1000B4F1FD0C88BFBCF5E06F1ED8BEF1004F6C
:108B200008BF5FEA500E50F1000041EB045170BDE8
:108B300006F0004646EA010140EA020081EA03012C
:108B4000B4EB5C04C2BFD4EB0C0541EA045170BD28
:108B500041F480114FF0000E013C00F3AB8014F1A2
:108B6000360FDEBF002001F0004170BDC4F10004EB
:108B7000203C35DA0C341BDC04F11404C4F120056C
:108B800000FA05F320FA04F001FA05F240EA0200C7
:108B900001F0004221F0004110EBD37021FA04F6FD
:108BA00042EB06015EEA430E08BF20EAD37070BDB7
:108BB000C4F10C04C4F1200500FA04F320FA05F016
:108BC00001FA04F240EA020001F0004110EBD37018
:108BD00041F100015EEA430E08BF20EAD37070BD88
:108BE000C4F1200500FA05F24EEA020E20FA04F361
:108BF00001FA05F243EA020321FA04F001F0004110
:108C000021FA04F220EA020000EBD3705EEA430E80
:108C100008BF20EAD37070BD94F0000F0FD101F0AF
:108C20000046400041EB010111F4801F08BF013CE8
:108C3000F7D041EA060195F0000F18BF704703F026
:108C40000046520043EB030313F4801F08BF013DAD
:108C5000F7D043EA0603704794EA0C0F0CEA135569
:108C600018BF95EA0C0F0CD050EA410618BF52EA23
:108C70004306D1D181EA030101F000414FF0000029
:108C800070BD50EA410606BF1046194652EA430637
:108C900019D094EA0C0F02D150EA013613D195EAAB
:108CA0000C0F05D152EA03361CBF104619460AD1F3
:108CB00081EA030101F0004141F0FE4141F47001FD
:108CC0004FF0000070BD41F0FE4141F4780170BDED
:108CD00081F0004102E000BF83F0004330B54FEA6D
:108CE00041044FEA430594EA050F08BF90EA020FDA
:108CF0001FBF54EA000C55EA020C7FEA645C7FEA6D
:108D0000655C00F0E2804FEA5454D4EB5555B8BF8F
:108D10006D420CDD2C4480EA020281EA030382EA00
:108D2000000083EA010180EA020281EA0303362D92
:108D300088BF30BD11F0004F4FEA01314FF4801C65
:108D40004CEA113102D0404261EB410113F0004F77
:108D50004FEA03334CEA133302D0524263EB43032E
:108D600094EA050F00F0A780A4F10104D5F1200ECC
:108D70000DDB02FA0EFC22FA05F2801841F1000127
:108D800003FA0EF2801843FA05F359410EE0A5F1FB
:108D900020050EF1200E012A03FA0EFC28BF4CF02C
:108DA000020C43FA05F3C01851EBE37101F00045E2
:108DB00007D54FF0000EDCF1000C7EEB00006EEBEF
:108DC0000101B1F5801F1BD3B1F5001F0CD3490879
:108DD0005FEA30004FEA3C0C04F101044FEA4452D0
:108DE00012F5800F80F09A80BCF1004F08BF5FEA57
:108DF000500C50F1000041EB045141EA050130BD37
:108E00005FEA4C0C404141EB0101013C28BFB1F548
:108E1000801FE9D291F0000F04BF01460020B1FA93
:108E200081F308BF2033A3F10B03B3F120020CDA66
:108E30000C3208DD02F1140CC2F10C0201FA0CF044
:108E400021FA02F10CE002F11402D8BFC2F1200CA9
:108E500001FA02F120FA0CFCDCBF41EA0C0190405F
:108E6000E41AA2BF01EB0451294330BD6FEA0404A8
:108E70001F3C1CDA0C340EDC04F11404C4F1200293
:108E800020FA04F001FA02F340EA030021FA04F3A5
:108E900045EA030130BDC4F10C04C4F1200220FAFC
:108EA00002F001FA04F340EA0300294630BD21FA3A
:108EB00004F0294630BD94F0000F83F4801306BF00
:108EC00081F480110134013D4EE77FEA645C18BFF4
:108ED0007FEA655C29D094EA050F08BF90EA020F8B
:108EE00005D054EA000C04BF1946104630BD91EA83
:108EF000030F1EBF0021002030BD5FEA545C05D186
:108F00004000494128BF41F0004130BD14F58004C4
:108F10003CBF01F5801130BD01F0004545F0FE4138
:108F200041F470014FF0000030BD7FEA645C1ABF6D
:108F3000194610467FEA655C1CBF0B46024650EAA4
:108F4000013406BF52EA033591EA030F41F40021D0
:108F500030BD00BF90F0000F04BF0021704730B556
:108F60004FF4806404F132044FF000054FF000012B
:108F700050E700BF90F0000F04BF0021704730B5EC
:108F80004FF4806404F1320410F0004548BF4042C1
:108F90004FF000013EE700BF42004FEAE2014FEA16
:108FA00031014FEA02701FBF12F07F4393F07F4FF1
:108FB00081F06051704732F07F4208BF704793F0F4
:108FC0007F4F04BF41F40021704730B54FF4607407
:108FD00001F0004521F000411CE700BF50EA01020A
:108FE00008BF704730B54FF000050AE050EA0102B3
:108FF00008BF704730B511F0004502D5404261EB23
:1090000041014FF4806404F132045FEA915C3FF463
:10901000D8AE4FF003025FEADC0C18BF03325FEA00
:10902000DC0C18BF033202EBDC02C2F1200300FAB1
:1090300003FC20FA02F001FA03FE40EA0E0021FAD6
:1090400002F11444BDE600BF4FEA410212F50012DE
:1090500015D211D56FF47873B3EB625212D94FEA7F
:10906000C12343F0004343EA505311F0004F23FA69
:1090700002F018BF404270474FF00000704750EABE
:10908000013005D111F0004008BF6FF0004070477B
:109090004FF00000704700BF4FEA4102B2F1E043D9
:1090A00024BFB3F5001CDCF1FE5C0DD901F0004CCF
:1090B0004FEAC0024CEA5070B2F1004F40EB83001F
:1090C00008BF20F00100704711F0804F21D113F14B
:1090D0003872BCBF01F00040704741F480114FEA84
:1090E0005252C2F11802C2F1200C10FA0CF320FA0D
:1090F00002F018BF40F001004FEAC1234FEAD3232A
:1091000003FA0CFC40EA0C0023FA02F34FEA430393
:10911000CCE77FEA625307D150EA01331EBF4FF01C
:10912000FE4040F44000704701F0004040F0FE4037
:1091300040F40000704700BF01F0FF01102A2BDB54
:1091400010F0070F08D010F8013B013A8B422DD0E8
:1091500010F0070F42B3F6D1F0B441EA012141EA21
:10916000014122F007047FF000070023F0E80256D7
:10917000083C85EA010586EA010685FA47F5A3FA67
:1091800087F586FA47F6A5FA87F68EB9EED1F0BCD8
:1091900001F0FF0102F0070232B110F8013B013A81
:1091A00083EA010313B1F8D10020704701387047FA
:1091B000002D06BF35460338073815F0010F07D1DB
:1091C000013015F4807F02BF013015F4C03F01303B
:1091D000F0BC0138704700BFEC46A0E8F05F4FF0EC
:1091E00000007047B0E8F05FE546080008BF0120C6
:1091F000704700BF10F8012B11F8013B012A28BF6E
:109200009A42F7D0D01A7047034613F8012B002A70
:10921000FBD1181A0138704708B502460B4643ECDB
:10922000172BB5EEC07BF1EE10FA03D4BDE8084071
:1092300000F00AB8B1EE477B51EC170B00F004F8D0
:10924000404261EB410108BD9FED0B6B41EC170BF8
:109250009FED0B5B27EE066BBCEEC66BB8EE464B84
:10926000A4EE457BFCEEC77B16EE101A17EE900AB3
:10927000704700BFAFF30080000000000000F03D29
:10928000000000000000F041002070472DE9F0418F
:1092900006460F461CF056FD90F83C5015B30024CE
:1092A000A0461CF04FFD012C1FD90134E3B29D42B2
:1092B000F7D8B8F1000F15D0154CD4F8540A79F04E
:1092C00065FDB0F57A7F1AD1D4F8540A79F06AFDB9
:1092D000B0F5FA6F06D030460E4A39467EF0F6FBFE
:1092E000002000E00120BDE8F08104EB840300EBE6
:1092F00083035B7D032B08BF4FF00108D5E73046A1
:10930000054A39467EF0E2FB0020BDE8F08100BF4F
:10931000784902200C851108E88411088368012B24
:1093200001D05B060DD50E4B93F974244AB103F5B9
:10933000805CB3F97624DCF83C31B3F906309A420C
:1093400001DC0120704710B5064C82B00A46064B7E
:10935000402100947EF0DAF8002002B010BD00BF7A
:10936000783902205085110860FE110870B58EB062
:109370000E463222054601A90C4867F0DBFE044682
:1093800040B99DF9043043B9094B3146094A284692
:109390007EF09CFB20460EB070BD284601AB054A0E
:1093A00031467EF093FB20460EB070BDCC480220C3
:1093B0006885110860FE110870B5054682B01D4829
:1093C0000C4615F017FAF8B11B4890F8D431DB07BA
:1093D0000AD5A0F580531921A0F66870B3F94C6442
:1093E00041F04EFD86421CDC0DF1060201A9134836
:1093F00042F0D4FFBDF80430002B0CBF012600263C
:1094000006D1304602B070BD0126304602B070BDB4
:1094100028460B4B224620217EF078F8304602B0D9
:1094200070BD084B22462021284600267EF06EF8AB
:10943000E7E700BF7829022078490220B05C0220CB
:10944000A485110880851108F0B5574E91B00446E7
:109450000D46D6F8540A79F0B1FC002864D154F0D6
:1094600091F853F017FF00287CD1A6F5805292F9AD
:1094700074346BB1D6F83C11B2F97634B1F90A0004
:1094800003F10A01884258DD40F28D318B4254DDF0
:10949000B2F8343441F65831A3F57A739BB28B425B
:1094A00059D802F2A443414F93ED007AD7F83C31EA
:1094B000D3ED097AB4EEE77AF1EE10FA44DCD3ED9D
:1094C0000A7A02F5956393ED007AB4EEE77AF1EE4D
:1094D00010FA39DCB2F97034002B57DD92F8B0364F
:1094E0000D2B46D929462046FFF766FF10B396F8A4
:1094F0004D3ADB0651D432232D49D7F8400103AA57
:1095000072F07EF838B13223D7F83C0103AA29491A
:1095100070F07CF978B9204603AC274B2A4620210D
:1095200000947DF0F3FF05E0244B2A4620212046DD
:109530007DF0ECFF002011B0F0BD214B2A46202128
:1095400020467DF0E3FFF5E71E4B2A46202120460A
:109550007DF0DCFFEEE71C4B2A46202120467DF003
:10956000D5FFE7E7194B2A46202120467DF0CEFFA4
:10957000E0E74FF4215222FA03F3DA07B2D5144B95
:109580002A46202120467DF0C1FFD3E7114B2A4611
:10959000202120467DF0BAFFCCE70F4B2A46202140
:1095A00020467DF0B3FFC5E77849022078590220B4
:1095B000808611089886110884861108C0851108D4
:1095C000F88511081C8611080C861108D885110829
:1095D0004886110830861108688611082DE9F04F79
:1095E0008FB08846074618F0B9FF03680546D3F8E0
:1095F000B4309847064680B3DFF854B1DBF84C0D21
:1096000003689B68984704460BF5FA7066F098FF6C
:1096100084F0010310F0060903F001045FFA83FAF5
:1096200018BF00241CB130460FB0BDE8F08FABF579
:10963000405014F00BFF10BB2B6828465B6A98471C
:10964000034600285AD000263846384A41467EF064
:109650003DFA30460FB0BDE8F08F2B682846344CF9
:109660005B6A9847034641463846002B2F4A08BF9D
:1096700023467EF02BFA30460FB0BDE8F08F04A9E8
:10968000284618F0CFFD18B19DF811305B0646D47E
:10969000002309AA0DF12C09264C0B9305A90C9364
:1096A00028460D9309930A932B68029208AACDF8D5
:1096B0000090019206AAD3F8D4A007ABD047D4ED0E
:1096C000007AF5EEC07AF1EE10FA09DD484633F083
:1096D000FDFED4ED007AB4EEE70AF1EE10FA17DAE7
:1096E00005F5A271144805F0CFFC00289BD0134A61
:1096F0004146384600267EF0E9F994E7B9F1000FBB
:1097000004D0BAF1000F01D00D4B9CE70D4B9AE746
:109710000D4A4146384600267EF0D8F983E70B4AC9
:109720004146384626467EF0D1F97CE760FE1108B6
:109730009C861108083E0220782902200087110823
:10974000B0861108CC861108E8861108D886110861
:109750007859022008B5FFF741FF014BD87108BDC9
:10976000787302202DE9F0410D46044653F00AFFBC
:10977000202153F07BFD30B153F004FF1F2153F043
:1097800075FD002849D1344F97F82E3A03F01403A1
:10979000142B53D0A36863B9236829462F4A204667
:1097A0001B6B934241D1FFF719FF2D4BD871BDE8D8
:1097B000F081294620467EF0E3FDA3688046012B18
:1097C00001D09A0607D529462046FFF73DFE08EA54
:1097D00000005FFA80F8D7F8543A5B7913F004067A
:1097E00026D029462046FFF751FD00EA0800C6B200
:1097F00029462046FFF792FD294606402046FFF7FE
:10980000B5FD97F84D2A064093071DD429462046FA
:109810007EF024FD3040BDE8F0812046114A294603
:109820007EF054F90020BDE8F081BDE8F041184712
:109830000D4A294620467EF049F9D9E70B4A2946C8
:1098400020467EF043F9A5E7094A2946204600262E
:109850007EF03CF9DAE700BF78490220559700080E
:109860007873022024871108308511084087110879
:109870001487110810B50A4CD4F8543A5B7913F0E8
:10988000010302D1FFF76EFF034694F82C2A184615
:10989000044963F304128B7184F82C2A10BD00BFB5
:1098A0007849022078730220154A13780133DBB21D
:1098B0001D2B17D8137000210368124A9B6893422E
:1098C00018D110B5104CD4F8543A5B7913F0010359
:1098D00011D094F82C2A0D4963F304128B7184F88B
:1098E0002C2A10BD0023012113700368054A9B68D0
:1098F0009342E6D01847FFF735FF0346E9E700BF7C
:10990000002402207598000878490220787302200C
:10991000F8B506460D467DF0E1FE044608B3B3688F
:10992000012B01D099071CD5134876F00BF803469C
:10993000DA05C3F3002714D49B0512D50E4875F041
:10994000A9FF0E4B9FED0E7AD3ED397AF8EEE77A48
:1099500030EE670AB0EEC00AB4EEC70AF1EE10FAB4
:1099600001DC2046F8BD074B2A46022130463C4622
:109970007DF0CCFDF5E700BF945A02207859022013
:109980000000C8425887110870B5054690B00E46D1
:109990007EF032F9AB680446012B01D05B070CD591
:1099A00000212E2204A803910AF14EFF20F0BEFCF4
:1099B000322203A920F092FA10B1204610B070BDF7
:1099C00003A90446044B28460091324604217DF049
:1099D0009DFD204610B070BD60FE110870B50546B3
:1099E0000E467EF047FB0446AB68012B01D0DB0638
:1099F00005D5084875F0A6FF10F0010001D02046FB
:109A000070BD0446044B2846324610217DF07EFD91
:109A1000204670BD945A02206C87110838B5044660
:109A20000D467DF0D3FFA8B1A368012B01D01B0622
:109A300010D5094B93F8E1302BB929462046BDE8F3
:109A400038407EF01FBB2046044B2A4680217DF023
:109A50005DFD002038BD00BF7859022080871108C5
:109A6000F0B5114C85B00F460646D4F834316A463D
:109A70000093D4F838310193D4F83C310293D4F8F0
:109A8000403103937EF0A4FC0546394630467DF014
:109A900069FD94F82C3A284060F3C303C3F3C00077
:109AA00084F82C3A05B0F0BD784902202DE9F04148
:109AB00006460F46FFF792FD002838D0DFF8888071
:109AC0000446D8F84C0D03689B689847054608F58E
:109AD000FA7085F0010566F033FD10F0060F05F011
:109AE000010518BF0025B5B9B368012B01D01B07CC
:109AF00011D5124B93F8A82203EBC21203F5805341
:109B0000B2F84221B3F95A349A420ADC3946304657
:109B10007DF0FEFD58B10A4B01222046DA71BDE806
:109B2000F081084B3A46082130467DF0EFFC0023D7
:109B3000034A1C46D3712046BDE8F08178290220F3
:109B400078730220948711087859022070B586B086
:109B500006460D467DF0DCFF044640B1B368012B9C
:109B600001D09B0603D5154890F89D3213B92046C5
:109B700006B070BD05AAA0F5CC5004A961F080FE26
:109B80000028F4D09DED057ADFED0D7AB4EEE77A8A
:109B9000F1EE10FAEBD8DDED046AB7EEC77A094BA7
:109BA0002A46FDEEE66A3046202100248DED027B38
:109BB000CDED006A7DF0AAFCD9E700BF78590220FC
:109BC0009A99193FA48711082DE9F04782B00F46F2
:109BD000064618F0C3FC03680546D3F8B030984732
:109BE000002800F0CB80284618F0BEFC0446002870
:109BF00000F0A580DFF888A2A7F101010AF58058DE
:109C0000B1FA81F19AF8309AD8F84C0D49090368F5
:109C10001B6998470446002800F0A780DAF8543AF8
:109C20005C7914F0040400F0D58001213046FFF780
:109C30002DFB0446002800F09D809AF82E3A03F090
:109C40001403142B00F0CF8053F09CFC1F2153F021
:109C50000DFB002800F09C8053F094FC1F2153F072
:109C600005FB20B1734B1B78002B40F0C580B36817
:109C7000002B7FD0012B02D0DC0640F18C80D5ED8B
:109C8000577A95ED560A20EE270A09F1A5F9DFED7E
:109C90006A7A6A4A20EE270ADFED697AB2F934342B
:109CA00020EE270A07EE903AF8EEE77AB4EEE70ADC
:109CB000F1EE10FA00F3A880B368012B6BD19AF88B
:109CC0004D3ADB066DD492F9743443B1DAF83C3185
:109CD000B2F97624B3F906309A4200F3A780012F37
:109CE00003D109F0EF03042B65D0DAF83C31554875
:109CF000B3F9083000EE103AB8EEC00A00F002FBEB
:109D0000B5EEC00AF1EE10FA0FDCD8F84C0D03687E
:109D1000DB689847B9F10B0F01D000284BD0DAF877
:109D20003C31B3F90830002B45DD474C474B0094DC
:109D300001224021304600247DF0E8FB1AE020F0AB
:109D4000F5FA214604461FF0C7FBC3B2C3EB431329
:109D500004EB830393F87940002C7FF44BAF3C4A2B
:109D6000012130467DF0B2FE04E03A4A012130463E
:109D70007DF0ACFE204602B0BDE8F0870446364ACE
:109D8000304601217DF0A2FE204602B0BDE8F087FA
:109D9000284B18706BE798060BD59AF84D2AD20617
:109DA00007D52E4B01222021304600247DF0AEFB4A
:109DB000E0E759061ED42A4B2A4A1B68986C0368B0
:109DC0009B69934228D13946304602B0BDE8F0473E
:109DD0007DF0CCBD3046244A01217DF077FE20463F
:109DE00002B0BDE8F087214A0121304600247DF011
:109DF0006DFEBFE7114A66E752F0EEFC1C4A0221F5
:109E0000002449F0E7FDB5E71A4B01221021304646
:109E100000247DF07BFBADE7984701280146D2D1B5
:109E2000154A304600247DF051FEA3E7064C134B43
:109E30007DE700BF407C0220E02E65427839022099
:109E40000000C842782902202488110830881108AF
:109E5000C0871108D48711089C86110868861108EC
:109E60005870022089920008308511084087110837
:109E7000E8871108088811083C8811081088110823
:109E8000784902202DE9F041564E3378C3B9564F38
:109E90000124D7F8545A34706D79254003D02846F0
:109EA0003370BDE8F0817DF0BDFA054660B94F4AD8
:109EB00030702846137843F001031370BDE8F08139
:109EC00000252846BDE8F08144F0DCF8214643F047
:109ED000D1FBA7F5005007F04DF8454B1C710B2442
:109EE00039F07CFD39F0F6FC611E11F0FF04F7D16A
:109EF000404800F069FE18F031FB83698046C7F8DE
:109F0000783A90F85431DA0759D40368D3F8CC3052
:109F1000984744F0B7F83C2144F008F807F63C2392
:109F200000221A600021334800F0D8FE314814F0B6
:109F30008DFA014630487BF09DFE98F880302F4C1A
:109F4000012143F0040388F880302D4B1B68986C86
:109F50002CF0C8FC94F8C432A4F540506FF34103D0
:109F600084F8C43212F01EFF0121D7F8540A7AF0A7
:109F7000B7FA44F087F80A2143F0D8FF44F082F89A
:109F800097F8312A97F8301A43F0D6FCA4F54050E0
:109F900006F0E2FF41F0C6FB40F0FEFF0023337005
:109FA00085F09EF9B7F82E3AC4F85001284623F4FC
:109FB000087343F02003A7F82E3ABDE8F0819B0711
:109FC000B0D421460B4805F011F90E4875F062FC3B
:109FD000DFED0D7A07F63C2320EE270A83ED000A19
:109FE000A0E700BF6829022078490220947302206C
:109FF00078730220782902207047022078590220C5
:10A0000058700220945A02200AD7233C2DE9F043CD
:10A010003B4D87B0D5F8543A5B79DB0704D4012473
:10A02000204607B0BDE8F0837DF02EFA04460028F4
:10A03000F6D018F093FA064620F078F98046336897
:10A040003046D3F89030984718B198F95030022B29
:10A050003BD02C4B2C48D3F84C3D834231D00BF0F5
:10A060002DF80121294807F0A3F90121274807F01D
:10A07000CFF844F007F80B2143F058FF0021D5F842
:10A08000540A7AF02DFA224833F020FC43F0FAFF0C
:10A09000002143F0EFFA96F880301E4A00216FF35A
:10A0A0008203126886F88030906C2CF01BFC95F8C7
:10A0B0002E3A20466FF3451385F82E3A07B0BDE8D7
:10A0C000F08318460AF0EEFFCBE700274FF00009B7
:10A0D000F9B203AA3046CDF80C9001910137CDF8C2
:10A0E0001090CDF8149018F011F9019910B9032FC0
:10A0F000EED1AEE703AA40461FF02EFCF7E700BF03
:10A1000078490220785902208C690220782902209F
:10A110007C67022058700220014866F0E7BA00BF51
:10A120006C5B022000F5005292F82C3AC3F3401CFD
:10A130008C4504D061F3451382F82C3A01B970477D
:10A140000F2102F0BDBF00BF70B500F5005696F8B4
:10A150002C3AC3F341038B4214D005460C4609B395
:10A16000012910D11A2102F0ABFF42F63410134A34
:10A170000621284449F02EFC96F82C3A64F3420359
:10A1800086F82C3A70BD012100F0A8FD28461D215B
:10A1900002F096FF42F63410094A0621284449F09D
:10A1A00019FCE9E71B2102F08BFF42F63410054A47
:10A1B0000621284449F00EFCDEE700BFA488110800
:10A1C000B48811089488110800F5005210B592F86F
:10A1D0004D3A0C4603F00101A14209D064F300039B
:10A1E00082F84D3ADB0704D506F048FC024B9C721E
:10A1F00010BD06F017FBF9E77873022000F5005058
:10A20000044A90F84D3A117361F3410380F84D3AD6
:10A21000704700BF7873022010B5044653F0B2F9BE
:10A22000202153F023F804F50053003893F82E2A28
:10A2300018BF012060F3820283F82E2A10BD00BFF0
:10A2400090ED280A704700BF00F5005330B593F831
:10A250004D2A83B0D207019103D493F82D3A5B07BE
:10A2600003D49FED220A03B030BD41F2A865B7EEDA
:10A27000001ADFED1E0A0446054495ED000A30F091
:10A28000C9FAB0EEC07ADFED1A7A85ED000AB4EEB5
:10A29000E77AF1EE10FA0BD5DDED017A04F5A5545D
:10A2A000B8EEE70AD4ED007A20EE270A03B030BDFD
:10A2B000DDED017A04F5A5549FED0E6AB8EEE77A5C
:10A2C000D4ED005AF7EE007AC7EE066A77EEC07A50
:10A2D00026EEA67A67EEA67A67EE266AE0EE267A82
:10A2E00027EE860A20EE250A03B030BD00000000EC
:10A2F0000000003400A08C4500F54050D0F840012B
:10A300006FF050BF00F5005238B52DED068B92F876
:10A310004D1A11F0010503D192F82D2A530704D4E8
:10A320009FED310ABDEC068B38BD00F58054B0EED0
:10A33000408A12F067FE07EE900AB4F97834B8EE5E
:10A34000E79A9FED2AAA08EE903AB0EE480AB0EEDE
:10A350004A1ADFED250AF8EEE88A30F05BFAB0EE33
:10A36000408A4FF4C8722946B4F9780479EE689AA5
:10A3700030F048FAA4F87804B4EEE98AF1EE10FA65
:10A3800015D5B4F9A83E43BBB4F97034002BB8BF5F
:10A390005B429BB207EE903A38EE698AF8EEE77AB4
:10A3A00027EE888A88EE290ABDEC068B38BD78EE48
:10A3B000898AF4EEC88AF1EE10FAB1D5B4F9703496
:10A3C00038EE688A7AEE688A07EE903AF8EEE77A15
:10A3D00027EE888A88EE280AA4E7002BB8BF5B42E4
:10A3E0009BB207EE903AD7E70000000000007A44E5
:10A3F00000F500500B4A08B5D0F8540A03681B68F2
:10A4000093420DD190ED280AF6EE007A20EE270A4D
:10A41000B5EEC00AF1EE10FA48BF9FED030A08BD81
:10A420009847F1E741A2000800000000034643F20C
:10A43000902003F54052184400B583B0D2F8403163
:10A4400092ED461A8DED010A01A993ED080AD3EDAC
:10A45000390A67F095F89DED010A03B05DF804FB39
:10A4600038B500F540550446B7EE001ADFED140A82
:10A4700004F500542DED028BD5F83C3193ED2B0AF9
:10A4800030F0C8F9D5F84031D4F8540AB0EE408A1B
:10A4900003F128040B4A03681B6893420ED190ED28
:10A4A000280A38EE408A9FED080A204628EE000A66
:10A4B000BDEC028BBDE838406BF078BE9847F0E702
:10A4C0000000000041A2000800007A4442F2385324
:10A4D000D2ED007A91ED006A0344D3ED585AD3EDE2
:10A4E0005B6A26EEE77A67EEA57AA6EE257AE6EEB7
:10A4F000267A81ED007AC2ED007A704700F580502F
:10A50000B0F9A83E33B9B0F970040028B8BF404292
:10A5100080B2704783EAE370A0EBE37080B27047CB
:10A5200070B500F50055D5F8543A5B79DB071DD5B9
:10A5300095F92C3A002B19DB00F540560446D6F865
:10A540004C0D0368DB68984780B995F8303A0B2BBF
:10A550000CD0D6F840319FED217AD3ED4A7AF0EE57
:10A56000E77AF4EEC77AF1EE10FA00D470BDD5F8B0
:10A57000540A383048F0ACFCB7EE001ADFED180A88
:10A5800090ED000A30F046F9B5EEC00AF1EE10FA8F
:10A59000ECDD43F21C10204475F080F9B0EEC00AE7
:10A5A000DFED107AB4EEE70AF1EE10FADED5D5F859
:10A5B000483540F2E63203F2F3139342D6D8D5F889
:10A5C0004C3503F2F3139342D0D8D5F8540A9FEDDB
:10A5D000060ABDE8704078F045BC00BF00000034BA
:10A5E00000000000000070420AD7233C704700BF03
:10A5F0007BF0AEBE5AF048BA63F096BC14F0D6B801
:10A6000004F08EBA5EF0B2BC12F0FEBD12F096BD40
:10A6100012F06CBD41F060B82DF0BCBD43F04CB9F8
:10A6200074F064BE54F04EBB51F0D2B951F0CABFC1
:10A6300012F0CAB813F032B807F06CB806F052BC8A
:10A6400005F01EBE05F01EBD39F044B912F03CBA4B
:10A65000403065F05DBE00BF1AF0ECB95CF0CEBAD8
:10A6600064F06EB80FF000BFFFF75ABF12F0DCB90C
:10A670005EF0C0BC7CF0BAB961F070B812F0F8BD01
:10A6800003F0B6BC12F05CB912F0E6B852F0FABEB4
:10A690003CF014BE10B504463EF016F9074B084ACC
:10A6A00020461A6013F0D8FC42F2B0000823322290
:10A6B00004492044BDE8104040F08EBD142402201F
:10A6C000ACB21208908B110810B5044642F2B000EB
:10A6D000204440F0F1FE04F5005304F54054D3F853
:10A6E0001431C4F8183110BD06F08CBA0AF0A4B8C1
:10A6F00009F0B6BE0AF0ACBA38B5184A00F54053B6
:10A7000004460260D3F8D05C2DB128462CF060F9E5
:10A7100028461BF099FF04F50053114AD3F8E409C9
:10A72000C3F8342908B11BF099FF0E4B41F20830F1
:10A730002360204454F00EF80B4B04F64450C4F848
:10A74000783948F01DFA04F5536048F019FA04F618
:10A750001C5048F015FA204638BD00BF888F1108FC
:10A7600034AD1208088911083844120810B504469F
:10A7700006F078FB204606F007F9204606F070FC4C
:10A780002046BDE8104014F03FB800BF10B50446A5
:10A7900006F054FD204613F09DF9204604F0F2FA2D
:10A7A0002046BDE8104013F0FDB800BF10B512F010
:10A7B000B3FB52F0E7FE0368BDE810405B68184742
:10A7C00010B5044612F024FC1021204613F0D8F9ED
:10A7D00000B910BD2046BDE8104002F0D3BE00BF56
:10A7E00010B50121044613F0CBF930B1064BD3F874
:10A7F0004C0D03681B6A984700B110BD2046BDE8A8
:10A80000104002F08DBB00BF7859022010B50446FD
:10A8100000F678102DF0F0FE04F54053D3F83C011B
:10A820000368DB6A9847204611F05AFF42F238501D
:10A830000121204417F082FC204606F087FC2046C8
:10A8400005F0D2FC204607F00BF9204604F0F2FC9C
:10A85000204606F017FF43F2A010204454F038FAC7
:10A860004FF6FF71204613F08BF900B910BD20465A
:10A87000BDE8104002F0BCBCFFF7C8BF70B500F5E2
:10A880003055044628461AF0CBFD1FF04FFD90F9D5
:10A890004D3003B970BD04F5005304F28446D3F87B
:10A8A000540A383048F014FBB7EE001ADFED110AF5
:10A8B00090ED000A2FF0AEFF94F9E834284600210D
:10A8C000012B04F68C0408BF86ED1D0A1AF05CFC0F
:10A8D0009FED097ADFED097A304620EE070A94ED04
:10A8E000287AA7EE270A84ED280ABDE870401FF0F9
:10A8F00011B900BF00000000CDCCCC3D6666663FBC
:10A90000FFF7BCBF38B50221044613F039F900281F
:10A9100040F082800221204613F032F9002843D112
:10A920000121204613F02CF900283DD14FF40031CD
:10A93000204613F025F9002840D14021204613F08D
:10A940001FF9002843D14FF48061204613F018F915
:10A95000002851D12021204613F012F960B104F5EE
:10A960004055D5F84C0D03689B689847002849D09E
:10A97000D5F8400170F040F98021204613F000F92D
:10A9800030B94FF48021204613F0FAF800286DD03A
:10A9900042F24410204444F0D3FF1021204613F02B
:10A9A000EFF800284CD138BD204602F039FB4FF4B7
:10A9B0000031204613F0E4F80028BED0204602F013
:10A9C00041FB4021204613F0DBF80028BBD042F2C7
:10A9D0004415281944F07EFC04F5805393F908339C
:10A9E000002BB0D0281944F061FD4FF4806120465F
:10A9F00013F0C6F80028ADD042F24410204444F0D1
:10AA0000CFFCA7E720460DF0CBFB0028B4D0D5F84B
:10AA1000400170F0F1F8AFE70121204613F0B0F8E3
:10AA200000287FF477AF154BD3F84C0D03681B6AF1
:10AA3000984700287FF46EAF204602F071FA69E76C
:10AA400042F2441504F540532544D3F83C016CF020
:10AA500063FF04F5B451284645F08EFF41F274516E
:10AA600028462144BDE8384045F024BF4FF400217A
:10AA7000204613F085F800288AD18EE77859022005
:10AA8000FFF740BF10B50121044613F079F848B92B
:10AA90008021204613F074F868B92046BDE81040C4
:10AAA00002F0AABC204602F0BBFA8021204613F037
:10AAB00067F80028F1D042F24410204444F046FEEA
:10AAC0002046BDE8104002F097BC00BFFFF7DABF98
:10AAD00038B504464FF6FF7113F052F804F50055EF
:10AAE000D0B942F6B4002044FEF7DEFED5F8543A61
:10AAF0005B79DB0717D552F05BFE204613F06CFE46
:10AB000095F82C3A04F54054184ADB43C3F3C013BC
:10AB100084F8953C537138BD07212046D5F82C2A7E
:10AB200002F002FBDDE742F23850204418F01CF935
:10AB30002046FFF771FBD5F8540A0D4A03681B69DC
:10AB4000934208D1D5F83C31B3F90E20B3F90A107D
:10AB500078F04CF9CFE704F5805191F88A2491F808
:10AB6000B0169847D5F8540AECE700BF7873022076
:10AB7000EDA50008FFF7ACBFF8B500F18806054663
:10AB800000240F4F304622F0EFFF05E0D2F8EC2012
:10AB900057F82310914209D1304621F031FCE3B23D
:10ABA0000134984205EB0312F0D8F8BD43F2581077
:10ABB00047F823202844BDE8F84074F0F5BA00BFF8
:10ABC0006C290220FFF7D8BFF8B500F50054054600
:10ABD00044F2506004F5A76304F6642704F668267F
:10ABE000D3F860213A60D3F86C313360D4F8503533
:10ABF00018442FF0C3FDC4F86C0A3A6804F52763C3
:10AC00004FF6FF7128461A6004F6742332681A6002
:10AC100012F0B6FF00B9F8BDD4F850252846092136
:10AC2000BDE8F84002F052BA00F5005090F82C3A16
:10AC300013F006034BD090F82D2AD10747D56FF3B8
:10AC40000002022B10B480F82D2AD0F834213FD016
:10AC500000F5276100F67423D0F83841D1ED005A91
:10AC6000B4F9084093ED006A00F5A76307EE904A37
:10AC7000B2F90840F8EEE77A07EE104AB8EEC77A64
:10AC800066EE676A65EEA77AE7EE256AE7EE067A72
:10AC900093ED5B7A93ED586A27EE877AA6EE867A73
:10ACA000BDEEC77A17EE101A118193ED586A93ED35
:10ACB0005B7A67EE867AD0F83831E6EEC77AFDEE39
:10ACC000E77A17EE902A1A815DF8044B70477047B7
:10ACD00000F6642100F66823BEE700BF38B50446DD
:10ACE00000F500552DED028B69B995F82C3A03F06B
:10ACF0000603042B02D0BDEC028B38BD11F0A2FE7E
:10AD0000B0F57A7FF7D3204611F0BEFED5F86C3A45
:10AD100040F2E6321B1A03F2F3139342EBD944F2EA
:10AD20005063134ADFED137A0344C5F86C0A82FBC3
:10AD30000312DB17C3EB621307EE103AB8EEC78AB3
:10AD400028EE278AB0EE480A07F10CFBF0EE407AB5
:10AD500005F5276305F67425B0EE480AC3ED007AC1
:10AD600008F134F885ED000ABDEC028B38BD00BF58
:10AD70001F85EB5135FA8E3C2DE9F04FE24B06462C
:10AD80000446203041F2980504F59E5925442DEDE6
:10AD9000028B46F8083B89B063F030FADB4BDC49A4
:10ADA00030461E603DF038FD04F148001AF000FE08
:10ADB00004F1880021F09CFA04F5587018F03AFD6F
:10ADC00004F284401EF03CF904F678102CF0E2FF07
:10ADD00041F27800204459F0FFFD28463FF062FA26
:10ADE00041F20830204453F0A1FC41F234302044B9
:10ADF00040F0A8FC48465BF087FD04F58053002234
:10AE000041F2D83083F8C82341F2C833C14A204404
:10AE10002344136038F012FC41F2284020446BF0C8
:10AE200001FCBD4B1A68002A40F0FE82BB4A41F289
:10AE3000B8401C6004F500572260204402F066FC14
:10AE400004ABB74A42F2B0004FF0010B42F238585F
:10AE5000204442F2702AA04442F6B406CDE90442EE
:10AE600093E8060040F076F941F2844142F2441042
:10AE700026442144204442F01DFA41F27A4342F232
:10AE8000DC1023442044C7F8CC31062387F8D031A6
:10AE900047F0CAFF42F2F810204447F0C5FF42F2E3
:10AEA0002020C7F80CB2204453F05EF904F50F538C
:10AEB0002A4641460AEB0400039335F05BFA039BF4
:10AEC0002A4641461D46184637F00CFA5B462A468C
:10AED0000AEB0401404616F05FF930467CF0F2FAC6
:10AEE000904B301DC7F8B4383DF06EFC002800F0E0
:10AEF000968242F6E80042F6501542F6B416204417
:10AF000025443CF06DF92644874BC7F83439284670
:10AF100014354DF0B3FEB542F9D142F6341525444F
:10AF200005F1980083F0D2FF1E2340F27260C7F84B
:10AF3000E8390023A7F8EC391BF08AFBC7F8E409CD
:10AF400042F61020204483F0C1FF784B1A68002A93
:10AF500000F06882764B42F63420B7EE008A43F266
:10AF6000081AC7F8343900232044A244A7F8303A1D
:10AF700004F5405687F8333A43F2581579F002FB4E
:10AF800007F6642342F67C20254483ED008A07F50A
:10AF90002763204483ED008A81F0ECFF42F6A03065
:10AFA000204482F0B5F9634B4FF4007104F5305042
:10AFB000CDE90643604B009308AB13E90C0019F090
:10AFC00079FE43F2E800B0EE480A204448F062F807
:10AFD00043F2FC00B0EE480A204447F02DFF5046F3
:10AFE0001AF016FF002305F11C00C6F83881C6F8D8
:10AFF000203143F21838C6F82431C6F82831A0446D
:10B00000C6F82C31C6F83031C6F834314B4BC6F88F
:10B010001C311AF0FDFE4FF4004328464849C6F89B
:10B020009831C6F89CA13DF0F7FB43F2A010454BC8
:10B03000514620441D6053F05FFD43F2F41020445C
:10B0400065F05EFA43F29020204466F089FA43F2FC
:10B05000A02020443EF038FF3B4B43F2B420C6F81A
:10B06000A032204463F0F6FA43F2D020374B20445C
:10B070003749C6F8E09218603DF0CEFB43F2F82065
:10B08000204459F0A9FCFF233249404686F8283372
:10B0900086F830333DF0C0FB2F4B1D68002D40F08B
:10B0A000C68143F6046943F23830C3F8008043F6A2
:10B0B0003C48A1442044494640F094FF43F6A83060
:10B0C000204470F003FB08EB040069F045FF43F6F1
:10B0D000D84008EB0401204479F05EFA1F4B204968
:10B0E000C6F8D83C062386F82C3D1E4B19600B7819
:10B0F000002B39D02B4601339BB203EB430211F8EE
:10B100003220002AF7D12FE0088911085872022056
:10B110000CFF1108308D022020740220888F110846
:10B1200079A800085488110834AD1208087C022060
:10B130009C8F1108E9A60008788F1108C8F1120841
:10B14000B8EF1208348E022090881108388D022042
:10B1500008C2120884DB1208C08D02208CDA1108A4
:10B16000D4CE1108DC73022044F2843A43F65050E6
:10B17000B04A43F6C855A244204413802544C6F87B
:10B180004CAD4FF0000806F0C7FBAB4B43F68C50BC
:10B1900044F2383BC6F8503D2044A34406F0BCFBC3
:10B1A000A64B2846C6F88C3D06F0B6FBA44B43F6EA
:10B1B0002C60C6F80C5EC6F8C83DA24B2044C6F809
:10B1C000145EC6F8103EA04BC6F81C5E4FF6FF7525
:10B1D000C6F8183E9D4BC6F8203E1AF019FE43F6FD
:10B1E000446020441AF014FE994B9A494846C6F828
:10B1F000543E994BC6F8988EA6F8585EC3F8009056
:10B200003DF00AFBB6F8043E4FF0010943F6E46056
:10B21000A6F8245E23F47F73A6F83C5E86F85A8E67
:10B22000204423F0030386F89C8E86F8C08E04F534
:10B230008045A6F8043E86F8C49E7DF06DFE874BDF
:10B2400044F21400C6F8E43E0026204406F064FBF5
:10B25000834B44F250006B61204406F05DFB814B50
:10B2600044F294002B65204406F056FB7E4B44F2DA
:10B27000D400A5F8D080C5F89430204406F04CFBEB
:10B280007A4B44F21010C5F8D430204406F044FB49
:10B29000774B44F26410C5F84C61C5F81031204476
:10B2A000C5F85061C5F8546106F036FB714B44F2A5
:10B2B000A81085F8A081C5F86431204406F02CFB65
:10B2C0006D4B44F2E81085F8E481C5F8A8312044BC
:10B2D00006F022FB694B44F22420C5F8E8312044F3
:10B2E00006F01AFB664B44F26420C5F82432204471
:10B2F00006F012FB634B44F2F820C5F8DC62C5F897
:10B3000064322044C5F8E06206F006FB5E4B584606
:10B31000A5F83493C5F8F8321AF07AFD0BF1100055
:10B320001AF076FD0BF120001AF072FD0BF13000DF
:10B330001AF06EFD504606F0EFFA544A44F2C0305F
:10B3400004F58B4AC5F88423204406F0E5FA504AF8
:10B3500044F2FC30C5F8C02320440FF0A5FB44F2B2
:10B360007040204406F0D8FA4A4A44F2B04085F8CA
:10B37000AC84C5F87024204406F0CEFA464A04F5A1
:10B380008A40A5F8EC84C5F8B02406F0C5FA434A13
:10B3900044F2405085F83C85C5F80025204406F06D
:10B3A000BBFA394B5046A5F87C95C5F840351AF0E4
:10B3B0002FFD0AF110001AF02BFD0AF120001AF0FF
:10B3C00027FD0AF130001AF023FD354B44F2CC5032
:10B3D00085F8C995C5F8403520440AF0A5FD44F22A
:10B3E0008C60204406F098FA05F5DA6305F5D96219
:10B3F0002C492046C5F88C16166056601E605E60AB
:10B40000C5F8DC8697F8503A23F0030343F00303B2
:10B4100087F8503A09B0BDEC028BBDE8F08F87F891
:10B42000B8B866E51D6095E51F4883F037FF1F48F3
:10B4300083F034FFD873022094DF110800E0110874
:10B4400068E11108EDA60008F1A60008F5A60008BD
:10B450000000FFFF6C5012082C7302202CE2110830
:10B46000D4E11108D4E211083CE31108A4E3110867
:10B4700004E41108ECE511084CE611081CE711087A
:10B4800084E71108ECE7110878E81108B0E9110821
:10B4900044E911086CE2110818ED1108BCE6110826
:10B4A000DCE81108F0ED1108C8881108DC881108E3
:10B4B00038B5054C0A46054B0146246825682046E8
:10B4C0002C68A047002038BD58700220782902203F
:10B4D00010B5084C84F082F8074B024620461A60EB
:10B4E000FFF74AFC2046054A0549BDE8104006F131
:10B4F00033BF00BF7829022058700220209202201A
:10B50000F9A60008FA207047054B93F82C0A00F0C2
:10B510000600A0F10200B0FA80F04009704700BFB9
:10B5200078490220054B93F82C0A00F00600A0F1A0
:10B530000400B0FA80F04009704700BF784902204B
:10B54000014812F045BB00BF782902202DE9F047E1
:10B55000D0E904128369044642F4E05241F4E05118
:10B5600043F4E053C0E90412836122F075FB90F8C4
:10B57000203290F8D622054600EBC31393F89130A1
:10B580000AB1012B5AD8002B58D13BF01BFF0646BD
:10B5900020B190F90530002B40F0CA80DFF8E89127
:10B5A00099F9A83B3BB1236943F0800323616369A8
:10B5B00043F0800363615DF07DFD074620B15DF0DF
:10B5C0000FFD002840F0BD80DFF8C08198F82D3ACB
:10B5D0005B0707D5236943F480332361636943F430
:10B5E00080336361664860F0BBF918B1236943F0AA
:10B5F00080632361634BD3F800A0BAF1000F00F021
:10B60000B380192150463FF02BFC236908B143F465
:10B61000807343F4C043236198F8303A023B142B03
:10B620001DD8DFE803F0147C7C7C7C7C1C7C1C1C1B
:10B630001C141C147C7C7C7C147C1400D4E9042332
:10B6400042F0200243F02003C4E904239DE763692C
:10B6500043F400536361A36943F40053A361484872
:10B6600060F090F918B1636943F08063636195F805
:10B670002012284622F0ACFA18B1A36943F0200347
:10B68000A36198F82D3A580703D598F84D3AD90791
:10B6900060D546B1336833B13379DA0703D5A3698E
:10B6A00043F04003A36199F9A83B1BB199F8343CDE
:10B6B000002B54D127B138465DF092FC002855D1BB
:10B6C0002F4860F069F918B9A36943F08063A3615A
:10B6D00099F8A43B013B012B0BD8D4E9042343F494
:10B6E000800342F48002C4E90423A36943F4800385
:10B6F000A36198F8D431DB070FD5636943F48073F5
:10B700006361BAF1000F08D0192150463FF0C8FB21
:10B7100018B1A36943F48073A361BDE8F087A369FE
:10B7200043F4C043A361636943F4C043636196E794
:10B73000D4E9042342F0400243F04003C4E9042367
:10B740002CE7236943F080032361636943F080039E
:10B75000636139E7A36943F48033A36199E7A3697F
:10B7600043F08003A361A5E7236952E738465DF003
:10B7700081FC0028A4D0A36943F08003A3619FE764
:10B78000F83F0220E873022078590220784902200D
:10B7900010B582B04FF4FC70CDE900211AF04EFFD5
:10B7A0000446DDE900214BF04DFB024B20462360AF
:10B7B00002B010BD1092110808B590F880308B428D
:10B7C00004D300EB8100D0F8840008BD41F06EFD89
:10B7D00000224FF4802141F053FD002008BD00BF3E
:10B7E00008B590F880308B4204D300EB8100D0F88C
:10B7F000840008BD41F05AFD00224FF4802141F041
:10B800003FFD002008BD00BF0020704700207047AA
:10B8100000207047F030704700F5A270704700BFFD
:10B8200000F5CC70704700BF03207047114A92F8B2
:10B83000303A033B142B19D8DFE803F00B0B0B0B4A
:10B840000B18181818181818180B0B180B180B18B9
:10B850000B0058201821D2F8543A23B15B79DB074A
:10B8600048BF41F0C00040F0010070475020102157
:10B87000F1E700BF78490220014B93F83C04704780
:10B8800078390220034B93F9A006003818BF012035
:10B89000704700BF78390220014B93F93E0470478E
:10B8A00078390220024B93F82C0AC009704700BF78
:10B8B00078490220704700BF08B50C4BD3F8540AF2
:10B8C00098B1383047F004FBB7EE001A90ED000A4B
:10B8D000DFED070A2EF09EFFDFED067A20EE270A45
:10B8E000BDEEC00A10EE103A18B208BD7849022029
:10B8F000000000000000C842A1F1190370B5044621
:10B9000082B0232B13D8DFE803F042121212121276
:10B9100012121212124212124512121212121212A4
:10B92000121212121212121212121712424202B004
:10B93000BDE870404FF0F6B9007D4AF0A9F8054621
:10B94000207D253549F0F8FA85422DDA217D1B4806
:10B9500069F0F2FB1A4B1E68CEB1207D4AF098F8D0
:10B960000546207D253549F0E7FA85421CDA00239B
:10B970000DF1060239212046ADF806304DF000FDEC
:10B9800028B1BDF806203046217D65F047FA012038
:10B9900002B070BD007D4AF07BF80546207D113570
:10B9A00049F0CAFA854202DB002002B070BD217D59
:10B9B000044840F0F5FD012002B070BDB4650220DE
:10B9C000B48D0220B05C0220014807F057BC00BFD4
:10B9D000406702200E4B30B5D3F8A43683B004463E
:10B9E0000D46DB070CD411460A4801927CF060FE3C
:10B9F000019A2946204603B0BDE8304050F0F4BC1F
:10BA000011460548019279F0D7F9019AEBE700BF9A
:10BA100078390220284802205066022010B50446DA
:10BA20004CF002F9054812F0D3F8054A0346062106
:10BA30002046BDE810404CF01FB800BF7829022016
:10BA4000CC8F110810B5044682B0019183F048FCF8
:10BA5000054B024601992046C3F8402A02B0BDE8D2
:10BA600010404AF033BF00BF78490220034A92F8E1
:10BA70003031013382F830314AF00EBC784902206F
:10BA800000B583B0084601911AF046FD38B101991E
:10BA9000054802F05FFE002003B05DF804FB0420BF
:10BAA00003B05DF804FB00BF68700220014803F09A
:10BAB0009DBB00BF78290220014803F007BB00BFEF
:10BAC0007829022038B58B8B0C460546CD2B05D046
:10BAD00021462846BDE838404AF00CBC0B4890F897
:10BAE000A61100F5D07053F0FFF80028F0D194EDC6
:10BAF000020A0246DFED067A0146DFED060A20EE75
:10BB0000270A054802F0B8FDE2E700BF7859022095
:10BB10000AD7233C000000006870022038B50C46AC
:10BB20004B7A897A0546E27A43EA012343EA0243E3
:10BB30009D2B05D021462846BDE838404AF05EBB23
:10BB40000C4890F8A61100F5D07053F0CDF80028FD
:10BB5000F0D1D4ED057A02469FED070A0146F8EED2
:10BB6000E77ADFED060A064827EE800A02F084FD38
:10BB7000E0E700BF785902200AD7233C000000000C
:10BB800068700220074A41F6CF1310B541F6CF3452
:10BB900092F93823002A08BF1C464AF03DFB204397
:10BBA00010BD00BF7859022010B504461AF04CFDB4
:10BBB000204610BD10B50D4C94F92C2A002A11DB3B
:10BBC00004F58054D4F84C0D03681B6B984758B9A2
:10BBD000D4F84C0D0368DB6A984700280CBF02209C
:10BBE000032010BD012010BD042010BD78490220A3
:10BBF00038B5F7EE000A91ED050A0C4605462EF021
:10BC0000B5FC28B129460548BDE8384003F024BBFF
:10BC100021462846BDE838404EF016BA7829022061
:10BC20000B7ADB0705D5034ACB68D2F8802613448C
:10BC3000CB60704778490220044B187820B9044B38
:10BC400093F82E0AC0F38010704700BF5C72022088
:10BC500078490220094B93F8E1202AB9A3F58053D3
:10BC600093F84D2AD20601D00520704793F92C3A5B
:10BC7000002BACBF04200320704700BF785902207E
:10BC800008B5074B93F98834032B03D0BDE808406F
:10BC90004BF018BF034A02214BF0EEFE042008BD12
:10BCA00078390220D88F11088A8B202A0FD1D1ED44
:10BCB000007AF5EEC07AF1EE10FA06DD9FED0B7A10
:10BCC000F4EEC77AF1EE10FA03D9032070474EF074
:10BCD000E1BBFCEEE77A82B0054A0020CDED017AA7
:10BCE0009DF80430A2F8B23E02B0704700007F43D6
:10BCF00078390220084BD3F8A42692070AD503F519
:10BD00000053DFED067A93ED430AB8EEC00A20EE49
:10BD1000270A70474AF04AB9783902200AD7233CEB
:10BD200030B595B0044603A81AF072F81A4B03A96F
:10BD3000D3F84C0D03685B6B984750B3257D83F0B7
:10BD4000CFFADDED047A9621059C0022F8EEE77A21
:10BD50009FED127A089400243323019167EE877ACD
:10BD60004FF6F8718DF84E40069C079028460B92CE
:10BD70000C920D920E920F9210921192129207AAAB
:10BD8000ADF84C1057210093CDED0A7A099448F094
:10BD9000F5FB15B030BD00BF785902200AD7233C0F
:10BDA00070B54B4C05462DED068BD4F84C3D96B046
:10BDB0001A681846D3699847002855D004F580536F
:10BDC00093F8E431012B6CD0022B51D0D4F844010C
:10BDD0004FF47C669FED3F0A483031F02BFCD4F8DD
:10BDE0004C3DF0EE407A9FED3B0A5B69B0EE418A34
:10BDF000B0EE60AACDED040A1868F0EE67AACDEDAA
:10BE0000037AB1EE488A00F590708DED051A31F095
:10BE100011FCF0EE409AF0EE608AB1EE419A2C7D72
:10BE200083F05EFA02468C200021332301902046E5
:10BE300001240992109109AA119112911391149160
:10BE400055210093ADF85460CDED0AAA8DED0BAAF3
:10BE50008DED0C8ACDED0D9ACDED0E8A8DED0F9AFC
:10BE60008DF8564048F08AFB16B0BDEC068B70BDCD
:10BE7000D4F84C3D40F6C7769FED160A5B699FEDFE
:10BE800016AA1868F0EE4AAA9FED148A00F5907081
:10BE900031F0D0FBF0EE409AB1EE419AF0EE608ABC
:10BEA000BDE7D4F8440140F6F8769FED0A0ADFEDCD
:10BEB0000A8A483031F0BEFB9FED089AF0EE40AAA6
:10BEC000F0EE689AB1EE418AB0EE60AAA7E700BF33
:10BED000785902200AD7233C0000000000000080AF
:10BEE0002DE9F043424E2DED048B96F82D2A8DB0AE
:10BEF000930604D40DB0BDEC048BBDE8F08306F5C9
:10BF0000805604469FED3B8AD6F83C019FED3A0AE5
:10BF10003C3031F08FFB61EE087AD6F84C7D20EE94
:10BF2000089A8DED020A60EE888AFDEEE77A3B689A
:10BF3000CDED030A38469B6B17EE902A8DED041A5F
:10BF400094F814900FFA82F8984707EE900A384652
:10BF5000F8EEE77A67EE887AFDEEE77A17EE903A28
:10BF60001CB23B68DB6B984707EE900A9FED237A83
:10BF7000F8EE677A67EE887AF4EEC77AF1EE10FA97
:10BF800032D5FCEEE77A17EE903A9DB2D6F8400132
:10BF90006EF068F83B683846B0EE408A1B6C9847F4
:10BFA000DFED147A1A230022B72128EE278A20EE2B
:10BFB000270A0892484605AAADF828808DED059A13
:10BFC000CDED068A8DED078A8DED090AADF82A4080
:10BFD000ADF82C50CDE900313E2148F0CFFA0DB03C
:10BFE000BDEC048BBDE8F0834FF6FF75CEE700BFD4
:10BFF000784902200AD7233C9F0CB34500FF7F47B6
:10C000002DE9F04F2DED048B8BB0064617F0D8F8D4
:10C010000368524D4FF0010A5B6B9847504F9FEDFC
:10C02000518A81469FED509A05F10308DFED4F8A52
:10C03000B7F994340AF1FF3B43FA0BF3DB074AD517
:10C04000307D49F025FD0446307D183448F074FFFA
:10C05000844245DABBF1030F3DD8DFE80BF06857A7
:10C060004602434BD3F8404117F0AAF80368603406
:10C07000DB699847D0ED027A77EE897AF1EE677A3C
:10C0800094ED005A622294ED036A1923D4ED046AF8
:10C0900025EE085A94ED057A26EE086AD4ED065A84
:10C0A00066EE886A27EE087AC22165EE885ACDEDE1
:10C0B000047A8DED035A8DED066ACDED055ACDED6E
:10C0C000076A8DED087A8DF824A0CDE9003203AA25
:10C0D000307D48F053FAA84502D015F801ABA7E728
:10C0E0000BB0BDEC048BBDE8F08F214B214AD3F897
:10C0F0003C0103681B69934229D100F5CC70D9ED4E
:10C10000027A00F1380467EEA87AB9E7184B1A4AA8
:10C11000D3F83C010368DB6893421CD100F5A270A0
:10C12000D9ED017A00F1380467EEA87AA8E7104B40
:10C13000124AD3F83C0103689B68934209D1F0305E
:10C14000D9ED007A00F1380467EEA87A98E79847AD
:10C15000D5E79847F4E79847E2E700BFDD9211087A
:10C16000783902200AD7233C0AE81C41E02E6542B8
:10C170007859022021B8000819B8000815B800083D
:10C18000014811F017BD00BF78290220014B93F838
:10C19000300A704778490220024B93F82D0AC0F309
:10C1A0004010704778490220F8B500F50056054662
:10C1B00096F891316FF3000386F8913183F090F88F
:10C1C000244A04461368C31AB3F57A7F12D8224A68
:10C1D0001368E31A142B1ED8204941F288320B68E9
:10C1E000E31A934227D896F8913143F0010386F879
:10C1F0009131F8BD42F63417106000212F443846C3
:10C200004CF0F0FC032138464CF0ECFC124A136869
:10C21000E31A142BE0D942F6341714602F44384641
:10C2200050F0D0F938464FF0D3FB41F2D8302844D3
:10C2300037F050FBD0E742F634100C60084A062174
:10C24000284447F0C7FB96F8913143F0010386F884
:10C250009131F8BD60700220647002205C70022091
:10C26000FC8F110870B58B8B86B00C46D02B00F07C
:10C27000CE801AD8202B5CD8102B40F2E780113BDF
:10C280000F2B00F2E380DFE813F0E700E100E100AC
:10C29000EF00D600F700E100E100E100E100E1007D
:10C2A000E100E100E100E10012014AF21142934293
:10C2B00000F0348167D94AF21242934200F0428181
:10C2C0004AF21342934240F0C180CB4890F84D5A55
:10C2D00015F0010540F0B680D0F8542A5279D30702
:10C2E00040F1B08090F92C2A002AC0F2EA81D1ED09
:10C2F000007A9FEDC27AF0EEE77AF4EEC77AF1EEBB
:10C3000010FA06D490F8303A03F0EF03042B00F053
:10C31000998002221121BA4805F016FE002800F08B
:10C320000A8140F6C411B74808F06CFF284606B0F1
:10C3300070BD732B00F01F81B22B40F08780D1EDD0
:10C34000017AF5EEC07AF1EE10FA70DD91ED007A27
:10C35000DFEDAD6AB4EEE67AF1EE10FA00F390810B
:10C36000DFEDAA6A00259FEDAA0AB4EEE67AA94B92
:10C3700027EE800AD3F84401F1EE10FA40F37D81F4
:10C3800071F06AF8D2E7B3F5967F00F0A98040F625
:10C39000D812934210D1D1ED017AFCEEE77ACDEDBF
:10C3A000037A9DF80C30012B00F0428101219A485C
:10C3B000002566F0CDFAB9E7D12B47D1D1ED027A4D
:10C3C00091ED046AFCEEE77AD1ED016A91ED007A15
:10C3D000BCEEC66AFCEEE66A91ED030A17EE903AEF
:10C3E000BCEEC77A01468DED056A9CB29DF814003B
:10C3F000CDED036A8DED047A01909DF80C309DF827
:10C4000010207F48009410F0C1F805468EE7D1ED6A
:10C41000007AFCEEE77A17EE903A9DB2012D00F01B
:10C420001B81022D00F01381002D00F007810425EF
:10C43000284606B070BD02220921714805F084FD2E
:10C440000028F4D00025284606B070BD214606B06D
:10C45000BDE870404EF086B802220521684805F01C
:10C4600073FD0028EED1E2E702220621644805F0C0
:10C470006BFD0028E6D1DAE7D1ED027A9FED5F7A15
:10C48000F0EEE77A91ED060ADFED616A614BF4EEBA
:10C49000C77A20EE260AD3F84C0DF1EE10FA4CBF05
:10C4A0000121002111F0FCFF0028CBD1BFE7D1ED25
:10C4B000007AF5EEC07AF1EE10FAB8DD9FED577A0A
:10C4C000F4EEC77AF1EE10FAB1D8FCEEE77A544AEE
:10C4D0000025CDED037A9DF80C30A2F8B23E25E799
:10C4E000454CD4F8543A5B79D807A0D502220321F1
:10C4F000A4F5005005F028FD002898D0A4F50050C0
:10C5000004F580540121FDF70DFE94F8043E012B43
:10C5100098D04448002533F0FDF807E7364890F8F6
:10C520004D3AD9078ED402220521A0F5005005F01E
:10C530000BFD002886D1022231480025114605F066
:10C5400003FDF3E62C4E96F84D5A15F001057FF4E5
:10C5500079AFD6F8543A5B79DA0740F1878096F9DB
:10C560002C3A0222002BC0F296800921A6F5005039
:10C5700005F0EAFCDAE691ED000AB5EEC00AF1EE4C
:10C5800010FAFFF654AFDFED287AB4EEE70AF1EEC9
:10C5900010FA3FF64CAFD1ED037A9FED187AF0EE2A
:10C5A000E76AF4EEC76AF1EE10FA0CD4F7EE000A6F
:10C5B000B0EE670A2DF0DAFF00283FF438AF94EDB3
:10C5C000000AD4ED037ADFED0D6A002594ED027ABE
:10C5D000F4EEE67AD4ED010AFDEEC77A1348F1EEE7
:10C5E00010FACDED037A9DF90C10ACBF01222A465A
:10C5F00002F042F89AE600BF7849022000000034B9
:10C6000078290220C86902209A9939403333F33FD0
:10C610000000C84278590220905C022000007F434D
:10C62000783902207C6702200000B4436870022041
:10C63000002126480D4666F08BF977E62946244806
:10C640005AF0CCFC3121234800F03AFD6EE6214837
:10C65000002503F0C1FA69E629461D485AF0BEFCE0
:10C6600032211C48002500F02BFD5FE6012206F672
:10C67000B4001146FDF706FC58E670F0E3FE55E6FF
:10C68000154B00259FED150AD3F8440127EE800ACB
:10C6900070F0F0FE4AE60521A6F5005005F054FCC6
:10C6A00000283FF4CFAE94ED000A06F58056DFED8A
:10C6B0000B7A0121D6F84C0D20EE270A11F0F0FE7E
:10C6C00034E600F6B400FDF7A1FC2FE6905C0220F2
:10C6D000485C022078290220785902200000C842D4
:10C6E000F6EE007A91ED007AB4EEE77AF1EE10FA08
:10C6F00001DC0420704708B50248FDF787FC0020E4
:10C7000008BD00BF2C5202202DE9F04F2DED028B09
:10C710008A7A9DB04B7A0C46054643EA0223CA7AD0
:10C7200043EA0243A62B28D8832B4CD86D2B00F26A
:10C730009F80512B36D9523B1B2B00F29980DFE8AA
:10C7400013F00E029700B80097009F019700970022
:10C750009700970097009700970097009700970021
:10C760009700970097009700970097009700970011
:10C770009700970097009700AA00B3F5A57F00F0F7
:10C780004E8248D9B44A1A4422F07F42022A6FD816
:10C790002246297DB1481DB0BDEC028BBDE8F04FAB
:10C7A00069F0DEBA002B00F04282452B60D1AC4E1E
:10C7B000CA79B6F93C349A4200F063821DB0BDECF0
:10C7C000028BBDE8F08F843B222B51D8DFE813F0B9
:10C7D00023025000590059005000500050005000F2
:10C7E00050005000500050005000500050005000C9
:10C7F00050001B02500050005000500050005000EC
:10C8000050005000500050005000500050005000A8
:10C81000500050006300F32B28D1CD783D22002139
:10C820000CA8954228BF154608F10EF804F10C013A
:10C830000CA82A4607F1E0FF0E9CDDE90C6546EAEC
:10C840000503234300F0148208A819F0E1FA854B90
:10C8500008A9854883FB0423E41701220A96C4EB48
:10C86000A3040B95099402F031FCA7E7F62B8FD0B7
:10C87000214628461DB0BDEC028BBDE8F04F4FF0BD
:10C880005FBB0A46017D79481DB0BDEC028BBDE857
:10C89000F04F3FF0BDBF0821734811F071F92146F8
:10C8A000024628461DB0BDEC028BBDE8F04F4BF0B0
:10C8B00015BACD78352200210CA895426C4E28BFC0
:10C8C000154607F1C1FF04F10C010CA82A4607F137
:10C8D00093FFD6F84C0D0368DB69984700283FF4B6
:10C8E0006DAF9DF86450EA1FD2B2012D18BF022A25
:10C8F0008CBF4FF0010A4FF0000A3FF65FAFBDF862
:10C900006040002314F0070B0593069304F03808E9
:10C91000079304F4806904F4E07304F4006744D1DD
:10C920009FED546AA5F10801DDED0E6ADDED0F7A89
:10C9300001299DED0D7A66EE866A67EEC67A27EECE
:10C94000067ACDED066ACDED077A8DED057A40F2D7
:10C95000BE82022A40F2CE82039316F031FC90F898
:10C960005421D3077FF52AAF08A819F051FA16F021
:10C9700027FC02469DED077A08A9D2ED527AA6F669
:10C98000C820F8EEE77A77EE277ACDED077A14F033
:10C99000D7FA039B48B19DED097ADDED077AB8EE31
:10C9A000C77A77EEC77ACDED077A0022089209920E
:10C9B0000A92B8F1000F18D19FED2E6AA5F1080276
:10C9C000DDED116ADDED127A012A9DED107A66EE39
:10C9D000866A67EEC67A27EE067ACDED096ACDED56
:10C9E0000A7A8DED087A40F2A081B9F1000F40F08B
:10C9F00034829DED160A083D9FED1F7ADFED1D7A0A
:10CA0000012D20EE070A8CBF4FF0000A4FF0010AFB
:10CA100020EE270A002F40F01D82DDED170A9FED62
:10CA2000167ADFED147A60EE870A60EEA70AA60692
:10CA300040F0F981002B3FF4C1AEB7FA87F7B9FA9D
:10CA400089F308AA05A97F090C485B09CDE9007A9A
:10CA50000AF078FDB2E600BFEFD8FF00B46502200F
:10CA6000783902206766666678290220B05C022069
:10CA7000785902200000C842E02E6542206B022057
:10CA8000CE78352200210CA8964228BF164607F121
:10CA9000DBFE04F10C010CA8324607F1ADFEC04BE1
:10CAA000D3F84C0D0368DB69984700283FF486AE45
:10CAB000BDF86040002314F0070605930693079322
:10CAC00000F0868114F4806240F066819DED160AC4
:10CAD0009FEDB47A9DF8640020EE070ADFEDBB7A83
:10CAE0000838012820EE270A8CBF0020012014F40A
:10CAF000006340F04E81DDED170A9FEDAA7ADFED6D
:10CB0000B37A60EE870A60EEA70AA50604F4E07126
:10CB100040F0138100293FF451AE9FEDAC6AB3FAA7
:10CB200083F4DDED106AB2FA82F39DED117A6409A7
:10CB3000DDED127A66EE866A27EE067A5B0967EE0D
:10CB4000C67A08AA05A9CDED086A8DED097ACDED62
:10CB50000A7ACDE9004094480AF0F4FC2EE6CD783C
:10CB6000272200210CA8954228BF154607F16CFE2C
:10CB700004F10C010CA82A46894D07F13DFED5F8B9
:10CB80004C0D0368DB69984700283FF417AE9DF809
:10CB9000564014F0C00F7FF411AEDFED840AB7EEFB
:10CBA000001A9DED140A2DF035FEF6EE000AB0EEE7
:10CBB000408A2DF0DBFC002840F08681F6EE007AFA
:10CBC000B4EEE78AF1EE10FA40F3968138EE678A08
:10CBD000D5F8443193ED080A38EE088A28EE000AA9
:10CBE0000D9984F004020F980E9CC2F38002109BF2
:10CBF000089108A90A90DDED130A6B4809940B937C
:10CC00000AF016FDDAE56A481DB0BDEC028BBDE8FE
:10CC1000F04F6EF0C3BE67483EF0B4F82146664858
:10CC20001DB0BDEC028BBDE8F04F5EF0EBBD634E76
:10CC3000CA79B6F93C349A427FF4C0AD06F5805605
:10CC400082F04EFBC6F8400A80F02EFA437A33B1E8
:10CC500080F02AFA2B7D027A9A423FF4AFAD80F041
:10CC600023FA0123437280F01FFA2B7D0372A5E59E
:10CC7000012153481DB0BDEC028BBDE8F04F02F01E
:10CC8000B5BACA7800240C310CA80B2A28BF0B2295
:10CC9000CDE90C44CDF8374007F1AEFD9DF83A20C0
:10CCA000B6F93A349A427FF489ADBDF93480A04593
:10CCB000FFF684AD06F5805682F012FB9FED410A27
:10CCC00007464FF47A73BDF93220CDE900042846B7
:10CCD000D6F834114FF04AFD01239FED3A0A284659
:10CCE00001934FF47A73BDF930200097D6F83811CC
:10CCF0004FF03CFD9FED340A424623462846CDE9DD
:10CD00000074D6F83C114FF031FD9FED2E0A4FF420
:10CD10007A732846BDF93620CDE90074D6F8401163
:10CD20004FF024FDC6F8407A48E509AA08A924482E
:10CD30000393FDF7CBFB039B57E614F0380440F058
:10CD40008F80002E00F08C8000293FF437AD9FEDDE
:10CD50001F6A0124DDED106AB3FA83F39DED117AA9
:10CD6000B2FA82F2DDED127A66EE866A27EE067A74
:10CD70005B0967EEC67A520908A9CDED086A8DED08
:10CD8000097ACDED0A7ACDE9000407480AF080FB64
:10CD900014E5DFED060AB8E600209FED040AA6E6DA
:10CDA00078590220E02E6542206B0220000000002E
:10CDB00020650220103A0220F83F02207839022034
:10CDC000782902200000FA4400007A440000C8429A
:10CDD000DDE90D78384641462DF022FF00283FF46A
:10CDE000EDAC284604AA9DF864104FF0A7FC00287B
:10CDF0003FF4E4ACDDED0F7A39461FED0C7A424684
:10CE0000049B08A867EE877A0093FDEEE77A17EE99
:10CE1000903A19F015F805A908A819F08FF900281B
:10CE20003FF4CCAC4EE6B8F1000F32D1BBF1000FAD
:10CE30002FD0002B3FF4C2AC0120B7FA87F3B9FA28
:10CE400089F208A95B095209CDE900A031480AF02E
:10CE50001FFBB3E4DFED300AE9E59FED2F0AD9E5CA
:10CE6000B6FA86F6002C4FEA561608BF0026002EAA
:10CE70003FF4A4AC00293FF4A1ACB3FA83F3B2FAB7
:10CE800082F2009005A95B09224852090AF01EFAB5
:10CE900094E4BBFA8BF2B8F1000F4FEA521208BFCC
:10CEA0000022002A3FF48AAC002B3FF487ACB7FA8B
:10CEB00087F3B9FA89F205A9CDF800A05B091548F6
:10CEC00052090AF003FA79E49FED130A88E6A6F501
:10CED000405005AE06AA03933146FDF7F7FA039BCF
:10CEE0000E48039372F0D2FC0146304630F078FBD6
:10CEF000039B5AE505AEF3E7D5F8443137EEC88A0F
:10CF000093ED090A38EE088AB0EEC00A20EE480A0E
:10CF100066E600BF206B022000000000945A022049
:10CF2000F0B500F5405605468DB09FED390AD6F8AC
:10CF30003C0142F2441403AF3C302C4430F07AFB05
:10CF40000CAACDED0A0A06AB8DED0B1A8DED090A80
:10CF500012E9070087E807009DED050A83E807004E
:10CF60002DF0F6FB394620468DED050A43F04CF8CE
:10CF7000D6F8403105F5005120460093D1F8542AE7
:10CF8000D6F83C31D1F8B01843F0B6FB4FF48051DD
:10CF9000284610F0F5FD90B3D6F83C011D4A036811
:10CFA0009B6893422DD1F03000F13802C821204611
:10CFB00043F000FBD6F83C01174A0368DB68934254
:10CFC00023D100F5A27000F13802C921204643F0B8
:10CFD000F1FAD6F83C01114A03681B69934212D159
:10CFE00000F5CC7000F13802CA21204643F0E2FA85
:10CFF000D6F84021CB212046603243F0DBFA0DB059
:10D00000F0BD9847D0E79847ECE79847DBE700BFCB
:10D010009F0CB34515B8000819B8000821B80008DE
:10D0200038B5054642F2441415F098FA2C4415F030
:10D0300089FA204642F006FE2046BDE8384042F01C
:10D04000A7BE00BF30B5002389B0952200F500557A
:10D050000193A32106930446CDF81B308DF80520DB
:10D060008DF80410CDE90233CDE9043306238DF8A1
:10D07000063082F03DF9CDF80700D5F8540ACDF816
:10D080000B10D0F8D430C830CDF80F3045F020FF69
:10D0900004F530520068D5F8543A01A9D2F880223C
:10D0A000CDF8130042F24410D3F8D830CDF8172051
:10D0B00020441B22CDF81B3040F0F8FA09B030BDF7
:10D0C000034642F24410184440F030BF70B50D469C
:10D0D00084B04FF6FF710646144610F051FD08B9B2
:10D0E00004B070BD0023CDE90033CDE90233A323A2
:10D0F0008DF8003095238DF8013003238DF8023030
:10D1000082F0F6F8CDF8030042F244100B461022EC
:10D11000304469468DF80B50CDF80730039440F049
:10D12000DFFA04B070BD00BF70B50D4684B04FF695
:10D13000FF710646144610F023FD08B904B070BD17
:10D140000023CDE90033CDE90233A3238DF800306D
:10D1500095238DF8013004238DF8023082F0C8F851
:10D16000CDF8030042F244100B46102230446946C9
:10D170008DF80B50CDF80730039440F0B1FA04B0AD
:10D1800070BD00BF30B50023A32204460D462DED2F
:10D19000048B87B0B0EE409AF0EE608A0093B0EE58
:10D1A000418A05938DF800209522CDE90133CDE920
:10D1B000033307238DF801208DF8023082F098F8B0
:10D1C000CDF8030042F244100B4618226946204471
:10D1D0008DF80B50CDF807308DED039ACDED048A14
:10D1E0008DED058A40F062FA07B0BDEC048B30BDCE
:10D1F000F8B590F8893300F50055044600EB431369
:10D2000095F8501A93F8AD2301F001011AB193F883
:10D21000AE23002A4ED1914211D095F8503A62F3D4
:10D22000000385F8503A40F02DFF95F8503A12214E
:10D2300013F0010F0CBF0422002240F0A5FE04F2FF
:10D2400084474FF0000195F8506A38461CF044F9C5
:10D25000C6F34006C0B2C0EB401004EB800090F86B
:10D26000FD34B3421DD04FF0000138461CF034F9B4
:10D2700095F8503AC0B2C0EB401004EB800090F833
:10D28000FD2462F3410385F8503A40F0FBFE95F827
:10D29000503A032113F0020F0CBF0422002240F089
:10D2A00073FE95F8503A94F8A822C3F38101914295
:10D2B00003D1F8BD93F8AF23ADE762F3830342F2E5
:10D2C00044104321204485F8503ABDE8F84040F02E
:10D2D0002DBE00BF2DE9F04F2DED028B8DB08046A5
:10D2E0002F2200216846F0EE408AB0EE608A11EEEF
:10D2F00010BA11EE90AA12EE109A12EE907A13EE76
:10D30000106A13EE905A14EE104A07F19DFAA32307
:10D310008DF8003095238DF801300B238DF8023005
:10D3200081F0E6FF18EE903ACDF8030042F2441087
:10D33000CDF80710CDF80B302F2218EE103A6946C1
:10D340004044CDF813B0CDF80F30CDF817A0CDF88C
:10D350001B90CDF81F70CDF82360CDF82750CDF885
:10D360002B4040F0A3F90DB0BDEC028BBDE8F08F6F
:10D3700030B52DED088B8BB0282204460D4668464B
:10D380000021B0EE40BAF0EE60AAB0EE41AAF0EE95
:10D39000619AB0EE429AF0EE628AB0EE438A07F1EB
:10D3A00053FAA3238DF8003095238DF801300C2318
:10D3B0008DF8023081F09CFFCDF8030042F244105A
:10D3C0000B462822694620448DF80B50CDF80730D3
:10D3D0008DED03BACDED04AA8DED05AACDED069A2B
:10D3E0008DED079ACDED088A8DED098A40F05EF942
:10D3F0000BB0BDEC088B30BD70B500F5405694B055
:10D4000096F9A83B002B5DD043F6A83500230446CF
:10D4100069460544049305932846069300930193B7
:10D42000029303936EF06EFA02A928466EF090FA0A
:10D4300004A928466EF056FA3222002107A807F107
:10D4400003FAA3238DF81C3095238DF81D30092392
:10D450008DF81E3081F04CFF96F8343CCDF81F005B
:10D460002846CDF823108DF827306EF0E5F9009BA3
:10D47000024642F2441007A9CDF82930019B20440E
:10D480008DF82820CDF82D30039B029ACDF8353049
:10D49000059BCDF83120049ACDF83D30D6F8D43B29
:10D4A000CDF83920069AD6F8004CCDF8453096F8DC
:10D4B000AB3BCDF841203222CDF849408DF84D30BC
:10D4C00040F0F4F814B070BDF0B58BB015460646C8
:10D4D0000F462422002101A81C4607F1B5F9A32319
:10D4E0008DF8043095238DF805300A238DF8063029
:10D4F00081F0FEFE2B682422CDF8070042F2441092
:10D5000004936B683044CDF80B1001A90593AB6808
:10D510006568069323688DF80F700793A3680895D4
:10D52000099340F0C3F80BB0F0BD00BF38B5044616
:10D5300042F2441510F04CFB0C49254402462846A3
:10D5400040F020F804F50053284693F8312A93F868
:10D55000301A40F0F1F942F23850204415F0F6FD4F
:10D5600004F18800BDE838401FF034BFCC8F1108AB
:10D57000034642F24410A922014918443FF0C8BEB4
:10D58000B8B111082DE9F041044643F238300023C8
:10D59000012220442DED028B92B001A901933EF0AF
:10D5A00039FE08B9554B019304F54057D7F84C0D97
:10D5B0000368DB689847002840F09180D7F8403135
:10D5C0009FED4F7AD3ED446AD3ED4D7A86EE878A8C
:10D5D000FDEEE77A17EE903A0FFA83F842F20C2646
:10D5E00002A92644304610F0A3F800287CD03B2244
:10D5F000002103A804F5005507F126F9A3238DF8AF
:10D600000C3095238DF80D3081F072FED7F83C3147
:10D61000CDF80F00D5F8540AD3F8AC20D3F8B030C9
:10D620003830CDF81720CDF81B30CDF8131045F069
:10D630004FFCB7EE001A90ED000ADFED320A2DF034
:10D64000E9F8D5F8540A10EE103A2F4ACDF81F30F9
:10D6500003681B6893424CD1D0F8A03043F21C15EC
:10D66000CDF8233018EE103A2819CDF8273072F093
:10D6700011F9DFED237A3046D7F8E430C0EE277A8F
:10D68000CDF82F3017EE903ACDF82B30029BCDF825
:10D69000333010F061F8019A10EE103A2819ADF805
:10D6A0003F80CDF83730CDF83B2072F0F7F8BDEE73
:10D6B000C00A04F6781342F244103B22D3F8E03358
:10D6C00003A9204410EE104ACDF84330ADF8414094
:10D6D0003FF0ECFF12B0BDEC028BBDE8F0814FF0E3
:10D6E00000089FED088A79E740F0CCFC034B0293D9
:10D6F0007DE7984710EE103AB0E700BF2292CA7F4C
:10D700000000C8420000000041A20008F8B505462C
:10D71000083057F061F9314F05F1280005F5047420
:10D7200078F0EAFD05F1680060F0A6FB4FF080425A
:10D7300000232B482B4905F59266C5F8AC202A4AF0
:10D74000C5F88830C5F88C30C5F89030C5F8B030D1
:10D75000C5F8B420C5F8A80005F1BC00C5F8B8109C
:10D76000224978F06DFF05F5C0705BF011FC05F5FE
:10D77000E4705DF0D7FF05F5FE704FF0C3FD1C4B64
:10D78000C5F8FC3120464FF079F844F8287BB442C4
:10D79000F8D1184E204650F0DBFA002105F5146050
:10D7A00077F0D6FDC5F8F46905F6F8107AF034FF85
:10D7B000A6F5DD6305F68420A6F5E876C5F8803A7F
:10D7C00082F0E8FA05F69C2063F076FC28460A49C8
:10D7D000C5F8E86B3BF020F82846F8BD60DA110880
:10D7E0000000C8410000E0400AD7233CAC3C0220C6
:10D7F00074DA1108446F022054CC11082DE9F04767
:10D800002DED028BADF5427D644C814690220DF1E9
:10D81000C80863497AAE09F5805A40469FED618A8F
:10D8200006F1EAFF0DF1580C454656AF0FCCACE8B7
:10D830000F000FCCACE80F0094E80F0004F59879C6
:10D840008CE80F0004F110014FF49072304606F19D
:10D85000D3FF0DF1180E04F5A87C22AC9FED520AFF
:10D86000B9E80F00AEE80F0099E80F008EE80F004E
:10D87000BCE80F000FC4BCE80F000FC4BCE80F00E9
:10D880000FC49AF88A34013B022B98BFB0EE408A4D
:10D890009CE80F0084E80F0028461035B0EE480AD7
:10D8A00000213BF08DFBBD42F6D19FED400A16A84A
:10D8B000002134463BF084FBC2AD9FED3C0A0021C1
:10D8C0001AA83BF07DFB9FED390A00211EA83BF012
:10D8D00077FB20461034B7EE000A00213BF070FBC6
:10D8E000A542F6D19FED320A06A8002102AC3BF01A
:10D8F00067FB00210AA89FED2E0A3BF061FB2D4B30
:10D900000FCB84E80F0001A920463BF019FB88BB30
:10D9100022AC20461034B7EE000A00213BF050FB49
:10D92000A045F6D19022244938463C4606F164FFD2
:10D9300020461034002201213BF03EFCB442F7D1D6
:10D940001E4D0EAC0FCD0FC495E80F0084E80F00FC
:10D950000EA8002201213BF02FFC002201212046CD
:10D960003BF02AFC50F0BEF90DF5427DBDEC028B78
:10D97000BDE8F0879DF90430F0EE007ADFED106A23
:10D98000B7EE000A07EE103AE068B8EEC77AE7EEA5
:10D99000267A80EE270A3CF0A1F9B9E7DC7E11086F
:10D9A0004C7E11085C8FA23F6666663F530469395E
:10D9B0006F12833A8C8011089C8011082C81110809
:10D9C000CDCCCC3D2DE9F04F2DED028B91B01D203B
:10D9D0000DF1060150F098F820B911B0BDEC028BA2
:10D9E000BDE8F08F9DF806301121A74A0BA801333E
:10D9F000DBB28DF8063081F031FB00220DF107011A
:10DA00000BA83AF0C9FB9DF80630A04A1121044644
:10DA10000BA881F023FB00220DF107010BA83AF0BF
:10DA2000BBFB9DF806309A4A112105460BA881F0F0
:10DA300015FB00220DF107010BA83AF0ADFB9DF894
:10DA40000630944A112103F03F0307460BA881F0EA
:10DA500005FB0DF107010BA800223AF09DFB0646DD
:10DA6000002CBAD0002DB8D0002FB6D00028B4D0EA
:10DA700020463AF03BFE0028AFD128463AF036FE69
:10DA80000028AAD138463AF031FE0028A5D1304608
:10DA90003AF02CFE0028A0D17F4B0DF10C0C0DF1BB
:10DAA0001C0803F1100E0FCB8CE80F009EE80F004E
:10DAB00088E80F0002A960463BF042FA02A900285C
:10DAC00062D04046BDF908803BF03AFA1FFA88F36D
:10DAD000002840F0C280002B3FF47FAF40F2D66AAE
