:020000040800F2
:100000000004022001020008910F0008950F00086B
:10001000E90F0008950F0008BD0F00080302000853
:100020000302000803020008030200082928000850
:10003000030200080302000803020008030200088C
:10004000030200080302000803020008030200087C
:100050000302000803020008393A0008653A000864
:10006000913A0008BD3A0008E93A00080302000886
:10007000030200080302000803020008030200084C
:10008000030200080302000803020008030200083C
:10009000030200080302000803020008153B0008E1
:1000A000030200080302000803020008030200081C
:1000B0005D3800080302000803020008030200087C
:1000C00003020008030200080302000803020008FC
:1000D00003020008030200088D1100080302000853
:1000E0007D3B000803020008030200080302000829
:1000F00003020008030200080302000803020008CC
:1001000003020008030200080302000803020008BB
:1001100003020008030200080302000803020008AB
:10012000030200080302000803020008030200089B
:10013000030200080302000803020008030200088B
:10014000030200080302000803020008952F0008BC
:10015000030200080302000803020008030200086B
:10016000030200080302000803020008030200085B
:10017000030200080302000803020008030200084B
:100180000302000803020008A1110008030200088E
:10019000030200080302000803020008030200082B
:1001A000030200080302000803020008030200081B
:1001B000030200080302000803020008030200080B
:1001C00003020008030200080302000803020008FB
:1001D00003020008030200080302000803020008EB
:1001E00003020008030200080302000803020008DB
:1001F00003020008030200080302000803020008CB
:1002000002E000F000F8FEE772B6394880F3088893
:10021000384880F3098838484EF60851CEF200017C
:10022000086040F20000CCF200004EF63471CEF2CD
:1002300000010860BFF34F8FBFF36F8F40F20000E3
:10024000C0F2F0004EF68851CEF200010860BFF314
:100250004F8FBFF36F8F4FF00000E1EE100A4EF6A4
:100260003C71CEF200010860062080F31488BFF3D1
:100270006F8F02F017FB03F079FA4FF055301F49EA
:100280001B4A91423CBF41F8040BFAE71C49194A4A
:1002900091423CBF41F8040BFAE71A491A4A1B4B3A
:1002A0009A423EBF51F8040B42F8040BF8E70020D5
:1002B0001749184A91423CBF41F8040BFAE702F093
:1002C00035FB03F0BDFA144C144DAC4203DA54F87C
:1002D000041B8847F9E700F03FF8114C114DAC4280
:1002E00003DA54F8041B8847F9E702F01DBB00004D
:1002F0000004022000240220000000080000022068
:1003000000040220E83F00080024022050240220BC
:100310005024022048390220000200080002000890
:1003200000020008000200082DE9F04F2DED108AB0
:10033000C1F80CD0D0F80CD0BDEC108ABDE8F08F1D
:10034000002383F311882846A047002001F0F6FE21
:1003500001F0A6FE00DFFEE770B532231F4C00253A
:100360006FF07F0623701F236570A570E5702571FF
:100370006571A571E57125726672A372E57200F070
:1003800029FD20B10F2325726672A372E57202F077
:100390000DFA044602F042FA0546D0B9104B9C42D1
:1003A00019D001339C4241F2883412BF0546002423
:1003B0000125002002F004FA0DB100F0B7F800F0BA
:1003C00087FD00F05DFC204600F050F900F0AEF82B
:1003D000F9E70024EDE70446EBE700BF50240220D4
:1003E000010007B008B500F0C9FBA0F12003584296
:1003F000584108BD054B07B51B88022101A8ADF87F
:10040000043000F027FC03B05DF804FB643C0008F6
:10041000064991F8243033B100230822086A81F894
:10042000243000F04FBC0120704700BF7024022030
:100430002DE9F84F234C05468846174694F824309A
:100440008BBB2E46DFF87C90002F38D094F824A088
:10045000BAF1000F05D12022FF214846266200F0A4
:1004600025FDCAF10805414604EB8A00BD4228BFBC
:100470003D465FFA85FBAD00A7EB0B072A462E44ED
:1004800000F0ECFC94F82430A844FFB29B445FFADF
:100490008BFBBBF1080F84F824B0D5D1FFF7B8FF70
:1004A0000028D1D108E0266A06EB8306B042C9D005
:1004B000FFF7AEFF0028C4D10020BDE8F88F01206F
:1004C000BDE8F88F7024022010B5202383F3118833
:1004D0001248C3680BB101F0B7FE0023104A4FF475
:1004E0007A710E4801F074FE002383F311880D4CDD
:1004F000236813B12368013B2360636813B1636809
:10050000013B6360084B1B7833B9636823B9022051
:1005100000F092FC3223636010BD00BF5C24022017
:10052000C9040008A025022098240220454B464912
:100530002DE9F04153F8042F013201D1BDE8F081DB
:100540008B42F7D1414C424B22689A4278D9414BB9
:100550009B6803F1006303F500439A4270D20020C8
:1005600000F0A8FB02203C4B187000F059FC3B4BFC
:100570001A6C00221A64196E1A66196E596C5A6444
:10058000596E5A66596E596941F08001596159692D
:1005900021F0800159615969196941F000511961CF
:1005A000196921F0005119611B6972B62C4B2D4954
:1005B0000B601D682468BFF34F8FBFF36F8F2A4B0A
:1005C000C3F88420BFF34F8F5A6922F480325A61F6
:1005D000BFF34F8FD3F8802043F6E07EC2F3C90605
:1005E000C2F34E32B707520102EA0E0838463146CE
:1005F000013948EA000C00F14040B1F1FF3FC3F877
:1006000074C2F5D1203A12F1200FEDD1BFF34F8F14
:10061000BFF36F8FBFF34F8FBFF36F8F5A6922F411
:1006200000325A610022C3F85022BFF34F8FBFF34C
:100630006F8F202383F31188AD4685F30888204708
:10064000BDE8F081FC7F00081C80000804800008E1
:10065000FF7F000850240220982402200038024026
:100660000080000808ED00E000ED00E02DE9F04F0B
:1006700099B0B34C2022FF21019010A8A66800F089
:1006800015FCB04AA3461378A3B90121AE481170F6
:10069000C360202383F31188C3680BB101F0D4FD3C
:1006A0000023AA4A4FF47A71A74801F091FD002374
:1006B00083F31188019B13B1A54B019A1A600023A3
:1006C000A44AA349019F99461C461D4698461370AB
:1006D0004B600292012000F0A3FB002F00F0128279
:1006E0009B4B1B68002B40F00D8219B0BDE8F08FCA
:1006F0000220FFF777FE002840F0FB81019BB9F153
:10070000000F08BF1F46944B1B8802210BA8ADF8B1
:100710002C3000F09FFADDE74FF47A7000F02EFAEB
:10072000031E0393EADB0220FFF75CFE82460028EB
:10073000E4D0039B581E042800F2DD81DFE800F0BE
:10074000030E1114170018A80523042140F8343DA6
:1007500000F080FA54464FF0000856E00421784833
:10076000F6E704217D48F3E704217D48F0E71C24E7
:100770002046043400F0A0FA04210B900BA800F0EE
:1007800069FA2C2CF4D1E5E7002DB7D0002CB5D0B8
:100790000220FFF727FE0546002800F0AF81012068
:1007A0006C4C00F087FA4FF000090220207000F036
:1007B00037FB5FFA89FA504600F08CFA074658B1C9
:1007C000504609F1010900F095FA0028F1D12C46B4
:1007D000A9460027634B97E701233E46022023707A
:1007E00000F010FBDBF808309E4206D2304600F0E5
:1007F00063FA0130EBD10436F4E70026029BA946E8
:100800002C461E703746524B5E6000F057FB15B108
:10081000002C18BF0027FFF7EDFD5BE7002D3FF42C
:100820006DAF002C3FF46AAF0220029B187000F0FD
:10083000F7FA322000F0A2F9B0F1000AC0F25E81AE
:100840001AF0030540F05A8106EB0A03DBF8082092
:10085000934200F25381BAF5807F00F24F815545F3
:100860000DDA4FF47A7000F089F90490049B002BA4
:10087000C0F24481049B3C4AAB540135EFE7C820E9
:10088000FFF7B0FD0546002800F038811F2E11D873
:10089000C6F1200410AB26F0030033495445184438
:1008A00028BF5446224600F0D9FA2246FF212E489E
:1008B00000F0FCFA4FEAAA0A2B4930465FFA8AF2A6
:1008C000FFF7B6FD0446002800F01A8106EB8A0601
:1008D00005469AE70220FFF785FD00283FF40EAF9A
:1008E000FFF796FD00283FF409AF4FF0000A53468A
:1008F000DBF8082092451CD2BAF11F0F12D8109ACB
:1009000001320FD02AF0030218A90A4452F8202C11
:100910000B92184604220BA90AF1040A00F078FB96
:100920000346E5E75046039300F0C6F9039B0B909E
:10093000EFE718A8042140F84C3D00F08BF964E77C
:10094000502402209C2502205C240220C9040008B7
:10095000A025022098240220663C0008542402208E
:1009600058240220683C00089C24022018A8002378
:10097000642140F8343D00F039F900287FF4BEAE20
:100980000220FFF72FFD00283FF4B8AE0B9800F0CF
:10099000C3F918AB43F8480D04211846CDE718A851
:1009A0000023642140F8343D00F020F900287FF452
:1009B000A5AE0220FFF716FD00283FF49FAE0B986E
:1009C00000F0B8F918AB43F8440DE5E70220FFF753
:1009D00009FD00283FF492AE00F0B2F918AB43F8DD
:1009E000400DD9E70220FFF7FDFC00283FF486AE5A
:1009F0000BA9142000F0AAF9824618A8042140F897
:100A00003CAD00F027F951460BA896E7322000F0E4
:100A1000B5F8B0F1000AFFF671AE1AF0030F7FF4DB
:100A20006DAE0AEB0803DBF8082093423FF666AE92
:100A30000220FFF7D7FC00283FF460AE2AF0030A3B
:100A4000C244D0453FF4E1AE404608F1040800F04E
:100A500033F904210A900AA800F0FCF8F1E74FF4FA
:100A60007A70FFF7BFFC00283FF448AEFFF7D0FCD8
:100A700000283FF4AFAE109B01330CD0082210A920
:100A80000020FFF7D5FC00283FF4A4AE2022FF2170
:100A900010A800F00BFAFFF7ADFC374801F054FB4B
:100AA00023E6002D3FF42AAE002C3FF427AE18A811
:100AB0000023642140F8343D00F098F88246002875
:100AC0007FF41CAE0220FFF78DFC00283FF416AE29
:100AD0000390FFF78FFC41F28830574601F034FB5A
:100AE0000B9800F035FA00F0E9F9039B1C461D460F
:100AF000F0E5054689E64FF00008FFE52546FDE5EF
:100B00002C4667E6002000F039F80490049B002B87
:100B1000FFF6E3AD012000F075F9049B213B122B99
:100B20003FF6D8AD01A252F823F000BFF10600084D
:100B30001907000889070008D5060008D50600082F
:100B4000D50600081D0800080D0A0008D508000891
:100B50006D0900089F090008CD090008D5060008A6
:100B6000E5090008D50600085F0A00080B08000820
:100B7000D5060008A30A0008A08601002DE9F34766
:100B80004FF47A75002402AE154F4543DFF85880C4
:100B900006F8014D97F900305FFA84F95A1C01D02C
:100BA000A34212D158F82400012231460368D3F839
:100BB00020A02B46D047012807D10A4B9DF80700FB
:100BC00083F8009002B0BDE8F0870134032CE1D136
:100BD0004FF4FA7001F0B8FA4FF0FF30F2E700BFBF
:100BE00000240220C4250220743C00082DE9F047AF
:100BF0004FF47A7506460024134F4D43DFF85080BA
:100C000097F900305FFA84F95A1C01D0A34210D141
:100C100058F82400042231460368D3F820A02B465C
:100C2000D047042805D1094B002083F80090BDE887
:100C3000F0870134032CE3D14FF4FA7001F084FA09
:100C40004FF0FF30BDE8F08700240220C4250220C9
:100C5000743C0008074B30B41A78074B53F8224015
:100C60000A46014623682046DD69044BAC4630BC89
:100C7000604700BFC4250220743C0008A086010024
:100C800070B50A4C00250A4E01F096FC20703068C1
:100C90002378834208D901F089FC33680544013385
:100CA000B5F5004F3360F2D370BD00BFC5250220FB
:100CB000A825022001F02CBD00F1006000F50040E5
:100CC0000068704700F10060920000F5004001F0FC
:100CD000B9BC0000054B1A68054B1B789B1A834270
:100CE00002D9104401F062BC00207047A825022000
:100CF000C525022038B5074D04462868204401F078
:100D00005DFC28B928682044BDE8384001F06EBC7D
:100D100038BD00BFA825022010F0030308D1B0F5AC
:100D2000806F05D800F10050A0F571200068704771
:100D300000207047014BC058704700BF20F4F01FDF
:100D4000014B1868704700BF002004E01F4BF0B54E
:100D50001E681F4BC6F30B02360C1F885D68BA4233
:100D600093F9084022D09F89BA4221D01F8BBA4202
:100D700006D102220C2404FB02335D6893F908407B
:100D8000B6F5805F16D041F201039E4208BF5A2497
:100D9000421E013D0B460A44934215D215F9016FDC
:100DA000581C4EB1034600F8016CF5E70022E1E75C
:100DB0000122DFE74124EBE72C2582421D7001D997
:100DC000981C5C70401AF0BD1846FBE7002004E058
:100DD00004240220094B5B88B3F5805F09D041F2FF
:100DE0000102934207D10122054B03EB8203D8781D
:100DF00070470022F8E70020704700BF002004E0A1
:100E00006C3C0008022804D14FF48002034B9A6125
:100E100070470128FCD14FF40002F7E700080240B8
:100E2000022803D14022034B9A6170470128FCD16C
:100E30008022F8E700080240022805D1064A5369DB
:100E400083F04003536170470128FCD1024A536983
:100E500083F08003F6E700BF00080240002310B5CE
:100E6000934203D0CC5CC4540133F9E710BD0000B9
:100E700030B5441E14F9010F0B4658B193F90050D8
:100E80000131854206D11AB993F90020801A30BD8C
:100E9000013AEFE7002AF7D1104630BD024603467B
:100EA000981A13F9011B0029FAD17047024403462E
:100EB000934202D003F8011BFAE77047024B1A78FD
:100EC000024B1A70704700BFC42502200024022084
:100ED00038B5184C184D204600F076FC29462046BF
:100EE00000F09EFC2D681548EA6ED2F8043843F0F5
:100EF0000203C2F8043801F027F91149284600F02E
:100F00009DFDEA6E0F48D2F804380F49A04223F045
:100F10000203C2F804384FF4E1330B6001D000F053
:100F2000B1FB0A48A04204D00749BDE8384000F0B0
:100F3000A9BB38BD602F0220683D000840420F0069
:100F4000903D000848260220AC250220B42602204D
:100F500038B50B4B05461A780A4B53F822400A4B1A
:100F60009C420CD0094B002118221846FFF79EFF27
:100F7000056001462046BDE8384000F083BB38BD1F
:100F8000C4250220743C0008602F0220AC250220FA
:100F9000FEE7000000B59BB0EFF3098168226846C8
:100FA000FFF75CFFEFF30583034B9A6B9A6A9A6A2B
:100FB0009A6A9A6A9B6AFEE700ED00E000B59BB072
:100FC000EFF3098168226846FFF748FFEFF30583D6
:100FD000044B9A6B9A6A9A6A9A6A9A6A9A6A9B6AA4
:100FE000FEE700BF00ED00E000B59BB0EFF3098124
:100FF00068226846FFF732FFEFF30583034B5A6B15
:101000009A6A9A6A9A6A9A6A9B6AFEE700ED00E019
:1010100030B50A44074D91420BD011F8013B092429
:101020005840013CF7D040F300032B4083EA5000C6
:10103000F7E730BD2083B8ED002304491A465A5023
:10104000C81808334260802BF9D17047C8250220A8
:10105000026843681143016003B1184770470000FC
:10106000024A136843F0C003136070470044004015
:10107000024A136843F0C0031360704700780040D1
:101080002DE9F047C66D05463768F46920073462DC
:101090001AD014F0080F0CBF00218021E20748BFCE
:1010A00041F02001A3074FF0200348BF41F0400169
:1010B000600748BF41F4807183F31188281DFFF752
:1010C000C7FF002383F31188E2050AD5202383F3A9
:1010D00011884FF40071281DFFF7BAFF002383F336
:1010E00011884FF020094FF0000A14F0200831D188
:1010F0003B0616D54FF0200905F1380A200610D519
:1011000089F31188504600F031FA00282FDA0821BF
:10111000281DFFF79DFF27F080033360002383F332
:10112000118879060DD562060BD5202383F311882B
:10113000EA6C2B6D9A4201D12B6CEBB9002383F33F
:101140001188E30620D5AA6E1369EBB15069BDE89A
:10115000F047184789F31188736A284695F8641098
:10116000194000F09DFA8AF31188F469BDE7B06276
:1011700088F31188F469C1E727F040071021281D82
:10118000FFF766FF3760D9E7BDE8F08708B5034889
:10119000FFF776FFBDE8084001F056BB4826022065
:1011A00008B50348FFF76CFFBDE8084001F04CBBF1
:1011B000B426022037B51F4C1F4D204600F056FACA
:1011C000009404F1140000234FF400721B4900F056
:1011D00017F94FF40072009404F13800184B1949C4
:1011E00000F090F9184B25660B21E3652620174C7B
:1011F00000F090F8204600F039FA04F11400009451
:1012000000234FF40072124900F0FAF804F138009C
:1012100000944FF400720F4B0F4900F073F90F4B1D
:101220000B215220E365256603B0BDE8304000F095
:1012300071B800BF4826022080F93703202702201A
:1012400061100008202B022000440040B426022038
:101250002029022071100008202D02200078004073
:10126000284B002908BF1946037C012B816630B545
:101270000CD1254B984235D1244B1A6C42F40032E4
:101280001A641A6E42F400321A661B6E0A68036E04
:10129000C46D03EB5203B3FBF2F34A68150442BF7B
:1012A00023F0070503F0070343EA4503E3608B6877
:1012B00043F040036360CB68510543F00103A36032
:1012C00042F4967343F0010323604FF0FF3323622F
:1012D00005D512F0102211D0B2F1805F10D080F845
:1012E000643030BD0A4B9842D0D1084B1A6C42F0A2
:1012F00080421A641A6E42F08042C5E77F23EEE70F
:101300003F23ECE7AC3C00084826022000380240AE
:10131000B426022000F1604300F01F0209014009D9
:1013200003F56143C9B2800083F80013012300F183
:101330006040934000F56140C0F880310360704721
:10134000F8B51546826804460B46AA4200D2856865
:10135000A1692669761AB54207D218462A46FFF7D0
:101360007DFDA3692B44A3610DE011D9AF1B32466B
:101370001846FFF773FD3A46E1683044FFF76EFD0B
:10138000E2683A44A261A36828465B1BA360F8BDEB
:1013900018462A46FFF762FDE368E4E78368934254
:1013A0002DE9F04104460F46154600D28568606974
:1013B0002669361AB54207D22A463946FFF74EFD4E
:1013C00063692B4463610EE013D9A5EB060832462E
:1013D0003946FFF743FD4246B919E068FFF73EFD85
:1013E000E26842446261A36828465B1BA360BDE8D3
:1013F000F0812A463946FFF731FDE368E2E7000055
:1014000010B50A440024C361029B00604060846000
:10141000C160816141610261036210BD08B58269EA
:101420004369934201D1826882B982680132826045
:101430005A1C42611970426903699A4201D3C36818
:101440004361002100F09CFE002008BD4FF0FF30FA
:1014500008BD000070B5202304460E4683F31188B2
:10146000A568A5B1A368A269013BA360531CA36151
:1014700015782269934224BFE368A361E3690BB145
:1014800020469847002383F31188284670BD3146D3
:10149000204600F065FE0028E2DA85F3118870BD71
:1014A0002DE9F74F05460F4690469A46D0F81C9016
:1014B000202686F311884FF0000B144664B12246B3
:1014C00039462846FFF73CFF034668B9514628468F
:1014D00000F046FE0028F1D0002383F31188A8EB2A
:1014E000040003B0BDE8F08FB9F1000F03D0019004
:1014F0002846C847019B8BF31188E41A1F4486F3E2
:101500001188DBE7C160816141611144C361009BC7
:10151000006040608260016103627047F8B5044674
:101520000E461746202383F31188A568A5B1A3684A
:10153000013BA36063695A1C62611E702369626982
:101540009A4224BFE3686361E3690BB12046984780
:10155000002080F31188F8BD3946204600F000FED7
:101560000028E2DA85F31188F8BD0000836942693A
:101570009A4210B501D182687AB9826801328260DC
:101580005A1C82611C7803699A4201D3C368836143
:10159000002100F0F5FD204610BD4FF0FF3010BDDA
:1015A0002DE9F74F05460F4690469A46D0F81C9015
:1015B000202686F311884FF0000B144664B12246B2
:1015C00039462846FFF7EAFE034668B951462846E1
:1015D00000F0C6FD0028F1D0002383F31188A8EBAA
:1015E000040003B0BDE8F08FB9F1000F03D0019003
:1015F0002846C847019B8BF31188E41A1F4486F3E1
:101600001188DBE7026843681143016003B11847A2
:10161000704700001430FFF743BF00004FF0FF3366
:101620001430FFF73DBF00003830FFF7B9BF0000AE
:101630004FF0FF333830FFF7B3BF00001430FFF72F
:1016400009BF00004FF0FF311430FFF703BF000067
:101650003830FFF763BF00004FF0FF323830FFF73C
:101660005DBF000000207047FFF7A4BD044B03607E
:10167000002343608360C36001230374704700BF8D
:10168000C43C000810B52023044683F31188FFF7FB
:10169000E7FD02232374002383F3118810BD0000AB
:1016A00038B5C36904460D461BB904210844FFF749
:1016B000A9FF294604F11400FFF7B0FE002806DA5E
:1016C000201D4FF48061BDE83840FFF79BBF38BD57
:1016D000026843681143016003B118477047000076
:1016E00013B5446BD4F894341A681178042915D1D1
:1016F000217C022912D11979012312898B401342CE
:101700000CD101A904F14C0001F0A6FED4F89444D8
:101710000246019B2179206800F0E0F902B010BD7B
:10172000143001F029BE00004FF0FF33143001F0F7
:1017300023BE00004C3001F0FBBE00004FF0FF3331
:101740004C3001F0F5BE0000143001F0F7BD000090
:101750004FF0FF31143001F0F1BD00004C3001F0CA
:10176000C7BE00004FF0FF324C3001F0C1BE000098
:10177000D0F8942438B5136805461978042901D0A7
:10178000012038BD017C0229FAD1127901205C893F
:1017900090400440F4D105F1140001F089FD0246A7
:1017A0000028EDD0D5F894544FF4807328686979F7
:1017B00000F082F9204638BD406BFFF7D9BF00002A
:1017C00000207047704700007FB5124B01250226AC
:1017D000044603600023057400F184024360294637
:1017E0008360C3600C4B0290143001934FF48073FC
:1017F000009601F039FD094B04F523722946019347
:1018000004F14C004FF480730294009601F000FE46
:1018100004B070BDEC3C0008B9170008E1160008E0
:101820000B68202282F311880A7903EB820210628E
:101830004A790D3243F822008A7912B103EB820310
:1018400018620223C0F894140374002383F31188F0
:101850007047000038B5037F044613B190F8543048
:10186000ABB90125201D0221FFF732FF04F114005E
:1018700025776FF0010100F08FFC84F8545004F1DB
:101880004C006FF00101BDE8384000F085BC38BD68
:1018900010B5012104460430FFF71AFF0023237717
:1018A00084F8543010BD000038B5044600251430CB
:1018B00001F0F2FC04F14C00257701F0C1FD201D80
:1018C00084F854500121FFF703FF2046BDE838405B
:1018D000FFF74EBF90F85C3003F06003202B19D166
:1018E00090F85D20212A0AD0222A4FF000030ED062
:1018F000202A0FD1084A02650722426504E0064B00
:101900000365072343650023836501207047036552
:101910004365F9E70020704728240220D0F894346A
:1019200037B51A680446117804291AD1017C0229B6
:1019300017D11979012312898B40134211D100F17B
:101940004C05284601F03CFE58B101A9284601F09B
:1019500083FDD4F894440246019B2179206800F06D
:10196000BDF803B030BD000000EB8103F7B51C6A81
:1019700005460E46F4B1202383F3118805EB860754
:10198000201D08214C34FFF7A3FEFB685B691B6830
:1019900013B1204601F06EFD01A9204601F05CFD67
:1019A000024648B1019B3146284600F097F80023D3
:1019B00083F3118803B0F0BDFB685A691268002AEE
:1019C000F5D01B8A013B1340F1D105F15C02EAE737
:1019D0000D3138B550F82140DCB1202383F3118854
:1019E000D4F894241368527903EB8203DB689B6973
:1019F0005D6845B104216018FFF76AFE294604F1CD
:101A0000140001F05FFC2046FFF7B2FE002383F3D1
:101A1000118838BD7047000001F00EB8012300F1B5
:101A2000240200F1380103700023436042F8043BB4
:101A30008A421361FAD103814381704738B5044665
:101A4000202383F3118800254160C560056145614D
:101A50008561C561056200F0FFFF0223237085F3F5
:101A6000118838BD70B500EB8103054650690E46FC
:101A70001446DA6018B110220021FFF717FAA069A6
:101A800018B110220021FFF711FA31462846BDE8AF
:101A9000704001F0ABB80000028902F0010202813F
:101AA000428902F0010242810022026142618261A8
:101AB000C261026201F02EB9F0B4012500EB81048D
:101AC00047898D40E4683D43A46945812360002334
:101AD000A2606360F0BC01F049B90000F0B40125D8
:101AE00000EB810407898D40E4683D43646905810A
:101AF00023600023A2606360F0BC01F0C3B9000062
:101B000070B50223002504460370A0F8645080F8E5
:101B1000665080F8675005814581C5600561456163
:101B20008561C561056280F84C5000F0FBFF636879
:101B30001B6823B129462046BDE87040184770BD98
:101B40000278436880F8682005221B6802700BB198
:101B50000421184770470000436890F868201B680C
:101B600002700BB1052118477047000090F84C3007
:101B700070B5044613B1002380F84C3004F15C02C8
:101B8000204601F0E9F863689B6863BB94F85C50F9
:101B900015F0600615D194F85D3005F07F0545EA33
:101BA000032540F202339D4200F00E815BD8022DE6
:101BB00000F0DC803FD8002D00F08780012D00F080
:101BC000CF800021204601F031FB0021204601F0AA
:101BD00023FB63681B6813B1062120469847062340
:101BE00084F84C3070BD204698470028CED094F839
:101BF000632094F8623043EA0223626D934238BF57
:101C0000636594F95C30656D002B4FF0200380F222
:101C1000FD80002D00F0EC80092284F84C2083F335
:101C200011880021636D226D2046FFF757FF0023C6
:101C300083F3118870BDB5F5817F00F0B180B5F5F3
:101C4000407F49D0B5F5807FBBD194F85E30012B41
:101C5000B7D1B4F8643023F00203A4F864302665E9
:101C60006665A665C3E740F201639D421ED8B5F5DF
:101C7000C06F3BD2B5F5A06FA3D1B4F85C30B3F51B
:101C8000A06F0ED194F85E30204684F8663000F0E4
:101C9000A1FF63681B6813B1012120469847032305
:101CA0002370002323656365A365A0E7B5F5106F76
:101CB00032D040F602439D4252D0B5F5006F80D13C
:101CC00004F167032365012324E004F16403A5659F
:101CD0002365022363658AE794F85E30012B7FF465
:101CE00070AFB4F8643043F00203B6E794F86120B3
:101CF0002046616894F860304D6843EA022394F806
:101D00005F1094F85E20A84700283FF45AAF43685C
:101D1000236503686365A4E72378042B10D120238F
:101D200083F311882046FFF7B7FE86F311886368B6
:101D3000032184F867601B6821700BB12046984727
:101D400094F85E30002BACD084F867300423237005
:101D500063681B68002BA4D0022120469847A0E7A7
:101D6000374B23650223636500239DE794F86010D9
:101D7000204611F0800F01F00F010ED000F0DEFFC1
:101D8000012806D002287FF41CAF2E4B6065236526
:101D900067E72D4B6565236563E700F0C1FFEFE75B
:101DA00094F85E30002B7FF40CAF94F8603013F0A1
:101DB0000F013FF476AF1A06204602D501F04AFA29
:101DC0006FE701F03DFA6CE794F85E30002B7FF48A
:101DD000F8AE94F8603013F00F013FF462AF1B06C9
:101DE000204602D501F022FA5BE701F015FA58E728
:101DF000142284F84C2083F311882B462A46294666
:101E00002046FFF759FE85F3118870BD5DB115229C
:101E100084F84C2083F311880021636D226D2046E5
:101E2000FFF74AFE03E70B2284F84C2083F3118866
:101E30002B462A4629462046FFF750FEE3E700BF1F
:101E40001C3D0008143D0008183D000838B590F806
:101E50004C300446152B29D8DFE803F03E2828280B
:101E600028283E28280B29392828282828282828E7
:101E70003E3E90F8631090F86220436D42EA0122E2
:101E80009A4214D9C268128AB3FBF2F502FB1535E7
:101E90006DB9202383F311882B462A462946FFF784
:101EA0001DFE85F311880A2384F84C3038BD1423B5
:101EB00084F84C30202383F31188002320461A46EF
:101EC0001946FFF7F9FD002383F3118838BD836DB0
:101ED00003B198470023E7E7002101F0A7F90021AB
:101EE000204601F099F963681B6813B1062120466A
:101EF00098470623D8E7000090F84C20152A38B5FB
:101F0000044622D80123934040F6416213421DD17A
:101F100013F480150FD19B0217D50B2380F84C309A
:101F2000202383F311882B462A462946FFF7D6FD46
:101F300085F3118838BDC3689B695B682BB9836DD5
:101F400003B19847002384F84C3038BD002101F0DC
:101F50006DF90021204601F05FF963681B6813B139
:101F60000621204698470623EDE70000024B002299
:101F70001B605B609A607047202F022000238268FC
:101F80000374054B1B6899689142FBD25A68036041
:101F90004260106058607047202F022008B520234F
:101FA00083F31188037C032B05D0042B0DD02BB9B0
:101FB00083F3118808BD436900221A604FF0FF3394
:101FC0004361FFF7DBFF0023F2E790E80C001A60A3
:101FD00002685360F2E70000002382680374054B37
:101FE0001B6899689142FBD85A6803604260106090
:101FF00058607047202F0220054B19690874186833
:10200000026853601A60186101230374FEF78CB9EB
:10201000202F02204B1C30B5054687B00A4C10D04B
:10202000236901A8094A00F0D3F82846FFF7E4FF26
:10203000049B13B101A800F007F92369586907B0A0
:1020400030BDFFF7D9FFF8E7202F02209D1F0008C1
:1020500038B50C4D044641612B6981689A689142FC
:1020600003D8BDE83840FFF789BF1846FFF786FF61
:1020700001232C61014623742046BDE83840FEF759
:1020800053B900BF202F0220044B1A681B699068C7
:102090009B68984294BF002001207047202F0220A7
:1020A00010B5084C236820691A6854602260012228
:1020B00023611A74FFF790FF01462069BDE81040C4
:1020C000FEF732B9202F0220826002220274002221
:1020D000427470478368A3F17C0243F80C2C0269B8
:1020E00043F83C2C426943F8382C074A43F81C2C2F
:1020F000C268A3F1180043F8102C022203F8082C40
:10210000002203F8072C70474103000810B5202374
:1021100083F31188FFF7DEFF00210446FFF798FFE5
:10212000002383F31188204610BD0000024B1B6979
:1021300058610F20FFF760BF202F0220202383F378
:102140001188FFF7F3BF000008B50146202383F391
:1021500011880820FFF75EFF002383F3118808BD74
:1021600049B1064B42681B6918605A6013604360AE
:102170000420FFF74FBF4FF0FF307047202F0220A1
:102180000368984206D01A68026050601846596188
:10219000FFF7F4BE7047000038B504460D462068CE
:1021A000844200D138BD036823605C604561FFF75D
:1021B000E5FEF4E7054B03F114025A619A614FF012
:1021C000FF32DA6100221A62704700BF202F02201E
:1021D000F8B503614FF08043C26002295C6A06468D
:1021E000184B38BF02211A461F4652F8145F954219
:1021F0000AD1586198611C620560456081600819C8
:10220000BDE8F84001F0FEB9186AAB68241A0C1951
:1022100002D3E41A2D6804E09C4202D2204401F06B
:10222000FFF9AB689C42F4D86B68356073601E6040
:102230004FF0FF336E60B460A968091BA960FB61B1
:10224000F8BD00BF202F022010B41B4C234653F8CA
:10225000141F814210D0416802680A600268516010
:102260009A424FF00001C16003D0936881680B442B
:1022700093605DF8044B70470A6800209A426261DF
:102280005360C86003D15DF8044B01F0C3B9936893
:1022900088680344206A93604FF08042526A121AA1
:1022A0009342E6D9991A5DF8044B012998BF931C13
:1022B000184401F0B5B900BF202F0220002070475C
:1022C000FEE70000704700004FF0FF30704700004D
:1022D000022906D0032906D00129064818BF00208C
:1022E000704705487047032A9ABF044800EBC200B4
:1022F00000207047EC3D0008A03D0008302402207B
:1023000070B59AB006460846144601AD294600F05D
:1023100095F82846FEF7C2FDC0B2431C5B0086E874
:10232000180023700323023404F8013C00231946EB
:10233000DAB20234904201D81AB070BDEA5C0133BF
:1023400004F8011C04F8022CF2E7000008B5202371
:1023500083F311880348FFF7E1FA002383F3118820
:1023600008BD00BF602F022010B50446052916D80D
:10237000DFE801F016150316161D202383F31188DC
:102380000E4A0121FFF76EFB20460D4A0221FFF79E
:1023900069FB0C48FFF788FA002383F3118810BD0E
:1023A000202383F311880748FFF754FAF4E720232A
:1023B00083F311880348FFF76BFAEDE7203D00082F
:1023C000443D0008602F022038B50C4D0C4C2A46C5
:1023D0000C4904F10800FFF793FF05F1CA0204F16C
:1023E00010000949FFF78CFF05F5CA7204F11800C7
:1023F0000649BDE83840FFF783BF00BF28340220FC
:1024000030240220703D00087A3D0008853D000818
:1024100070B5044608460D46FEF740FDC6B220469C
:10242000013403780BB9184670BD32462946FEF7D1
:102430001FFD0028F3D1012070BD00002DE9F84FE9
:1024400005460C46FEF72AFD2A49C6B22846FFF784
:10245000DFFF08B1013EF6B227492846FFF7D8FF53
:1024600008B11036F6B2632E0DD8DFF88890DFF889
:1024700088A0224FDFF88CB0DFF88C802E7846B928
:102480002670BDE8F88F29462046BDE8F84F01F0D8
:10249000E1BB252E2AD1072249462846FEF7E8FC53
:1024A00050B9D8F800300735063444F8063CB8F87F
:1024B000043024F8023CE1E7082251462846FEF7A2
:1024C000D7FC98B9A21C0E4B13F8011F0232090960
:1024D0005B45C95D02F8041C197801F00F01C95D64
:1024E00002F8031CF0D118340835C7E7267001350F
:1024F0000134C3E70C3E0008853D00081B3E000880
:102500001FF4F01F2BF4F01F143E0008BFF34F8F91
:10251000024AD368DB03FCD4704700BF003C024092
:1025200008B5074B1B7853B9FFF7F0FF054B1A6945
:10253000002A04DA044A5A6002F188325A6008BD5F
:1025400086360220003C02402301674508B5054B52
:102550001B7833B9FFF7DAFF034A136943F00043EE
:10256000136108BD86360220003C02400B2870B57E
:1025700013D80B4A0B4C137863B94FF000610A4E25
:1025800044F8231056F8235001330C2B2944F7D17B
:102590000123137054F8200070BD002070BD00BFEF
:1025A000B8360220883602202C3E0008014B53F832
:1025B000200070472C3E00080C2070470B2810B5F7
:1025C000044601D9002010BDFFF7D0FF064B53F899
:1025D00024301844C21A0BB9012010BD1268013210
:1025E000F0D1043BF6E700BF2C3E00080B2810B5E5
:1025F000044621D8FFF78AFFFFF792FF0F4AF32323
:10260000D360C300DBB243F4007343F002031361F1
:10261000136943F480331361FFF778FFFFF7A6FFD8
:10262000074B53F8241000F0DBF8FFF78FFF20462C
:10263000BDE81040FFF7C2BF002010BD003C0240C3
:102640002C3E00082DE9F84312F0010315463FD156
:102650008218B2F1026F3BD22B4B1B6813F00103BF
:1026600036D0FFF75DFF294CF32340F20127E360EA
:10267000FFF74CFF032D01D9830712D00F46401AF4
:10268000224C40F20118EB1BC6190B44012B2369A5
:1026900024D823F001032361FFF758FF0120BDE890
:1026A000F883236923F44073236123693B43236147
:1026B00051F8046B0660BFF34F8FFFF727FF0368E5
:1026C0009E4208D0236923F001032361FFF73EFFF8
:1026D0000020BDE8F883043D0430CBE723F44073C9
:1026E000B9462361236943EA0803236137F8023BB3
:1026F0003380BFF34F8FFFF709FF3688B6B2B9F8C2
:102700000030B342BFD0DDE700380240003C024059
:10271000084908B50B7828B153B9FFF701FF012329
:102720000B7008BD23B10870BDE80840FFF70EBF6D
:1027300008BD00BF8636022002440439064BD2B2DF
:1027400010B5904200D110BD441C00B253F82000D7
:1027500041F8040FE0B2F4E750280040104B30B5C8
:102760001C6F240407D41C6F44F400741C671C6F96
:1027700044F400441C670B4C024404392368D2B271
:1027800043F480732360084B904200D130BD441C59
:1027900051F8045F00B243F82050E0B2F4E700BF04
:1027A00000380240007000405028004007B5012268
:1027B00001A90020FFF7C0FF019803B05DF804FBFA
:1027C00013B50446FFF7F2FFA04206D002A901228A
:1027D000002041F8044DFFF7C1FF02B010BD00001A
:1027E0000144BFF34F8F064B884204D3BFF34F8F92
:1027F000BFF36F8F7047C3F85C022030F4E700BF6F
:1028000000ED00E0034B1B689B0042BF0122024B1E
:102810001A70704774380240B9360220014B18789C
:10282000704700BFB9360220064A536823F00103FF
:102830005360EFF30983683383F30988002383F33C
:102840001188704730EF00E010B5202383F3118822
:10285000104B5B6813F4006318D0F1EE103AEFF3FD
:1028600009844FF0807344F84C3C0B4BDB6844F810
:10287000083CA4F1680383F30988FFF705FC18B14D
:10288000064B44F8503C10BD054BFAE783F3118822
:1028900010BD00BF00ED00E030EF00E05103000884
:1028A00054030008F0B5BFF34F8FBFF36F8F1D4B7C
:1028B0000021C3F85012BFF34F8FBFF36F8F5A69D7
:1028C00042F400325A61BFF34F8FBFF36F8FC3F8EA
:1028D0008410BFF34F8FD3F8802043F6E076C2F325
:1028E000C904C2F34E32A507520102EA060E284679
:1028F00021464EEA0007013900F14040C3F86072FA
:102900004F1CF6D1203A12F1200FEED1BFF34F8FBA
:102910005A6942F480325A61BFF34F8FBFF36F8F11
:10292000F0BD00BF00ED00E0FEE70000084A094BE3
:1029300009498B4204D3094A0021934205D37047C9
:1029400052F8040F43F8040BF3E743F8041BF4E7D1
:102950003440000848390220483902204839022012
:10296000036F002230B51146C46E9D684FF0FF30F2
:1029700004EB421301329542C3F80019C3F8101951
:10298000C3F80809C3F8001BC3F8101BC3F8080BF1
:10299000EED24FF00113C4F81C3830BD890141F06C
:1029A0002001016103699B06FCD4122000F0C4BE23
:1029B000204B03EB80022DE9F047D2F80CE0461CD7
:1029C000DD6EDEF8142005EB0636D2F800C005EB0C
:1029D0004018516861450BD30123D5F8342803FA18
:1029E00000F022EA0000C5F834081846BDE8F08778
:1029F000ACEB0103BEF81040A34228BF2346D8F831
:102A00001849A4B2B3EB840F10D894681F46A4F100
:102A1000040959F804AF042FC6F800A001D9043FF7
:102A2000F7E71C440B4494605360D2E70020BDE8F4
:102A3000F08700BFBC36022010B5054C2046FEF7DB
:102A4000EDFF4FF0A043E366024B236710BD00BFCC
:102A5000BC360220803E00080378012B70B5054685
:102A600050D12A4BC46E98421BD1294B0E214320D2
:102A70005A6B42F080025A635A6D42F080025A65E6
:102A80005A6D5A6942F080025A615A6922F08002F6
:102A90005A615B69FEF73EFC1E4BE3601E4BC4F8B7
:102AA00000380023EE6EC4F8003EC02323604FF4CC
:102AB0000413A3633369002BFCDA01230C20336178
:102AC00000F03AFE3369DB07FCD4122000F034FE3C
:102AD0003369002BFCDA00262846A660FFF740FF8A
:102AE0006B68C4F81068DB68C4F81468C4F81C6824
:102AF0004BB90A4BA3614FF0FF336361A36843F006
:102B00000103A36070BD064BF4E700BFBC36022092
:102B1000003802404014004003002002003C30C056
:102B2000083C30C0F8B5C46E054600214FF0006681
:102B30002046FFF733FF296F00234FF001128F6803
:102B40004FF0FF30C4F83438C4F81C2804EB4312AB
:102B500001339F42C2F80069C2F8006BC2F808094D
:102B6000C2F8080BF2D20B68EA6E6B67636210233F
:102B70001361166916F01006FBD1122000F0DCFD7F
:102B8000D4F8003823F4FE63C4F80038A36943F492
:102B9000402343F01003A3610923C4F81038C4F89C
:102BA00014380A4BEB604FF0C043C4F8103B084B9D
:102BB000C4F8003BC4F81069C4F800396B6F03F126
:102BC000100243F480136A67A362F8BD5C3E0008FC
:102BD00040800010C26E90F86610D2F8003823F4DE
:102BE000FE6343EA0113C2F8003870472DE9F04153
:102BF0000EB20D4600EB8608D8F80C100F6807F0EF
:102C00000303022B50D0032B50D03D4A3D4F012BE4
:102C100018BF1746C46E4FEA451E002205F1100C7E
:102C200004EB0E03C3F8102B8A69002A40D04A8AAD
:102C300005F158033A435B01E2500123D4F81C2804
:102C400003FA0CF31343C4F81C38A64400234A6962
:102C5000CEF8103905F13F03002A39D00A8A04EB77
:102C60008303898B9208012988BF4A43416F561814
:102C700041EA02422946466720465A60FFF78EFE27
:102C8000D8F80C301B8A43EA85531F4305F14803EB
:102C90005B01E7500123D4F81C2803FA05F515431E
:102CA000C4F81C58BDE8F081174FB3E7174FB1E7E0
:102CB00004EB4613D3F8002B22F40042C3F8002B98
:102CC0000123D4F81C2803FA0CF322EA0303BAE721
:102CD00004EB83030E4A04EB461629465A6020464D
:102CE000FFF75CFED6F80039012223F4004302FA14
:102CF00005F5C6F80039D4F81C3823EA0505CFE7F6
:102D000000800010008004100080081000800C106B
:102D100000040002026F12684267FFF721BE000044
:102D20005831C36E49015B5813F4004004D013F4CA
:102D3000001F14BF01200220704700004831C36EFD
:102D400049015B5813F4004004D013F4001F14BF72
:102D5000012002207047000000EB8101CB68196A56
:102D60000B6813604B6853607047000000EB8103F1
:102D700030B5DD68AA691368D36019B9402B84BFE8
:102D8000402313606B8A1468C26E1C4402EB41102E
:102D9000013C09B2B4FBF3F46343033323F00303B0
:102DA00043EAC44343F0C043C0F8103B2B6803F030
:102DB0000303012B0ED1D2F8083802EB411013F4B3
:102DC000807FD0F8003B14BF43F0805343F00053A2
:102DD000C0F8003B02EB4112D2F8003B43F0044341
:102DE000C2F8003B30BD00002DE9F041244D0446FF
:102DF000EE6E06EB4013D3F8087B3807C3F8087B68
:102E00000AD5D6F81438190706D505EB84032146F0
:102E10002846DB685B689847FA072FD5D6F8143840
:102E2000DB072BD505EB8403D968CCB98B69488ABD
:102E30005E68B6FBF0F200FB12628AB91868DA68C5
:102E400090420DD2121A83E81400202383F31188D4
:102E50000B482146FFF78AFF84F31188BDE8F08113
:102E6000012303FA04F26B8923EA02036B81CB6826
:102E700023B121460248BDE8F0411847BDE8F08182
:102E8000BC36022000EB81034A0170B5DD68C36ED9
:102E90006C692668E66056BB1A444FF40020C2F8FD
:102EA00010092A6802F00302012A0AB20ED1D3F8EF
:102EB000080803EB421410F4807FD4F8000914BF13
:102EC00040F0805040F00050C4F8000903EB42127B
:102ED000D2F8000940F00440C2F800090122D3F8FA
:102EE000340802FA01F10143C3F8341870BD19B96E
:102EF000402E84BF4020206020681A442E8A841906
:102F000040F00050013CB4FBF6F440EAC440C6E790
:102F1000F8B504461E48C56E05EB4413D3F808699E
:102F2000F107C3F8086917D5D5F81038DA0713D5B3
:102F300000EB8403D9684B691F68DA68974218D29E
:102F4000D21B00271A605F60202383F3118821467B
:102F5000FFF798FF87F31188330617D50123D5F8BB
:102F60003428A340134211D02046BDE8F840FFF7B3
:102F70001FBD012303FA04F2038923EA020303813C
:102F80008B68002BE8D021469847E5E7F8BD00BFE5
:102F9000BC3602209F482DE9F84FC56E04466E6985
:102FA000AB691E4016F4805F6E6105D0FEF7A8FD88
:102FB000BDE8F84FFFF748BC002E12DAD5F8003E06
:102FC0009B0705D0D5F8003E23F00303C5F8003E6B
:102FD000D5F804388F4823F00103C5F80438FEF70C
:102FE000BBFD370502D58B48FEF7AAFDB0040CD512
:102FF000D5F8083813F0060FEB6823F470530CBFB4
:1030000043F4105343F4A053EB60310704D56368D5
:10301000DB680BB17F489847F2026FD4B3020CD53E
:10302000D4F86C8000274FF00109DFF8E8A1236F86
:10303000F9B29B688B4280F09C80F70619D5E16E4F
:103040000A6AC2F30A1702F00F0302F4F012B2F593
:10305000802F00F0B580B2F5402F0AD104EB830336
:1030600001F58051DB68186A00231A469F4240F040
:103070009C803303D5F818481DD5E70302D50020FE
:10308000FFF7B2FEA50302D50120FFF7ADFE6003F6
:1030900002D50220FFF7A8FE210302D50320FFF787
:1030A000A3FEE20202D50420FFF79EFEA30202D592
:1030B0000520FFF799FE77037FF57AAFE60702D583
:1030C0000020FFF725FFA50702D50120FFF720FF0D
:1030D000600702D50220FFF71BFF210702D503205E
:1030E000FFF716FFE20602D50420FFF711FFA30643
:1030F0007FF55EAF0520FFF70BFF59E7D4F86C8032
:1031000000274FF00109DFF80CA1236F5FFA87FB5E
:103110009B685B4582D308EB4B13D3F8002902F47C
:103120004022B2F5802F22D1D3F80029002A1EDADE
:10313000D3F8002942F09042C3F80029D3F80029BF
:10314000002AFBDB5946E06EFFF728FC228909FACA
:103150000BF322EA0303238104EB8B03DB689B68F8
:1031600013B15946504698475846FFF721FC01379E
:10317000CBE708EB4112D2F8003B03F44023B3F550
:10318000802F10D1D2F8003B002B0CDA628909FAAB
:1031900001F322EA0303638104EB8103DB68DB684C
:1031A0000BB150469847013741E79C0700D10A68A8
:1031B000072B03F101039EBF0270120A013055E78D
:1031C000023301F5805104EB830252689069026872
:1031D000D0F808C04068A2EB000E002210469742CB
:1031E0000AD104EB830463689B699A683A449A6045
:1031F0005A6817445F603CE712F0030F00D108687B
:10320000964502F1010282BF8CF80000000A0CF121
:10321000010CE4E7BC360220C36E03EB4111D1F888
:10322000003B43F40013C1F8003B7047C36E03EB4F
:103230004111D1F8003943F40013C1F80039704747
:10324000C36E03EB4111D1F8003B23F40013C1F826
:10325000003B7047C36E03EB4111D1F8003923F4F2
:103260000013C1F80039704730B50433039C017274
:10327000002104FB0325C361049B00600363059BDD
:103280004060C160426102618561046242628162A4
:10329000C162436330BD00000022416AC2604161E7
:1032A00001616FF001018262C262FEF775BF00002A
:1032B00003694269934203D1C2680AB10020704792
:1032C000181D7047036919600021C2680132C2608D
:1032D000C269134482699342036124BF436A036154
:1032E000FEF74EBF38B504460D46E3683BB1626950
:1032F0000020131D1268A3621344E36238BD237AD1
:1033000033B929462046FEF72BFF0028EDDA38BDF9
:103310006FF00100FBE70000C368C269013BC360B6
:103320004369134482699342436124BF436A436102
:1033300000238362036B03B11847704770B52023E5
:10334000044683F31188866A3EB9FFF7CBFF054632
:1033500018B186F31188284670BDA36AE26A13F893
:10336000015B9342A36202D32046FFF7D5FF0023FF
:1033700083F31188EFE700002DE9F84F04460E466D
:1033800090469946202787F311880025AA46D4F84D
:1033900028B0BBF1000F09D149462046FFF7A2FF34
:1033A00020B18BF311882846BDE8F88FA16AA8EBFD
:1033B000050BE36A5B1A9B4528BF9B46BBF1400F98
:1033C0001BD9334601F1400251F8040B914243F8F6
:1033D000040BF9D1A36A403640354033A362A26A98
:1033E000E36A9A4202D32046FFF796FF8AF31188D8
:1033F0004545D8D287F31188C9E730465A46FDF7CC
:103400002DFDA36A5E445D445B44A362E7E70000D0
:1034100010B5029C04330172C36103FB0421002335
:1034200000608362C362039B40600363049BC460CB
:1034300042610261816104624262436310BD000027
:10344000026A6FF00101C260426A426102610022B9
:103450008262C262FEF7A0BE436902699A4203D14A
:10346000C2680AB100207047184650F8043B0B6050
:1034700070470000C3680021C2690133C36043691B
:10348000134482699342436124BF436A4361FEF758
:1034900077BE000038B504460D46E3683BB12369AA
:1034A00000201A1DA262E2691344E36238BD237A48
:1034B00033B929462046FEF753FE0028EDDA38BD21
:1034C0006FF00100FBE7000003691960C268013A70
:1034D000C260C269134482699342036124BF436A94
:1034E000036100238362036B03B118477047000038
:1034F00070B5202304460E4683F31188856A35B9DA
:103500001146FFF7C7FF10B185F3118870BDA36A9C
:103510001E70A36AE26A01339342A36204D3E16995
:1035200020460439FFF7D0FF002080F3118870BDDA
:103530002DE9F84F04460D4691469A464FF0200873
:1035400088F311880026B346A76A4FB95146204632
:10355000FFF7A0FF20B187F311883046BDE8F88F50
:10356000A06AA9EB0603E76A3F1A9F4228BF1F46DD
:10357000402F1BD905F1400355F8042B9D4240F81C
:10358000042BF9D1A36A40364033A362A26AE36AEE
:103590009A4204D3E16920460439FFF795FF8BF383
:1035A00011884E45D9D288F31188CDE729463A468D
:1035B000FDF754FCA36A3D443E443B44A362E5E767
:1035C000026943699A4203D1C3681BB91846704720
:1035D0000023FBE7836A002BF8D0043B9B1AF5D04D
:1035E0001360C368013BC360C3691A4483699A428C
:1035F000026124BF436A0361002383620123E5E77C
:1036000000F040B94FF08043002258631A61022253
:10361000DA60704700224FF08043DA6070470000A4
:103620004FF0804358637047FEE7000010B5194C17
:10363000FEF79CFCFEF7BEFD802217492046FEF7F0
:1036400043FD012344F8180C0374144B144AD96841
:1036500021F4E0610904090C0A431249DA60CA68DE
:1036600042F08072CA60104A1049C2F8B01F116857
:1036700041F0010111601022DA77202283F8222024
:10368000002383F3118862B60948BDE81040FEF7B5
:103690003DBD00BF482F02208C3E000800ED00E039
:1036A0000003FA05F0ED00E0001000E055CEACC5D7
:1036B000943E00082DE9F84F1E4C4FF00008656954
:1036C00004F11407C1464FF08043266AAA685B6A7A
:1036D0009E1B96421CD34FF0200AAA68236AD5F895
:1036E0000CB0B61A134423622B68BB425F6063615F
:1036F000C5F80C8001D1FFF78DFF89F31188286987
:10370000D8478AF311886569AB689E42E5D2DAE74B
:103710006269BA420CD0916823628E1B9660A868D9
:1037200002282CBF1818981CBDE8F84FFFF778BF87
:10373000BDE8F88F202F0220034B59685A68521AAF
:103740009042FBD8704700BF001000E04B68436018
:103750008B688360CB68C3600B6943614B6903620C
:103760008B6943620B6803607047000008B5274B04
:1037700040F2FF7126481A690A431A611A6922F455
:10378000FF6222F007021A611A691A6B0A431A6370
:103790001A6D0A431A651F4A1B6D1146FFF7D6FFC3
:1037A0001D4802F11C01FFF7D1FF1C4802F138014E
:1037B000FFF7CCFF1A4802F15401FFF7C7FF194881
:1037C00002F17001FFF7C2FF174802F18C01FFF709
:1037D000BDFF164802F1A801FFF7B8FF144802F137
:1037E000C401FFF7B3FF134802F1E001FFF7AEFF9A
:1037F000114802F1FC01FFF7A9FF104802F58C7196
:10380000FFF7A4FFBDE8084000F09EB80038024072
:1038100000000240B43E00080004024000080240DC
:10382000000C024000100240001402400018024048
:10383000001C0240002002400024024000280240F8
:1038400008B500F0F5F9FFF7F1FEFEF7DBFFBDE884
:103850000840FEF7B9BD0000704700004FF08043FC
:103860001A69920710B508D500241C61202383F340
:103870001188FFF71FFF84F31188BDE81040FEF7A1
:10388000E3BF0000104B08211C201A6C42F001021B
:103890001A641A6E42F001021A660C4A1B6E936893
:1038A00043F0010393604FF080436B229A624FF024
:1038B000FF32DA6200229A615A63DA605A600122AA
:1038C0005A611A60FDF726BD00380240002004E06E
:1038D0001B4B4FF0FF3000211A696FEA42526FEA2A
:1038E00052521A611A69C2F30A021A611A695A69B4
:1038F00058615A6959615A691A6A62F080521A62AB
:103900001A6A02F080521A621A6A5A6A58625A6A2D
:1039100059625A6A0B4A106840F480701060186F40
:1039200000F44070B0F5007F03D04FF4803018678A
:103930001967536823F40073536000F059B900BF4E
:103940000038024000700040354B4FF44041354A8A
:103950001A64354A11601A6842F001021A601A6846
:103960009207FCD59A6822F003029A602C4B194604
:103970009A6812F00C02FBD1186800F0F900186088
:103980009A601A6842F480321A600B689B03FCD577
:103990004B6F43F001034B67214B5A6F9007FCD5E7
:1039A000224A5A601A6842F080721A601E4B1A4608
:1039B00059684904FCD5196841F48031196053688D
:1039C000D803FCD5136843F400331360164A5368D8
:1039D0009903FCD5124B1A689201FCD5144A40F2A7
:1039E00007319A6040F20112C3F88C200022C3F81C
:1039F0009020104A11609A6842F002029A60084BC7
:103A00009A6802F00C02082AFAD15A6C42F48042F9
:103A10005A645A6E42F480425A665B6E704700BF29
:103A200000380240000400100070004008364009D1
:103A300000948838003C0240084A08B55369116870
:103A40000B4003F00103536123B1054A13680BB126
:103A500050689847BDE80840FEF7F6BE003C0140BC
:103A6000C8250220084A08B5536911680B4003F0C5
:103A70000203536123B1054A93680BB1D06898479C
:103A8000BDE80840FEF7E0BE003C0140C82502202A
:103A9000084A08B5536911680B4003F004035361E9
:103AA00023B1054A13690BB150699847BDE8084036
:103AB000FEF7CABE003C0140C8250220084A08B5EE
:103AC000536911680B4003F00803536123B1054AA1
:103AD00093690BB1D0699847BDE80840FEF7B4BEC2
:103AE000003C0140C8250220084A08B55369116806
:103AF0000B4003F01003536123B1054A136A0BB165
:103B0000506A9847BDE80840FEF79EBE003C014061
:103B1000C8250220174B10B55C691A68144004F4DC
:103B200078725A61A30604D5134A936A0BB1D06A1E
:103B30009847600604D5104A136B0BB1506B984739
:103B4000210604D50C4A936B0BB1D06B9847E20564
:103B500004D5094A136C0BB1506C9847A30504D5E2
:103B6000054A936C0BB1D06C9847BDE81040FEF746
:103B70006BBE00BF003C0140C82502201A4B10B5A7
:103B80005C691A68144004F47C425A61620504D5E9
:103B9000164A136D0BB1506D9847230504D5134A8F
:103BA000936D0BB1D06D9847E00404D50F4A136EA6
:103BB0000BB1506E9847A10404D50C4A936E0BB11B
:103BC000D06E9847620404D5084A136F0BB1506F4A
:103BD0009847230404D5054A936F0BB1D06F9847DB
:103BE000BDE81040FEF730BE003C0140C825022071
:103BF000062108B50846FDF78DFB06210720FDF7D5
:103C000089FB06210820FDF785FB06210920FDF729
:103C100081FB06210A20FDF77DFB06211720FDF719
:103C200079FB06212820BDE80840FDF773BB0000A2
:103C300008B5FFF74DFEFDF7FFF9FDF715FDFDF7A0
:103C4000EBFEFDF7BFFDFFF707FEBDE80840FFF7FD
:103C5000D7BC0000034611F8012B03F8012B002A02
:103C6000F9D1704712101213121100000010410018
:103C700001105A00602F022048260220B42602209C
:103C800053544D3332463F3F3F3F3F3F0053544D27
:103C9000333246375B347C355D780053544D3332D4
:103CA00046375B367C375D780000000000960000E8
:103CB0000000000000000000000000000000000004
:103CC0000000000000000000311600081D1600086A
:103CD0005916000845160008511600083D16000840
:103CE00029160008151600086516000800000000D7
:103CF0003D1700082917000865170008511700082C
:103D00005D1700084917000835170008211700083B
:103D1000C1170008000000000100000000000000C2
:103D2000020000000000000069190008D119000815
:103D300040004000F8330220083402200200000056
:103D4000000000000300000000000000151A000839
:103D500000000000100000001834022000000000E5
:103D60000100000000000000BC360220010102003A
:103D70004172647550696C6F740025424F41524422
:103D8000252D424C002553455249414C2500000049
:103D900069230008D1220008D51800084D23000827
:103DA00043000000A83D000809024300020100C0D2
:103DB000320904000001020201000524001001057F
:103DC00024010001042402020524060001070582E3
:103DD000030800FF09040100020A000000070501B2
:103DE00002400000070581024000000012000000B0
:103DF000F43D000812011001020000400912415771
:103E000000020102030100000403090425424F419E
:103E10005244250043554156763500303132333413
:103E2000353637383941424344454600008000006A
:103E30000080000000800000008000000000020000
:103E40000000040000000400000004000000040062
:103E50000000040000000400000004000000000056
:103E60006D1B00084D1E0008F91E000840004000B0
:103E7000343702203437022001000000443702208A
:103E80008000000040010000050000006D61696EC7
:103E900000000000AC3E00085037022048390220E4
:103EA00001000000293600080000000069646C650C
:103EB000000000000000802A00000000AAAAAAAAB0
:103EC00000000000FFFF00000000000000A00A004A
:103ED0000000000000000000AAAAAAAA000000003A
:103EE000FFFF000000000000000000000050000084
:103EF00000000000AAAAAAAA00000000FFFF00001C
:103F00000000000000000000802900000000000008
:103F1000AAAAAAAA40150000FFFF000000707007BF
:103F2000000000000000020000000000AAAAAAAAE7
:103F300000000100FFFF000000000000080000007A
:103F400050255000000000000AA2AAAA50155000F7
:103F5000FFFF00000000000800000000000010004B
:103F600000000000AAAAAAAA00001000FFFF00009B
:103F7000000000000000000000040000000000003D
:103F8000AAAAAAAA00040000FFFF00000000000087
:103F9000000000000051510000000000AAAAAAAAD7
:103FA00000515100FFFF0000000000000000000071
:103FB0000000000000000000000000000000000001
:103FC00000000000000000000000000000000000F1
:103FD00000000000000000000000000000000000E1
:103FE0000000000000000000FF00000000000000D2
:103FF000803C00083F000000490400008D3C0008A0
:104000003F000000510400009B3C00083F000000FE
:10401000009600000000080004000000083E0008B0
:104020000000000000000000000000000000000090
:104030000000000000000000FFFFFFFFFFFFFFFF88
:10404000FFFFFFFFFFFFFFFFFFFFFFFFFFFFFFFF80
:10405000FFFFFFFFFFFFFFFFFFFFFFFFFFFFFFFF70
:10406000FFFFFFFFFFFFFFFFFFFFFFFFFFFFFFFF60
:10407000FFFFFFFFFFFFFFFFFFFFFFFFFFFFFFFF50
:10800000000402201989000855F2080859F20808EE
:10801000C1F2080859F208088DF208081B89000807
:108020001B8900081B8900081B890008D1B11008B2
:108030001B8900081B8900081B8900081B89000890
:108040001B8900081B8900081B8900081B89000880
:108050001B8900081B890008111B1108411B11080E
:10806000711B1108A11B1108D11B11084DB9100873
:1080700079B91008A9B91008D9B9100809BA1008B7
:1080800035BA100865BA1008D1B71008CDEC080849
:10809000FDEC080831ED08081B890008011C1108D7
:1080A0001B8900081B8900081B8900081B89000820
:1080B000352311081B8900081B890008B1C210086C
:1080C000E5C2100819C310084DC310081B89000829
:1080D0001B89000839D8100851D8100869D8100831
:1080E0006D1C11081B8900081B8900081B890008EA
:1080F0001B8900081B8900081B89000895BA100815
:108100001B89000865C910081B8900081B89000825
:1081100081D810081B8900081B8900081B890008EA
:10812000C5BA1008F1BA100821BB100851BB1008DD
:1081300081BB10081B8900081B89000865ED080831
:1081400095ED0808C9ED08081B890008C516110837
:10815000ADBB1008DDBB10080DBC100899D8100885
:1081600081C31008B5C310081B8900081B890008CB
:108170001B8900081B8900081B8900081B8900084F
:108180001B8900081B890008B1D81008C9D810083D
:108190001B8900081B8900081B8900081B8900082F
:1081A0001B8900081B8900081B8900081B8900081F
:1081B0001B8900081B8900081B890008E9C31008F7
:1081C0001DC410081B8900081B8900081B890008B2
:1081D0001B8900081B8900081B8900081B890008EF
:1081E0001B8900081B8900081B8900081B890008DF
:1081F0001B8900081B8900081B8900081B890008CF
:10820000D9B4000839E80008258001088D37020834
:10821000CD4A02081D5502083D590208395D020881
:10822000955D020811660208DDBA02084DDC0208FD
:10823000913E030869F803086D710408B9730408D6
:108240006D9E0408EDA1040805AF0408594F050808
:1082500035570508BD5A0508F1DE0508510906081D
:10826000F5FE0608514F0708318508086DD9080842
:1082700041DD0808C9DE0808FDED080895F008088A
:108280000DF7080815540A08695E0A0815800A08DF
:10829000B5900A08FDAA0A0835AB0A08ADD90A0844
:1082A00009100B0899300B083D5C0B0875180E0877
:1082B00045210E08415D0E0889930E0845070F08F9
:1082C00049100F0879360F08C1420F086D610F0879
:1082D00080F0004002E000BF81F0004142001FBF7B
:1082E0005FEA410392EA030F7FEA226C7FEA236C84
:1082F0006AD04FEA1262D2EB1363C1BFD218414079
:1083000048404140B8BF5B42192B88BF704710F00E
:10831000004F40F4000020F07F4018BF404211F0B1
:10832000004F41F4000121F07F4118BF494292EA19
:10833000030F3FD0A2F1010241FA03FC10EB0C0045
:10834000C3F1200301FA03F100F0004302D54942D2
:1083500060EB4000B0F5000F13D3B0F1807F06D37F
:1083600040084FEA310102F10102FE2A51D2B1F177
:10837000004F40EBC25008BF20F0010040EA03006C
:108380007047490040EB0000013A28BFB0F5000FEC
:10839000EDD2B0FA80FCACF1080CB2EB0C0200FAA2
:1083A0000CF0AABF00EBC25052421843BCBFD040F1
:1083B0001843704792F0000F81F4000106BF80F46B
:1083C00000000132013BB5E74FEA41037FEA226C2E
:1083D00018BF7FEA236C21D092EA030F04D092F0F9
:1083E000000F08BF0846704790EA010F1CBF00202D
:1083F000704712F07F4F04D1400028BF40F000408A
:10840000704712F100723CBF00F50000704700F0A9
:10841000004343F0FE4040F4000070477FEA2262D0
:1084200016BF08467FEA23630146420206BF5FEAA1
:10843000412390EA010F40F4800070474FF00003A1
:1084400004E000BF10F0004348BF40425FEA000C68
:1084500008BF704743F0964301464FF000001CE010
:1084600050EA010208BF70474FF000030AE000BF66
:1084700050EA010208BF704711F0004302D54042A4
:1084800061EB41015FEA010C02BF84460146002016
:1084900043F0B64308BFA3F18053A3F50003BCFA31
:1084A0008CF2083AA3EBC25310DB01FA02FC6344DE
:1084B00000FA02FCC2F12002BCF1004F20FA02F2E5
:1084C00043EB020008BF20F00100704702F12002D8
:1084D00001FA02FCC2F1200250EA4C0021FA02F239
:1084E00043EB020008BF20EADC7070477BB972B929
:1084F0000029BEBF00204FF0004106E008BF002861
:108500001CBF6FF000414FF0FF3000F003BAADF137
:10851000080C6DE904CE002909DB002B1ADB00F002
:1085200091F8DDF804E0DDE9022304B07047404231
:1085300061EB4101002B1BDB00F084F8DDF804E067
:10854000DDE9022304B0404261EB4101524263EB9A
:1085500043037047524263EB430300F073F8DDF8C6
:1085600004E0DDE9022304B0404261EB41017047C1
:10857000524263EB430300F065F8DDF804E0DDE907
:10858000022304B0524263EB4303704753B94AB924
:10859000002908BF00281CBF4FF0FF314FF0FF300B
:1085A00000F0B8B9ADF1080C6DE904CE00F04AF85E
:1085B000DDF804E0DDE9022304B07047430803F06E
:1085C0005533C01A830803F0333300F033301844B6
:1085D00000EB101000F00F3000EB002000EB00402B
:1085E000000E704780EA104080EA102080EA1010E8
:1085F00046F6961300F00F0043FA00F000F0010079
:10860000704700BF9FED0B6B07EE900A9FED0B5B71
:10861000B7EEE77A27EE066BBCEEC66BB8EE464BBC
:10862000A4EE457BFCEEC77B16EE101A17EE900AFF
:10863000704700BF000000000000F03D0000000097
:108640000000F0412DE9F047089D04468E46002BBE
:108650004DD18A42944669D9B2FA82F252B101FAF6
:1086600002F3C2F1200120FA01F10CFA02FC41EA06
:10867000030E94404FEA1C48210CBEFBF8F61FFA8B
:108680008CF708FB16E341EA034306FB07F1994226
:108690000AD91CEB030306F1FF3080F01F819942D9
:1086A00040F21C81023E63445B1AA4B2B3FBF8F0B3
:1086B00008FB103344EA034400FB07F7A7420AD93A
:1086C0001CEB040400F1FF3380F00A81A74240F262
:1086D00007816444023840EA0640E41B00261DB1CD
:1086E000D4400023C5E900433146BDE8F0878B4202
:1086F00009D9002D00F0EF800026C5E900013046C1
:108700003146BDE8F087B3FA83F6002E4AD18B429A
:1087100002D3824200F2F980841A61EB0303012044
:108720009E46002DE0D0C5E9004EDDE702B9FFDE30
:10873000B2FA82F2002A40F09280A1EB0C014FEADB
:108740001C471FFA8CFE0126200CB1FBF7F307FB38
:10875000131140EA01410EFB03F0884208D91CEBDB
:10876000010103F1FF3802D2884200F2CB80434678
:10877000091AA4B2B1FBF7F007FB101144EA014457
:108780000EFB00FEA64508D91CEB040400F1FF31E6
:1087900002D2A64500F2BB800846A4EB0E0440EAD4
:1087A00003409CE7C6F12007B34022FA07FC4CEADD
:1087B000030C20FA07F401FA06F31C43F9404FEAD0
:1087C0001C4900FA06F3B1FBF9F8200C1FFA8CFEE5
:1087D00009FB181140EA014108FB0EF0884202FA39
:1087E00006F20BD91CEB010108F1FF3A80F08880FA
:1087F000884240F28580A8F102086144091AA4B2B7
:10880000B1FBF9F009FB101144EA014100FB0EFE37
:108810008E4508D91CEB010100F1FF346CD28E4566
:108820006AD90238614440EA0840A0FB0294A1EBF7
:108830000E01A142C846A64656D353D05DB1B3EB54
:10884000080261EB0E0101FA07F722FA06F3F14084
:108850001F43C5E9007100263146BDE8F087C2F12B
:108860002003D8400CFA02FC21FA03F391400143A3
:108870004FEA1C471FFA8CFEB3FBF7F007FB1036DC
:108880000B0C43EA064300FB0EF69E4204FA02F488
:1088900008D91CEB030300F1FF382FD29E422DD9DB
:1088A000023863449B1B89B2B3FBF7F607FB163310
:1088B00041EA034106FB0EF38B4208D91CEB010190
:1088C00006F1FF3816D28B4214D9023E6144C91A10
:1088D00046EA004638E72E46284605E70646E3E620
:1088E0001846F8E64B45A9D2B9EB020864EB0C0E2A
:1088F0000138A3E74646EAE7204694E74046D1E739
:10890000D0467BE7023B614432E7304609E76444E6
:10891000023842E7704700BF02E000F000F8FEE7CF
:1089200072B6394880F30888384880F30988384897
:108930004EF60851CEF20001086040F20000CCF281
:1089400000004EF63471CEF200010860BFF34F8F85
:10895000BFF36F8F40F20000C0F2F0004EF6885176
:10896000CEF200010860BFF34F8FBFF36F8F4FF05F
:108970000000E1EE100A4EF63C71CEF200010860F4
:10898000062080F31488BFF36F8F08F125FB07F1F1
:1089900057FC4FF055301F491B4A91423CBF41F8EC
:1089A000040BFAE71C49194A91423CBF41F8040BF9
:1089B000FAE71A491A4A1B4B9A423EBF51F8040B78
:1089C00042F8040BF8E700201749184A91423CBFCF
:1089D00041F8040BFAE708F13DFB07F191FC144C58
:1089E000144DAC4203DA54F8041B8847F9E702F04F
:1089F00063FD114C114DAC4203DA54F8041B884757
:108A0000F9E708F125BB0000000402200024022041
:108A1000008000080000022000040220F85514081D
:108A2000002402206429022068290220AC67032068
:108A300000820008D0820008D0820008D08200089E
:108A40002DE9F04F2DED108AC1F80CD0D0F80CD0E4
:108A5000BDEC108ABDE8F08F07F14EF8002383F3D8
:108A600011882846A047002007F1ECF907F13EF8ED
:108A700006F192FF07F140F800DFFEE770B54FF016
:108A8000FF0C4CF4E06C1CEA11541DBF1CEA13559A
:108A900094EA0C0F95EA0C0F00F0DEF82C4481EA02
:108AA000030621EA4C5123EA4C5350EA013518BF22
:108AB00052EA033541F4801143F4801338D0A0FB0F
:108AC00002CE4FF00005E1FB02E506F00042E0FBBC
:108AD00003E54FF00006E1FB03569CF0000F18BFC2
:108AE0004EF0010EA4F1FF04B6F5007F64F540746A
:108AF00004D25FEA4E0E6D4146EB060642EAC621FD
:108B000041EA55514FEAC52040EA5E504FEACE2E69
:108B1000B4F1FD0C88BFBCF5E06F1ED8BEF1004F6C
:108B200008BF5FEA500E50F1000041EB045170BDE8
:108B300006F0004646EA010140EA020081EA03012C
:108B4000B4EB5C04C2BFD4EB0C0541EA045170BD28
:108B500041F480114FF0000E013C00F3AB8014F1A2
:108B6000360FDEBF002001F0004170BDC4F10004EB
:108B7000203C35DA0C341BDC04F11404C4F120056C
:108B800000FA05F320FA04F001FA05F240EA0200C7
:108B900001F0004221F0004110EBD37021FA04F6FD
:108BA00042EB06015EEA430E08BF20EAD37070BDB7
:108BB000C4F10C04C4F1200500FA04F320FA05F016
:108BC00001FA04F240EA020001F0004110EBD37018
:108BD00041F100015EEA430E08BF20EAD37070BD88
:108BE000C4F1200500FA05F24EEA020E20FA04F361
:108BF00001FA05F243EA020321FA04F001F0004110
:108C000021FA04F220EA020000EBD3705EEA430E80
:108C100008BF20EAD37070BD94F0000F0FD101F0AF
:108C20000046400041EB010111F4801F08BF013CE8
:108C3000F7D041EA060195F0000F18BF704703F026
:108C40000046520043EB030313F4801F08BF013DAD
:108C5000F7D043EA0603704794EA0C0F0CEA135569
:108C600018BF95EA0C0F0CD050EA410618BF52EA23
:108C70004306D1D181EA030101F000414FF0000029
:108C800070BD50EA410606BF1046194652EA430637
:108C900019D094EA0C0F02D150EA013613D195EAAB
:108CA0000C0F05D152EA03361CBF104619460AD1F3
:108CB00081EA030101F0004141F0FE4141F47001FD
:108CC0004FF0000070BD41F0FE4141F4780170BDED
:108CD00081F0004102E000BF83F0004330B54FEA6D
:108CE00041044FEA430594EA050F08BF90EA020FDA
:108CF0001FBF54EA000C55EA020C7FEA645C7FEA6D
:108D0000655C00F0E2804FEA5454D4EB5555B8BF8F
:108D10006D420CDD2C4480EA020281EA030382EA00
:108D2000000083EA010180EA020281EA0303362D92
:108D300088BF30BD11F0004F4FEA01314FF4801C65
:108D40004CEA113102D0404261EB410113F0004F77
:108D50004FEA03334CEA133302D0524263EB43032E
:108D600094EA050F00F0A780A4F10104D5F1200ECC
:108D70000DDB02FA0EFC22FA05F2801841F1000127
:108D800003FA0EF2801843FA05F359410EE0A5F1FB
:108D900020050EF1200E012A03FA0EFC28BF4CF02C
:108DA000020C43FA05F3C01851EBE37101F00045E2
:108DB00007D54FF0000EDCF1000C7EEB00006EEBEF
:108DC0000101B1F5801F1BD3B1F5001F0CD3490879
:108DD0005FEA30004FEA3C0C04F101044FEA4452D0
:108DE00012F5800F80F09A80BCF1004F08BF5FEA57
:108DF000500C50F1000041EB045141EA050130BD37
:108E00005FEA4C0C404141EB0101013C28BFB1F548
:108E1000801FE9D291F0000F04BF01460020B1FA93
:108E200081F308BF2033A3F10B03B3F120020CDA66
:108E30000C3208DD02F1140CC2F10C0201FA0CF044
:108E400021FA02F10CE002F11402D8BFC2F1200CA9
:108E500001FA02F120FA0CFCDCBF41EA0C0190405F
:108E6000E41AA2BF01EB0451294330BD6FEA0404A8
:108E70001F3C1CDA0C340EDC04F11404C4F1200293
:108E800020FA04F001FA02F340EA030021FA04F3A5
:108E900045EA030130BDC4F10C04C4F1200220FAFC
:108EA00002F001FA04F340EA0300294630BD21FA3A
:108EB00004F0294630BD94F0000F83F4801306BF00
:108EC00081F480110134013D4EE77FEA645C18BFF4
:108ED0007FEA655C29D094EA050F08BF90EA020F8B
:108EE00005D054EA000C04BF1946104630BD91EA83
:108EF000030F1EBF0021002030BD5FEA545C05D186
:108F00004000494128BF41F0004130BD14F58004C4
:108F10003CBF01F5801130BD01F0004545F0FE4138
:108F200041F470014FF0000030BD7FEA645C1ABF6D
:108F3000194610467FEA655C1CBF0B46024650EAA4
:108F4000013406BF52EA033591EA030F41F40021D0
:108F500030BD00BF90F0000F04BF0021704730B556
:108F60004FF4806404F132044FF000054FF000012B
:108F700050E700BF90F0000F04BF0021704730B5EC
:108F80004FF4806404F1320410F0004548BF4042C1
:108F90004FF000013EE700BF42004FEAE2014FEA16
:108FA00031014FEA02701FBF12F07F4393F07F4FF1
:108FB00081F06051704732F07F4208BF704793F0F4
:108FC0007F4F04BF41F40021704730B54FF4607407
:108FD00001F0004521F000411CE700BF50EA01020A
:108FE00008BF704730B54FF000050AE050EA0102B3
:108FF00008BF704730B511F0004502D5404261EB23
:1090000041014FF4806404F132045FEA915C3FF463
:10901000D8AE4FF003025FEADC0C18BF03325FEA00
:10902000DC0C18BF033202EBDC02C2F1200300FAB1
:1090300003FC20FA02F001FA03FE40EA0E0021FAD6
:1090400002F11444BDE600BF4FEA410212F50012DE
:1090500015D211D56FF47873B3EB625212D94FEA7F
:10906000C12343F0004343EA505311F0004F23FA69
:1090700002F018BF404270474FF00000704750EABE
:10908000013005D111F0004008BF6FF0004070477B
:109090004FF00000704700BF4FEA4102B2F1E043D9
:1090A00024BFB3F5001CDCF1FE5C0DD901F0004CCF
:1090B0004FEAC0024CEA5070B2F1004F40EB83001F
:1090C00008BF20F00100704711F0804F21D113F14B
:1090D0003872BCBF01F00040704741F480114FEA84
:1090E0005252C2F11802C2F1200C10FA0CF320FA0D
:1090F00002F018BF40F001004FEAC1234FEAD3232A
:1091000003FA0CFC40EA0C0023FA02F34FEA430393
:10911000CCE77FEA625307D150EA01331EBF4FF01C
:10912000FE4040F44000704701F0004040F0FE4037
:1091300040F40000704700BF01F0FF01102A2BDB54
:1091400010F0070F08D010F8013B013A8B422DD0E8
:1091500010F0070F42B3F6D1F0B441EA012141EA21
:10916000014122F007047FF000070023F0E80256D7
:10917000083C85EA010586EA010685FA47F5A3FA67
:1091800087F586FA47F6A5FA87F68EB9EED1F0BCD8
:1091900001F0FF0102F0070232B110F8013B013A81
:1091A00083EA010313B1F8D10020704701387047FA
:1091B000002D06BF35460338073815F0010F07D1DB
:1091C000013015F4807F02BF013015F4C03F01303B
:1091D000F0BC0138704700BFEC46A0E8F05F4FF0EC
:1091E00000007047B0E8F05FE546080008BF0120C6
:1091F000704700BF10F8012B11F8013B012A28BF6E
:109200009A42F7D0D01A7047034613F8012B002A70
:10921000FBD1181A0138704708B502460B4643ECDB
:10922000172BB5EEC07BF1EE10FA03D4BDE8084071
:1092300000F00AB8B1EE477B51EC170B00F004F8D0
:10924000404261EB410108BD9FED0B6B41EC170BF8
:109250009FED0B5B27EE066BBCEEC66BB8EE464B84
:10926000A4EE457BFCEEC77B16EE101A17EE900AB3
:10927000704700BFAFF30080000000000000F03D29
:10928000000000000000F041002070472DE9F0418F
:1092900006460F461CF04AFD90F83C5015B30024DA
:1092A000A0461CF043FD012C1FD90134E3B29D42BE
:1092B000F7D8B8F1000F15D0154CD4F8540A79F04E
:1092C00073FDB0F57A7F1AD1D4F8540A79F078FD9D
:1092D000B0F5FA6F06D030460E4A39467EF004FCEF
:1092E000002000E00120BDE8F08104EB840300EBE6
:1092F00083035B7D032B08BF4FF00108D5E73046A1
:10930000054A39467EF0F0FB0020BDE8F08100BF41
:109310007849022068851108448511088368012B6B
:1093200001D05B060DD50E4B93F974244AB103F5B9
:10933000805CB3F97624DCF83C31B3F906309A420C
:1093400001DC0120704710B5064C82B00A46064B7E
:10935000402100947EF0E8F8002002B010BD00BF6C
:1093600078390220AC851108BCFE110870B58EB0AA
:109370000E463222054601A90C4867F0E9FE044674
:1093800040B99DF9043043B9094B3146094A284692
:109390007EF0AAFB20460EB070BD284601AB054A00
:1093A00031467EF0A1FB20460EB070BDCC480220B5
:1093B000C4851108BCFE110870B5054682B01D4871
:1093C0000C4615F00BFAF8B11B4890F8D431DB07C6
:1093D0000AD5A0F580531921A0F66870B3F94C6442
:1093E00041F042FD86421CDC0DF1060201A9134842
:1093F00042F0C8FFBDF80430002B0CBF0126002648
:1094000006D1304602B070BD0126304602B070BDB4
:1094100028460B4B224620217EF086F8304602B0CB
:1094200070BD084B22462021284600267EF07CF89D
:10943000E7E700BF7829022078490220A85C0220D3
:1094400000861108DC851108F0B5574E91B004462E
:109450000D46D6F8540A79F0BFFC002864D154F0C8
:109460009FF853F025FF00287CD1A6F5805292F991
:1094700074346BB1D6F83C11B2F97634B1F90A0004
:1094800003F10A01884258DD40F28D318B4254DDF0
:10949000B2F8343441F65831A3F57A739BB28B425B
:1094A00059D802F2A443414F93ED007AD7F83831EE
:1094B000D3ED097AB4EEE77AF1EE10FA44DCD3ED9D
:1094C0000A7A02F5956393ED007AB4EEE77AF1EE4D
:1094D00010FA39DCB2F97034002B57DD92F8B0364F
:1094E0000D2B46D929462046FFF766FF10B396F8A4
:1094F0004D3ADB0651D432232D49D7F83C0103AA5B
:1095000072F08CF838B13223D7F8380103AA294910
:1095100070F08AF978B9204603AC274B2A462021FF
:1095200000947EF001F805E0244B2A4620212046D5
:109530007DF0FAFF002011B0F0BD214B2A4620211A
:1095400020467DF0F1FFF5E71E4B2A4620212046FC
:109550007DF0EAFFEEE71C4B2A46202120467DF0F5
:10956000E3FFE7E7194B2A46202120467DF0DCFF88
:10957000E0E74FF4215222FA03F3DA07B2D5144B95
:109580002A46202120467DF0CFFFD3E7114B2A4603
:10959000202120467DF0C8FFCCE70F4B2A46202132
:1095A00020467DF0C1FFC5E77849022078590220A6
:1095B000DC861108F4861108E08611081C86110863
:1095C00054861108788611086886110834861108B7
:1095D000A48611088C861108C48611082DE9F04F65
:1095E0008FB08846074618F0ADFF03680546D3F8EC
:1095F000B4309847064680B3DFF854B1DBF8440D29
:1096000003689B68984704460BF5F87066F0A6FF60
:1096100084F0010310F0060903F001045FFA83FAF5
:1096200018BF00241CB130460FB0BDE8F08FABF579
:10963000405014F0FFFE10BB2B6828465B6A984729
:10964000034600285AD000263846384A41467EF064
:109650004BFA30460FB0BDE8F08F2B682846344CEB
:109660005B6A9847034641463846002B2F4A08BF9D
:1096700023467EF039FA30460FB0BDE8F08F04A9DA
:10968000284618F0C3FD18B19DF811305B0646D48A
:10969000002309AA0DF12C09264C0B9305A90C9364
:1096A00028460D9309930A932B68029208AACDF8D5
:1096B0000090019206AAD3F8D4A007ABD047D4ED0E
:1096C000007AF5EEC07AF1EE10FA09DD484633F083
:1096D000F1FED4ED007AB4EEE70AF1EE10FA17DAF3
:1096E00005F5A271144805F0C1FC00289BD0134A6F
:1096F0004146384600267EF0F7F994E7B9F1000FAD
:1097000004D0BAF1000F01D00D4B9CE70D4B9AE746
:109710000D4A4146384600267EF0E6F983E70B4ABB
:109720004146384626467EF0DFF97CE7BCFE11084C
:10973000F8861108083E0220782902205C8711086B
:109740000C871108288711084487110834871108ED
:109750007859022008B5FFF741FF014BD87108BDC9
:10976000707302202DE9F0410D46044653F018FFB6
:10977000202153F089FD30B153F012FF1F2153F027
:1097800083FD002849D1344F97F82E3A03F0140393
:10979000142B53D0A36863B9236829462F4A204667
:1097A0001B6B934241D1FFF719FF2D4BD871BDE8D8
:1097B000F081294620467EF0F1FDA3688046012B0A
:1097C00001D09A0607D529462046FFF73DFE08EA54
:1097D00000005FFA80F8D7F8543A5B7913F004067A
:1097E00026D029462046FFF751FD00EA0800C6B200
:1097F00029462046FFF792FD294606402046FFF7FE
:10980000B5FD97F84D2A064093071DD429462046FA
:109810007EF032FD3040BDE8F0812046114A2946F5
:109820007EF062F90020BDE8F081BDE8F041184704
:109830000D4A294620467EF057F9D9E70B4A2946BA
:1098400020467EF051F9A5E7094A29462046002620
:109850007EF04AF9DAE700BF784902205597000800
:1098600070730220808711088C8511089C8711086D
:109870007087110810B50A4CD4F8543A5B7913F08C
:10988000010302D1FFF76EFF034694F82C2A184615
:10989000044963F304128B7184F82C2A10BD00BFB5
:1098A0007849022070730220154A13780133DBB225
:1098B0001D2B17D8137000210368124A9B6893422E
:1098C00018D110B5104CD4F8543A5B7913F0010359
:1098D00011D094F82C2A0D4963F304128B7184F88B
:1098E0002C2A10BD0023012113700368054A9B68D0
:1098F0009342E6D01847FFF735FF0346E9E700BF7C
:109900000024022075980008784902207073022014
:10991000F8B506460D467DF0EFFE044608B3B36881
:10992000012B01D099071CD5134876F019F803468E
:10993000DA05C3F3002714D49B0512D50E4875F041
:10994000B7FF0E4B9FED0E7AD3ED387AF8EEE77A3B
:1099500030EE670AB0EEC00AB4EEC70AF1EE10FAB4
:1099600001DC2046F8BD074B2A46022130463C4622
:109970007DF0DAFDF5E700BF905A02207859022009
:109980000000C842B487110870B5054690B00E4675
:109990007EF040F9AB680446012B01D05B070CD583
:1099A00000212E2204A803910AF17CFF20F0B2FCD2
:1099B000322203A920F086FA10B1204610B070BD03
:1099C00003A90446044B28460091324604217DF049
:1099D000ABFD204610B070BDBCFE110870B5054649
:1099E0000E467EF055FB0446AB68012B01D0DB062A
:1099F00005D5084875F0B4FF10F0010001D02046ED
:109A000070BD0446044B2846324610217DF08CFD83
:109A1000204670BD905A0220C887110838B5044608
:109A20000D467DF0E1FFA8B1A368012B01D01B0614
:109A300010D5094B93F8DD302BB929462046BDE8F7
:109A400038407EF02DBB2046044B2A4680217DF015
:109A50006BFD002038BD00BF78590220DC8711085B
