:020000040800F2
:108000000004022019890008E1F10808E5F10808D8
:108010004DF20808E5F1080819F208081B89000864
:108020001B8900081B8900081B8900085DB1100826
:108030001B8900081B8900081B8900081B89000890
:108040001B8900081B8900081B8900081B89000880
:108050001B8900081B8900089D1A1108CD1A1108F8
:10806000FD1A11082D1B11085D1B1108D9B8100845
:1080700005B9100835B9100865B9100895B9100888
:10808000C1B91008F1B910085DB7100859EC08081B
:1080900089EC0808BDEC08081B8900088D1B110835
:1080A0001B8900081B8900081B8900081B89000820
:1080B000C12211081B8900081B8900083DC2100855
:1080C00071C21008A5C21008D9C210081B89000887
:1080D0001B890008C5D71008DDD71008F5D7100890
:1080E000F91B11081B8900081B8900081B8900085F
:1080F0001B8900081B8900081B89000821BA100889
:108100001B890008F1C810081B8900081B8900089A
:108110000DD810081B8900081B8900081B8900085E
:1081200051BA10087DBA1008ADBA1008DDBA1008AF
:108130000DBB10081B8900081B890008F1EC08081A
:1081400021ED080855ED08081B8900085116110893
:1081500039BB100869BB100899BB100825D8100856
:108160000DC3100841C310081B8900081B890008B3
:108170001B8900081B8900081B8900081B8900084F
:108180001B8900081B8900083DD8100855D8100825
:108190001B8900081B8900081B8900081B8900082F
:1081A0001B8900081B8900081B8900081B8900081F
:1081B0001B8900081B8900081B89000875C310086B
:1081C000A9C310081B8900081B8900081B89000827
:1081D0001B8900081B8900081B8900081B890008EF
:1081E0001B8900081B8900081B8900081B890008DF
:1081F0001B8900081B8900081B8900081B890008CF
:10820000D9B400085DE8000849800108B1370208C8
:10821000F14A020841550208615902085D5D0208F1
:10822000B95D02083566020801BB020871DC02086C
:10823000B53E03088DF8030891710408DD73040846
:10824000919E040811A2040829AF04087D4F050877
:1082500059570508E15A0508E1DE050841090608F5
:10826000E5FE0608414F070821850808F9D80808E7
:10827000CDDC080855DE080889ED080821F008085B
:1082800099F60808A1530A08F55D0A08A17F0A08B3
:1082900041900A0889AA0A08C1AA0A0839D90A0815
:1082A000950F0B0825300B08C95B0B0801180E0849
:1082B000D1200E08CD5C0E0815930E08D1060F08CC
:1082C000D50F0F0805360F084D420F08F9600F084B
:1082D00080F0004002E000BF81F0004142001FBF7B
:1082E0005FEA410392EA030F7FEA226C7FEA236C84
:1082F0006AD04FEA1262D2EB1363C1BFD218414079
:1083000048404140B8BF5B42192B88BF704710F00E
:10831000004F40F4000020F07F4018BF404211F0B1
:10832000004F41F4000121F07F4118BF494292EA19
:10833000030F3FD0A2F1010241FA03FC10EB0C0045
:10834000C3F1200301FA03F100F0004302D54942D2
:1083500060EB4000B0F5000F13D3B0F1807F06D37F
:1083600040084FEA310102F10102FE2A51D2B1F177
:10837000004F40EBC25008BF20F0010040EA03006C
:108380007047490040EB0000013A28BFB0F5000FEC
:10839000EDD2B0FA80FCACF1080CB2EB0C0200FAA2
:1083A0000CF0AABF00EBC25052421843BCBFD040F1
:1083B0001843704792F0000F81F4000106BF80F46B
:1083C00000000132013BB5E74FEA41037FEA226C2E
:1083D00018BF7FEA236C21D092EA030F04D092F0F9
:1083E000000F08BF0846704790EA010F1CBF00202D
:1083F000704712F07F4F04D1400028BF40F000408A
:10840000704712F100723CBF00F50000704700F0A9
:10841000004343F0FE4040F4000070477FEA2262D0
:1084200016BF08467FEA23630146420206BF5FEAA1
:10843000412390EA010F40F4800070474FF00003A1
:1084400004E000BF10F0004348BF40425FEA000C68
:1084500008BF704743F0964301464FF000001CE010
:1084600050EA010208BF70474FF000030AE000BF66
:1084700050EA010208BF704711F0004302D54042A4
:1084800061EB41015FEA010C02BF84460146002016
:1084900043F0B64308BFA3F18053A3F50003BCFA31
:1084A0008CF2083AA3EBC25310DB01FA02FC6344DE
:1084B00000FA02FCC2F12002BCF1004F20FA02F2E5
:1084C00043EB020008BF20F00100704702F12002D8
:1084D00001FA02FCC2F1200250EA4C0021FA02F239
:1084E00043EB020008BF20EADC7070477BB972B929
:1084F0000029BEBF00204FF0004106E008BF002861
:108500001CBF6FF000414FF0FF3000F003BAADF137
:10851000080C6DE904CE002909DB002B1ADB00F002
:1085200091F8DDF804E0DDE9022304B07047404231
:1085300061EB4101002B1BDB00F084F8DDF804E067
:10854000DDE9022304B0404261EB4101524263EB9A
:1085500043037047524263EB430300F073F8DDF8C6
:1085600004E0DDE9022304B0404261EB41017047C1
:10857000524263EB430300F065F8DDF804E0DDE907
:10858000022304B0524263EB4303704753B94AB924
:10859000002908BF00281CBF4FF0FF314FF0FF300B
:1085A00000F0B8B9ADF1080C6DE904CE00F04AF85E
:1085B000DDF804E0DDE9022304B07047430803F06E
:1085C0005533C01A830803F0333300F033301844B6
:1085D00000EB101000F00F3000EB002000EB00402B
:1085E000000E704780EA104080EA102080EA1010E8
:1085F00046F6961300F00F0043FA00F000F0010079
:10860000704700BF9FED0B6B07EE900A9FED0B5B71
:10861000B7EEE77A27EE066BBCEEC66BB8EE464BBC
:10862000A4EE457BFCEEC77B16EE101A17EE900AFF
:10863000704700BF000000000000F03D0000000097
:108640000000F0412DE9F047089D04468E46002BBE
:108650004DD18A42944669D9B2FA82F252B101FAF6
:1086600002F3C2F1200120FA01F10CFA02FC41EA06
:10867000030E94404FEA1C48210CBEFBF8F61FFA8B
:108680008CF708FB16E341EA034306FB07F1994226
:108690000AD91CEB030306F1FF3080F01F819942D9
:1086A00040F21C81023E63445B1AA4B2B3FBF8F0B3
:1086B00008FB103344EA034400FB07F7A7420AD93A
:1086C0001CEB040400F1FF3380F00A81A74240F262
:1086D00007816444023840EA0640E41B00261DB1CD
:1086E000D4400023C5E900433146BDE8F0878B4202
:1086F00009D9002D00F0EF800026C5E900013046C1
:108700003146BDE8F087B3FA83F6002E4AD18B429A
:1087100002D3824200F2F980841A61EB0303012044
:108720009E46002DE0D0C5E9004EDDE702B9FFDE30
:10873000B2FA82F2002A40F09280A1EB0C014FEADB
:108740001C471FFA8CFE0126200CB1FBF7F307FB38
:10875000131140EA01410EFB03F0884208D91CEBDB
:10876000010103F1FF3802D2884200F2CB80434678
:10877000091AA4B2B1FBF7F007FB101144EA014457
:108780000EFB00FEA64508D91CEB040400F1FF31E6
:1087900002D2A64500F2BB800846A4EB0E0440EAD4
:1087A00003409CE7C6F12007B34022FA07FC4CEADD
:1087B000030C20FA07F401FA06F31C43F9404FEAD0
:1087C0001C4900FA06F3B1FBF9F8200C1FFA8CFEE5
:1087D00009FB181140EA014108FB0EF0884202FA39
:1087E00006F20BD91CEB010108F1FF3A80F08880FA
:1087F000884240F28580A8F102086144091AA4B2B7
:10880000B1FBF9F009FB101144EA014100FB0EFE37
:108810008E4508D91CEB010100F1FF346CD28E4566
:108820006AD90238614440EA0840A0FB0294A1EBF7
:108830000E01A142C846A64656D353D05DB1B3EB54
:10884000080261EB0E0101FA07F722FA06F3F14084
:108850001F43C5E9007100263146BDE8F087C2F12B
:108860002003D8400CFA02FC21FA03F391400143A3
:108870004FEA1C471FFA8CFEB3FBF7F007FB1036DC
:108880000B0C43EA064300FB0EF69E4204FA02F488
:1088900008D91CEB030300F1FF382FD29E422DD9DB
:1088A000023863449B1B89B2B3FBF7F607FB163310
:1088B00041EA034106FB0EF38B4208D91CEB010190
:1088C00006F1FF3816D28B4214D9023E6144C91A10
:1088D00046EA004638E72E46284605E70646E3E620
:1088E0001846F8E64B45A9D2B9EB020864EB0C0E2A
:1088F0000138A3E74646EAE7204694E74046D1E739
:10890000D0467BE7023B614432E7304609E76444E6
:10891000023842E7704700BF02E000F000F8FEE7CF
:1089200072B6394880F30888384880F30988384897
:108930004EF60851CEF20001086040F20000CCF281
:1089400000004EF63471CEF200010860BFF34F8F85
:10895000BFF36F8F40F20000C0F2F0004EF6885176
:10896000CEF200010860BFF34F8FBFF36F8F4FF05F
:108970000000E1EE100A4EF63C71CEF200010860F4
:10898000062080F31488BFF36F8F08F1EBFA07F12C
:108990001DFC4FF055301F491B4A91423CBF41F826
:1089A000040BFAE71C49194A91423CBF41F8040BF9
:1089B000FAE71A491A4A1B4B9A423EBF51F8040B78
:1089C00042F8040BF8E700201749184A91423CBFCF
:1089D00041F8040BFAE708F103FB07F157FC144CCC
:1089E000144DAC4203DA54F8041B8847F9E702F04F
:1089F00063FD114C114DAC4203DA54F8041B884757
:108A0000F9E708F1EBBA000000040220002402207C
:108A100000800008000002200004022040551408D5
:108A2000002402206429022068290220AC67032068
:108A300000820008D0820008D0820008D08200089E
:108A40002DE9F04F2DED108AC1F80CD0D0F80CD0E4
:108A5000BDEC108ABDE8F08F07F114F8002383F312
:108A600011882846A047002007F1B2F907F104F861
:108A700006F158FF07F106F800DFFEE770B54FF08A
:108A8000FF0C4CF4E06C1CEA11541DBF1CEA13559A
:108A900094EA0C0F95EA0C0F00F0DEF82C4481EA02
:108AA000030621EA4C5123EA4C5350EA013518BF22
:108AB00052EA033541F4801143F4801338D0A0FB0F
:108AC00002CE4FF00005E1FB02E506F00042E0FBBC
:108AD00003E54FF00006E1FB03569CF0000F18BFC2
:108AE0004EF0010EA4F1FF04B6F5007F64F540746A
:108AF00004D25FEA4E0E6D4146EB060642EAC621FD
:108B000041EA55514FEAC52040EA5E504FEACE2E69
:108B1000B4F1FD0C88BFBCF5E06F1ED8BEF1004F6C
:108B200008BF5FEA500E50F1000041EB045170BDE8
:108B300006F0004646EA010140EA020081EA03012C
:108B4000B4EB5C04C2BFD4EB0C0541EA045170BD28
:108B500041F480114FF0000E013C00F3AB8014F1A2
:108B6000360FDEBF002001F0004170BDC4F10004EB
:108B7000203C35DA0C341BDC04F11404C4F120056C
:108B800000FA05F320FA04F001FA05F240EA0200C7
:108B900001F0004221F0004110EBD37021FA04F6FD
:108BA00042EB06015EEA430E08BF20EAD37070BDB7
:108BB000C4F10C04C4F1200500FA04F320FA05F016
:108BC00001FA04F240EA020001F0004110EBD37018
:108BD00041F100015EEA430E08BF20EAD37070BD88
:108BE000C4F1200500FA05F24EEA020E20FA04F361
:108BF00001FA05F243EA020321FA04F001F0004110
:108C000021FA04F220EA020000EBD3705EEA430E80
:108C100008BF20EAD37070BD94F0000F0FD101F0AF
:108C20000046400041EB010111F4801F08BF013CE8
:108C3000F7D041EA060195F0000F18BF704703F026
:108C40000046520043EB030313F4801F08BF013DAD
:108C5000F7D043EA0603704794EA0C0F0CEA135569
:108C600018BF95EA0C0F0CD050EA410618BF52EA23
:108C70004306D1D181EA030101F000414FF0000029
:108C800070BD50EA410606BF1046194652EA430637
:108C900019D094EA0C0F02D150EA013613D195EAAB
:108CA0000C0F05D152EA03361CBF104619460AD1F3
:108CB00081EA030101F0004141F0FE4141F47001FD
:108CC0004FF0000070BD41F0FE4141F4780170BDED
:108CD00081F0004102E000BF83F0004330B54FEA6D
:108CE00041044FEA430594EA050F08BF90EA020FDA
:108CF0001FBF54EA000C55EA020C7FEA645C7FEA6D
:108D0000655C00F0E2804FEA5454D4EB5555B8BF8F
:108D10006D420CDD2C4480EA020281EA030382EA00
:108D2000000083EA010180EA020281EA0303362D92
:108D300088BF30BD11F0004F4FEA01314FF4801C65
:108D40004CEA113102D0404261EB410113F0004F77
:108D50004FEA03334CEA133302D0524263EB43032E
:108D600094EA050F00F0A780A4F10104D5F1200ECC
:108D70000DDB02FA0EFC22FA05F2801841F1000127
:108D800003FA0EF2801843FA05F359410EE0A5F1FB
:108D900020050EF1200E012A03FA0EFC28BF4CF02C
:108DA000020C43FA05F3C01851EBE37101F00045E2
:108DB00007D54FF0000EDCF1000C7EEB00006EEBEF
:108DC0000101B1F5801F1BD3B1F5001F0CD3490879
:108DD0005FEA30004FEA3C0C04F101044FEA4452D0
:108DE00012F5800F80F09A80BCF1004F08BF5FEA57
:108DF000500C50F1000041EB045141EA050130BD37
:108E00005FEA4C0C404141EB0101013C28BFB1F548
:108E1000801FE9D291F0000F04BF01460020B1FA93
:108E200081F308BF2033A3F10B03B3F120020CDA66
:108E30000C3208DD02F1140CC2F10C0201FA0CF044
:108E400021FA02F10CE002F11402D8BFC2F1200CA9
:108E500001FA02F120FA0CFCDCBF41EA0C0190405F
:108E6000E41AA2BF01EB0451294330BD6FEA0404A8
:108E70001F3C1CDA0C340EDC04F11404C4F1200293
:108E800020FA04F001FA02F340EA030021FA04F3A5
:108E900045EA030130BDC4F10C04C4F1200220FAFC
:108EA00002F001FA04F340EA0300294630BD21FA3A
:108EB00004F0294630BD94F0000F83F4801306BF00
:108EC00081F480110134013D4EE77FEA645C18BFF4
:108ED0007FEA655C29D094EA050F08BF90EA020F8B
:108EE00005D054EA000C04BF1946104630BD91EA83
:108EF000030F1EBF0021002030BD5FEA545C05D186
:108F00004000494128BF41F0004130BD14F58004C4
:108F10003CBF01F5801130BD01F0004545F0FE4138
:108F200041F470014FF0000030BD7FEA645C1ABF6D
:108F3000194610467FEA655C1CBF0B46024650EAA4
:108F4000013406BF52EA033591EA030F41F40021D0
:108F500030BD00BF90F0000F04BF0021704730B556
:108F60004FF4806404F132044FF000054FF000012B
:108F700050E700BF90F0000F04BF0021704730B5EC
:108F80004FF4806404F1320410F0004548BF4042C1
:108F90004FF000013EE700BF42004FEAE2014FEA16
:108FA00031014FEA02701FBF12F07F4393F07F4FF1
:108FB00081F06051704732F07F4208BF704793F0F4
:108FC0007F4F04BF41F40021704730B54FF4607407
:108FD00001F0004521F000411CE700BF50EA01020A
:108FE00008BF704730B54FF000050AE050EA0102B3
:108FF00008BF704730B511F0004502D5404261EB23
:1090000041014FF4806404F132045FEA915C3FF463
:10901000D8AE4FF003025FEADC0C18BF03325FEA00
:10902000DC0C18BF033202EBDC02C2F1200300FAB1
:1090300003FC20FA02F001FA03FE40EA0E0021FAD6
:1090400002F11444BDE600BF4FEA410212F50012DE
:1090500015D211D56FF47873B3EB625212D94FEA7F
:10906000C12343F0004343EA505311F0004F23FA69
:1090700002F018BF404270474FF00000704750EABE
:10908000013005D111F0004008BF6FF0004070477B
:109090004FF00000704700BF4FEA4102B2F1E043D9
:1090A00024BFB3F5001CDCF1FE5C0DD901F0004CCF
:1090B0004FEAC0024CEA5070B2F1004F40EB83001F
:1090C00008BF20F00100704711F0804F21D113F14B
:1090D0003872BCBF01F00040704741F480114FEA84
:1090E0005252C2F11802C2F1200C10FA0CF320FA0D
:1090F00002F018BF40F001004FEAC1234FEAD3232A
:1091000003FA0CFC40EA0C0023FA02F34FEA430393
:10911000CCE77FEA625307D150EA01331EBF4FF01C
:10912000FE4040F44000704701F0004040F0FE4037
:1091300040F40000704700BF01F0FF01102A2BDB54
:1091400010F0070F08D010F8013B013A8B422DD0E8
:1091500010F0070F42B3F6D1F0B441EA012141EA21
:10916000014122F007047FF000070023F0E80256D7
:10917000083C85EA010586EA010685FA47F5A3FA67
:1091800087F586FA47F6A5FA87F68EB9EED1F0BCD8
:1091900001F0FF0102F0070232B110F8013B013A81
:1091A00083EA010313B1F8D10020704701387047FA
:1091B000002D06BF35460338073815F0010F07D1DB
:1091C000013015F4807F02BF013015F4C03F01303B
:1091D000F0BC0138704700BFEC46A0E8F05F4FF0EC
:1091E00000007047B0E8F05FE546080008BF0120C6
:1091F000704700BF10F8012B11F8013B012A28BF6E
:109200009A42F7D0D01A7047034613F8012B002A70
:10921000FBD1181A0138704708B502460B4643ECDB
:10922000172BB5EEC07BF1EE10FA03D4BDE8084071
:1092300000F00AB8B1EE477B51EC170B00F004F8D0
:10924000404261EB410108BD9FED0B6B41EC170BF8
:109250009FED0B5B27EE066BBCEEC66BB8EE464B84
:10926000A4EE457BFCEEC77B16EE101A17EE900AB3
:10927000704700BFAFF30080000000000000F03D29
:10928000000000000000F041002070472DE9F0418F
:1092900006460F461CF05CFD90F83C5015B30024C8
:1092A000A0461CF055FD012C1FD90134E3B29D42AC
:1092B000F7D8B8F1000F15D0154CD4F8540A79F04E
:1092C0006BFDB0F57A7F1AD1D4F8540A79F070FDAD
:1092D000B0F5FA6F06D030460E4A39467EF0FCFBF8
:1092E000002000E00120BDE8F08104EB840300EBE6
:1092F00083035B7D032B08BF4FF00108D5E73046A1
:10930000054A39467EF0E8FB0020BDE8F08100BF49
:1093100078490220F4841108D08411088368012B55
:1093200001D05B060DD50E4B93F974244AB103F5B9
:10933000805CB3F97624DCF83C31B3F906309A420C
:1093400001DC0120704710B5064C82B00A46064B7E
:10935000402100947EF0E0F8002002B010BD00BF74
:10936000783902203885110848FE110870B58EB092
:109370000E463222054601A90C4867F0E1FE04467C
:1093800040B99DF9043043B9094B3146094A284692
:109390007EF0A2FB20460EB070BD284601AB054A08
:1093A00031467EF099FB20460EB070BDCC480220BD
:1093B0005085110848FE110870B5054682B01D4859
:1093C0000C4615F01DFAF8B11B4890F8D431DB07B4
:1093D0000AD5A0F580531921A0F66870B3F94C6442
:1093E00041F054FD86421CDC0DF1060201A9134830
:1093F00042F0DAFFBDF80430002B0CBF0126002636
:1094000006D1304602B070BD0126304602B070BDB4
:1094100028460B4B224620217EF07EF8304602B0D3
:1094200070BD084B22462021284600267EF074F8A5
:10943000E7E700BF7829022078490220A85C0220D3
:109440008C85110868851108F0B5574E91B0044617
:109450000D46D6F8540A79F0B7FC002864D154F0D0
:1094600097F853F01DFF00287CD1A6F5805292F9A1
:1094700074346BB1D6F83C11B2F97634B1F90A0004
:1094800003F10A01884258DD40F28D318B4254DDF0
:10949000B2F8343441F65831A3F57A739BB28B425B
:1094A00059D802F2A443414F93ED007AD7F83831EE
:1094B000D3ED097AB4EEE77AF1EE10FA44DCD3ED9D
:1094C0000A7A02F5956393ED007AB4EEE77AF1EE4D
:1094D00010FA39DCB2F97034002B57DD92F8B0364F
:1094E0000D2B46D929462046FFF766FF10B396F8A4
:1094F0004D3ADB0651D432232D49D7F83C0103AA5B
:1095000072F084F838B13223D7F8380103AA294918
:1095100070F082F978B9204603AC274B2A46202107
:1095200000947DF0F9FF05E0244B2A4620212046D7
:109530007DF0F2FF002011B0F0BD214B2A46202122
:1095400020467DF0E9FFF5E71E4B2A462021204604
:109550007DF0E2FFEEE71C4B2A46202120467DF0FD
:10956000DBFFE7E7194B2A46202120467DF0D4FF98
:10957000E0E74FF4215222FA03F3DA07B2D5144B95
:109580002A46202120467DF0C7FFD3E7114B2A460B
:10959000202120467DF0C0FFCCE70F4B2A4620213A
:1095A00020467DF0B9FFC5E77849022078590220AE
:1095B00068861108808611086C861108A885110834
:1095C000E085110804861108F4851108C08511088A
:1095D0003086110818861108508611082DE9F04FC1
:1095E0008FB08846074618F0BFFF03680546D3F8DA
:1095F000B4309847064680B3DFF854B1DBF8440D29
:1096000003689B68984704460BF5F87066F09EFF68
:1096100084F0010310F0060903F001045FFA83FAF5
:1096200018BF00241CB130460FB0BDE8F08FABF579
:10963000405014F011FF10BB2B6828465B6A984716
:10964000034600285AD000263846384A41467EF064
:1096500043FA30460FB0BDE8F08F2B682846344CF3
:109660005B6A9847034641463846002B2F4A08BF9D
:1096700023467EF031FA30460FB0BDE8F08F04A9E2
:10968000284618F0D5FD18B19DF811305B0646D478
:10969000002309AA0DF12C09264C0B9305A90C9364
:1096A00028460D9309930A932B68029208AACDF8D5
:1096B0000090019206AAD3F8D4A007ABD047D4ED0E
:1096C000007AF5EEC07AF1EE10FA09DD484633F083
:1096D00003FFD4ED007AB4EEE70AF1EE10FA17DAE0
:1096E00005F5A271144805F0D3FC00289BD0134A5D
:1096F0004146384600267EF0EFF994E7B9F1000FB5
:1097000004D0BAF1000F01D00D4B9CE70D4B9AE746
:109710000D4A4146384600267EF0DEF983E70B4AC3
:109720004146384626467EF0D7F97CE748FE1108C8
:1097300084861108083E022078290220E886110854
:1097400098861108B4861108D0861108C0861108C1
:109750007859022008B5FFF741FF014BD87108BDC9
:10976000707302202DE9F0410D46044653F010FFBE
:10977000202153F081FD30B153F00AFF1F2153F037
:109780007BFD002849D1344F97F82E3A03F014039B
:10979000142B53D0A36863B9236829462F4A204667
:1097A0001B6B934241D1FFF719FF2D4BD871BDE8D8
:1097B000F081294620467EF0E9FDA3688046012B12
:1097C00001D09A0607D529462046FFF73DFE08EA54
:1097D00000005FFA80F8D7F8543A5B7913F004067A
:1097E00026D029462046FFF751FD00EA0800C6B200
:1097F00029462046FFF792FD294606402046FFF7FE
:10980000B5FD97F84D2A064093071DD429462046FA
:109810007EF02AFD3040BDE8F0812046114A2946FD
:109820007EF05AF90020BDE8F081BDE8F04118470C
:109830000D4A294620467EF04FF9D9E70B4A2946C2
:1098400020467EF049F9A5E7094A29462046002628
:109850007EF042F9DAE700BF784902205597000808
:10986000707302200C8711081885110828871108C9
:10987000FC86110810B50A4CD4F8543A5B7913F001
:10988000010302D1FFF76EFF034694F82C2A184615
:10989000044963F304128B7184F82C2A10BD00BFB5
:1098A0007849022070730220154A13780133DBB225
:1098B0001D2B17D8137000210368124A9B6893422E
:1098C00018D110B5104CD4F8543A5B7913F0010359
:1098D00011D094F82C2A0D4963F304128B7184F88B
:1098E0002C2A10BD0023012113700368054A9B68D0
:1098F0009342E6D01847FFF735FF0346E9E700BF7C
:109900000024022075980008784902207073022014
:10991000F8B506460D467DF0E7FE044608B3B36889
:10992000012B01D099071CD5134876F011F8034696
:10993000DA05C3F3002714D49B0512D50E4875F041
:10994000AFFF0E4B9FED0E7AD3ED387AF8EEE77A43
:1099500030EE670AB0EEC00AB4EEC70AF1EE10FAB4
:1099600001DC2046F8BD074B2A46022130463C4622
:109970007DF0D2FDF5E700BF905A02207859022011
:109980000000C8424087110870B5054690B00E46E9
:109990007EF038F9AB680446012B01D05B070CD58B
:1099A00000212E2204A803910AF142FF20F0C4FCFA
:1099B000322203A920F098FA10B1204610B070BDF1
:1099C00003A90446044B28460091324604217DF049
:1099D000A3FD204610B070BD48FE110870B50546C5
:1099E0000E467EF04DFB0446AB68012B01D0DB0632
:1099F00005D5084875F0ACFF10F0010001D02046F5
:109A000070BD0446044B2846324610217DF084FD8B
:109A1000204670BD905A02205487110838B504467C
:109A20000D467DF0D9FFA8B1A368012B01D01B061C
:109A300010D5094B93F8DD302BB929462046BDE8F7
:109A400038407EF025BB2046044B2A4680217DF01D
:109A500063FD002038BD00BF7859022068871108D7
:109A6000F0B5114C85B00F460646D4F834316A463D
:109A70000093D4F838310193D4F83C310293D4F8F0
:109A8000403103937EF0AAFC0546394630467DF00E
:109A90006FFD94F82C3A284060F3C303C3F3C00071
:109AA00084F82C3A05B0F0BD784902202DE9F04148
:109AB00006460F46FFF792FD002838D0DFF8888071
:109AC0000446D8F8440D03689B689847054608F596
:109AD000F87085F0010566F039FD10F0060F05F00D
:109AE000010518BF0025B5B9B368012B01D01B07CC
:109AF00011D5124B93F8A82203EBC21203F5805341
:109B0000B2F84221B3F95A349A420ADC3946304657
:109B10007DF004FE58B10A4B01222046DA71BDE8FF
:109B2000F081084B3A46082130467DF0F5FC0023D1
:109B3000034A1C46D3712046BDE8F08178290220F3
:109B4000707302207C8711087859022070B586B0A6
:109B500006460D467DF0E2FF044640B1B368012B96
:109B600001D09B0603D5154890F8993213B92046C9
:109B700006B070BD05AAA0F5CC5004A961F086FE20
:109B80000028F4D09DED057ADFED0D7AB4EEE77A8A
:109B9000F1EE10FAEBD8DDED046AB7EEC77A094BA7
:109BA0002A46FDEEE66A3046202100248DED027B38
:109BB000CDED006A7DF0B0FCD9E700BF78590220F6
:109BC0009A99193F8C8711082DE9F04782B00F460A
:109BD000064618F0C9FC03680546D3F8B03098472C
:109BE000002800F0CB80284618F0C4FC044600286A
:109BF00000F0A580DFF888A2A7F101010AF58058DE
:109C0000B1FA81F19AF8309AD8F8440D49090368FD
:109C10001B6998470446002800F0A780DAF8543AF8
:109C20005C7914F0040400F0D58001213046FFF780
:109C30002DFB0446002800F09D809AF82E3A03F090
:109C40001403142B00F0CF8053F0A2FC1F2153F01B
:109C500013FB002800F09C8053F09AFC1F2153F066
:109C60000BFB20B1734B1B78002B40F0C580B36811
:109C7000002B7FD0012B02D0DC0640F18C80D5ED8B
:109C8000577A95ED560A20EE270A09F199F9DFED8A
:109C90006A7A6A4A20EE270ADFED697AB2F934342B
:109CA00020EE270A07EE903AF8EEE77AB4EEE70ADC
:109CB000F1EE10FA00F3A880B368012B6BD19AF88B
:109CC0004D3ADB066DD492F9743443B1DAF83C3185
:109CD000B2F97624B3F906309A4200F3A780012F37
:109CE00003D109F0EF03042B65D0DAF83C31554875
:109CF000B3F9083000EE103AB8EEC00A00F002FBEB
:109D0000B5EEC00AF1EE10FA0FDCD8F8440D036886
:109D1000DB689847B9F10B0F01D000284BD0DAF877
:109D20003C31B3F90830002B45DD474C474B0094DC
:109D300001224021304600247DF0EEFB1AE020F0A5
:109D4000FBFA214604461FF0CDFBC3B2C3EB43131D
:109D500004EB830393F87940002C7FF44BAF3C4A2B
:109D6000012130467DF0B8FE04E03A4A0121304638
:109D70007DF0B2FE204602B0BDE8F0870446364AC8
:109D8000304601217DF0A8FE204602B0BDE8F087F4
:109D9000284B18706BE798060BD59AF84D2AD20617
:109DA00007D52E4B01222021304600247DF0B4FB44
:109DB000E0E759061ED42A4B2A4A1B68986C0368B0
:109DC0009B69934228D13946304602B0BDE8F0473E
:109DD0007DF0D2BD3046244A01217DF07DFE204633
:109DE00002B0BDE8F087214A0121304600247DF011
:109DF00073FEBFE7114A66E752F0F4FC1C4A0221E9
:109E0000002449F0EDFDB5E71A4B01221021304640
:109E100000247DF081FBADE7984701280146D2D1AF
:109E2000154A304600247DF057FEA3E7064C134B3D
:109E30007DE700BF387C0220E02E654278390220A1
:109E40000000C842782902200C88110818881108DF
:109E5000A8871108BC87110884861108508611084C
:109E6000507002208992000818851108288711086F
:109E7000D0871108F087110824881108F887110885
:109E8000784902202DE9F041564E3378C3B9564F38
:109E90000124D7F8545A34706D79254003D02846F0
:109EA0003370BDE8F0817DF0C3FA054660B94F4AD2
:109EB00030702846137843F001031370BDE8F08139
:109EC00000252846BDE8F08144F0E2F8214643F041
:109ED000D7FBA7F5005007F051F8454B1C710B2438
:109EE00039F082FD39F0FCFC611E11F0FF04F7D15E
:109EF000404800F069FE18F037FB83698046C7F8D8
:109F0000783A90F85431DA0759D40368D3F8CC3052
:109F1000984744F0BDF83C2144F00EF807F63C2386
:109F200000221A600021334800F0D8FE314814F0B6
:109F300093FA014630487BF0A3FE98F880302F4C0E
:109F4000012143F0040388F880302D4B1B68986C86
:109F50002CF0CEFC94F8C032A4F540506FF34103CE
:109F600084F8C03212F022FF0121D7F8540A7AF0A7
:109F7000BDFA44F08DF80A2143F0DEFF44F088F882
:109F800097F8312A97F8301A43F0DCFCA4F54050DA
:109F900006F0E6FF41F0CCFB41F004F800233370FB
:109FA00085F092F9B7F82E3AC4F84C01284623F40C
:109FB000087343F02003A7F82E3ABDE8F0819B0711
:109FC000B0D421460B4805F015F90E4875F068FC31
:109FD000DFED0D7A07F63C2320EE270A83ED000A19
:109FE000A0E700BF68290220784902208C73022074
:109FF00070730220782902207047022078590220CD
:10A0000050700220905A02200AD7233C2DE9F043D9
:10A010003B4D87B0D5F8543A5B79DB0704D4012473
:10A02000204607B0BDE8F0837DF034FA04460028EE
:10A03000F6D018F099FA064620F07EF9804633688B
:10A040003046D3F89030984718B198F95030022B29
:10A050003BD02C4B2C48D3F8443D834231D00BF0FD
:10A0600031F80121294807F0A7F90121274807F015
:10A07000D3F844F00DF80B2143F05EFF0021D5F832
:10A08000540A7AF033FA224833F026FC44F000F800
:10A09000002143F0F5FA96F880301E4A00216FF354
:10A0A0008203126886F88030906C2CF021FC95F8C1
:10A0B0002E3A20466FF3451385F82E3A07B0BDE8D7
:10A0C000F08318460AF0F2FFCBE700274FF00009B3
:10A0D000F9B203AA3046CDF80C9001910137CDF8C2
:10A0E0001090CDF8149018F017F9019910B9032FBA
:10A0F000EED1AEE703AA40461FF034FCF7E700BFFD
:10A1000078490220785902208469022078290220A7
:10A110007467022050700220014866F0EDBA00BF5B
:10A12000685B022000F5005292F82C3AC3F3401C01
:10A130008C4504D061F3451382F82C3A01B970477D
:10A140000F2102F0C1BF00BF70B500F5005696F8B0
:10A150002C3AC3F341038B4214D005460C4609B395
:10A16000012910D11A2102F0AFFF42F63410134A30
:10A170000621284449F034FC96F82C3A64F3420353
:10A1800086F82C3A70BD012100F0A8FD28461D215B
:10A1900002F09AFF42F63410094A0621284449F099
:10A1A0001FFCE9E71B2102F08FFF42F63410054A3D
:10A1B0000621284449F014FCDEE700BF8C88110812
:10A1C0009C8811087C88110800F5005210B592F89F
:10A1D0004D3A0C4603F00101A14209D064F300039B
:10A1E00082F84D3ADB0704D506F04CFC024B9C721A
:10A1F00010BD06F01BFBF9E77073022000F500505C
:10A20000044A90F84D3A117361F3410380F84D3AD6
:10A21000704700BF7073022010B5044653F0B8F9C0
:10A22000202153F029F804F50053003893F82E2A22
:10A2300018BF012060F3820283F82E2A10BD00BFF0
:10A2400090ED280A704700BF00F5005330B593F831
:10A250004D2A83B0D207019103D493F82D3A5B07BE
:10A2600003D49FED220A03B030BD41F2A865B7EEDA
:10A27000001ADFED1E0A0446054495ED000A30F091
:10A28000CFFAB0EEC07ADFED1A7A85ED000AB4EEAF
:10A29000E77AF1EE10FA0BD5DDED017A04F5A5545D
:10A2A000B8EEE70AD4ED007A20EE270A03B030BDFD
:10A2B000DDED017A04F5A5549FED0E6AB8EEE77A5C
:10A2C000D4ED005AF7EE007AC7EE066A77EEC07A50
:10A2D00026EEA67A67EEA67A67EE266AE0EE267A82
:10A2E00027EE860A20EE250A03B030BD00000000EC
:10A2F0000000003400A08C4500F54050D0F83C012F
:10A300006FF056BF00F5005238B52DED068B92F870
:10A310004D1A11F0010503D192F82D2A530704D4E8
:10A320009FED310ABDEC068B38BD00F58054B0EED0
:10A33000408A12F06BFE07EE900AB4F97834B8EE5A
:10A34000E79A9FED2AAA08EE903AB0EE480AB0EEDE
:10A350004A1ADFED250AF8EEE88A30F061FAB0EE2D
:10A36000408A4FF4C8722946B4F9780479EE689AA5
:10A3700030F04EFAA4F87804B4EEE98AF1EE10FA5F
:10A3800015D5B4F9A83E43BBB4F97034002BB8BF5F
:10A390005B429BB207EE903A38EE698AF8EEE77AB4
:10A3A00027EE888A88EE290ABDEC068B38BD78EE48
:10A3B000898AF4EEC88AF1EE10FAB1D5B4F9703496
:10A3C00038EE688A7AEE688A07EE903AF8EEE77A15
:10A3D00027EE888A88EE280AA4E7002BB8BF5B42E4
:10A3E0009BB207EE903AD7E70000000000007A44E5
:10A3F00000F500500B4A08B5D0F8540A03681B68F2
:10A4000093420DD190ED280AF6EE007A20EE270A4D
:10A41000B5EEC00AF1EE10FA48BF9FED030A08BD81
:10A420009847F1E741A2000800000000034643F20C
:10A430008C2003F54052184400B583B0D2F83C316B
:10A4400092ED451A8DED010A01A993ED080AD3EDAD
:10A45000390A67F09BF89DED010A03B05DF804FB33
:10A4600038B500F540550446B7EE001ADFED140A82
:10A4700004F500542DED028BD5F8383193ED2B0AFD
:10A4800030F0CEF9D5F83C31D4F8540AB0EE408A19
:10A4900003F128040B4A03681B6893420ED190ED28
:10A4A000280A38EE408A9FED080A204628EE000A66
:10A4B000BDEC028BBDE838406BF07EBE9847F0E7FC
:10A4C0000000000041A2000800007A4442F2385324
:10A4D000D2ED007A91ED006A0344D3ED585AD3EDE2
:10A4E0005B6A26EEE77A67EEA57AA6EE257AE6EEB7
:10A4F000267A81ED007AC2ED007A704700F580502F
:10A50000B0F9A83E33B9B0F970040028B8BF404292
:10A5100080B2704783EAE370A0EBE37080B27047CB
:10A5200070B500F50055D5F8543A5B79DB071DD5B9
:10A5300095F92C3A002B19DB00F540560446D6F865
:10A54000440D0368DB68984780B995F8303A0B2BC7
:10A550000CD0D6F83C319FED217AD3ED4A7AF0EE5B
:10A56000E77AF4EEC77AF1EE10FA00D470BDD5F8B0
:10A57000540A383048F0B2FCB7EE001ADFED180A82
:10A5800090ED000A30F04CF9B5EEC00AF1EE10FA89
:10A59000ECDD43F21810204475F086F9B0EEC00AE5
:10A5A000DFED107AB4EEE70AF1EE10FADED5D5F859
:10A5B000483540F2E63203F2F3139342D6D8D5F889
:10A5C0004C3503F2F3139342D0D8D5F8540A9FEDDB
:10A5D000060ABDE8704078F04BBC00BF00000034B4
:10A5E00000000000000070420AD7233C704700BF03
:10A5F0007BF0B4BE5AF04EBA63F09CBC14F0DCB8E9
:10A6000004F092BA5EF0B8BC12F002BE12F09ABD2D
:10A6100012F070BD41F066B82DF0C2BD43F052B9E2
:10A6200074F06ABE54F054BB51F0D8B951F0D0BFA9
:10A6300012F0CEB813F036B807F070B806F056BC7A
:10A6400005F022BE05F022BD39F04AB912F040BA39
:10A65000403065F063BE00BF1AF0F2B95CF0D4BAC6
:10A6600064F074B80FF002BFFFF75ABF12F0E0B900
:10A670005EF0C6BC7CF0C0B961F076B812F0FCBDEB
:10A6800003F0BABC12F060B912F0EAB852F000BFA1
:10A690003CF01ABE10B504463EF01CF9074B084AC0
:10A6A00020461A6013F0DCFC42F2B000082332228C
:10A6B00004492044BDE8104040F094BD1424022019
:10A6C00094B21208788B110810B5044642F2B0001B
:10A6D000204440F0F7FE04F5005304F54054D3F84D
:10A6E0001431C4F8143110BD06F090BA0AF0A8B8BD
:10A6F00009F0BABE0AF0B0BA38B5184A00F54053AE
:10A7000004460260D3F8C85C2DB128462CF066F9E7
:10A7100028461BF09FFF04F50053114AD3F8E409C3
:10A72000C3F8342908B11BF09FFF0E4B41F20830EB
:10A730002360204454F014F80B4B04F64450C4F842
:10A74000783948F023FA04F5536048F01FFA04F60C
:10A750001C5048F01BFA204638BD00BF708F11080E
:10A760001CAD1208F08811082044120810B50446E8
:10A7700006F07CFB204606F00BF9204606F074FC40
:10A780002046BDE8104014F045B800BF10B504469F
:10A7900006F058FD204613F0A1F9204604F0F6FA21
:10A7A0002046BDE8104013F001B900BF10B512F00B
:10A7B000B7FB52F0EDFE0368BDE810405B68184738
:10A7C00010B5044612F028FC1021204613F0DCF9E5
:10A7D00000B910BD2046BDE8104002F0D7BE00BF52
:10A7E00010B50121044613F0CFF930B1064BD3F870
:10A7F000440D03681B6A984700B110BD2046BDE8B0
:10A80000104002F091BB00BF7859022010B50446F9
:10A8100000F678102DF0F6FE04F54053D3F8380119
:10A820000368DB6A9847204611F05EFF42F2385019
:10A830000121204417F088FC204606F08BFC2046BE
:10A8400005F0D6FC204607F011F9204604F0F6FC8E
:10A85000204606F01BFF43F29C10204454F03EFAC1
:10A860004FF6FF71204613F08FF900B910BD204656
:10A87000BDE8104002F0C0BCFFF7C8BF70B542F69B
:10A88000FC350446054428461AF0D0FD1FF054FD5F
:10A8900090F94D3003B970BD04F5005304F28446BD
:10A8A000D3F8540A383048F019FBB7EE001ADFED40
:10A8B000110A90ED000A2FF0B3FF94F9E83428460E
:10A8C0000021012B04F68C0408BF86ED1D0A1AF046
:10A8D00061FC9FED097ADFED097A304620EE070A28
:10A8E00094ED287AA7EE270A84ED280ABDE8704087
:10A8F0001FF016B900000000CDCCCC3D6666663F67
:10A90000FFF7BCBF38B50221044613F03DF900281B
:10A9100040F082800221204613F036F9002843D10E
:10A920000121204613F030F900283DD14FF40031C9
:10A93000204613F029F9002840D14021204613F089
:10A9400023F9002843D14FF48061204613F01CF90D
:10A95000002851D12021204613F016F960B104F5EA
:10A960004055D5F8440D03689B689847002849D0A6
:10A97000D5F83C0170F046F98021204613F004F927
:10A9800030B94FF48021204613F0FEF800286DD036
:10A9900042F24410204444F0D9FF1021204613F025
:10A9A000F3F800284CD138BD204602F03DFB4FF4AF
:10A9B0000031204613F0E8F80028BED0204602F00F
:10A9C00045FB4021204613F0DFF80028BBD042F2BF
:10A9D0004415281944F084FC04F5805393F9083396
:10A9E000002BB0D0281944F067FD4FF48061204659
:10A9F00013F0CAF80028ADD042F24410204444F0CD
:10AA0000D5FCA7E720460DF0CFFB0028B4D0D5F841
:10AA10003C0170F0F7F8AFE70121204613F0B4F8DD
:10AA200000287FF477AF154BD3F8440D03681B6AF9
:10AA3000984700287FF46EAF204602F075FA69E768
:10AA400042F2441504F540532544D3F838016CF024
:10AA500069FF04F5B451284645F094FF41F2745162
:10AA600028462144BDE8384045F02ABF4FF4002174
:10AA7000204613F089F800288AD18EE77859022001
:10AA8000FFF740BF10B50121044613F07DF848B927
:10AA90008021204613F078F868B92046BDE81040C0
:10AAA00002F0AEBC204602F0BFFA8021204613F02F
:10AAB0006BF80028F1D042F24410204444F04CFEE0
:10AAC0002046BDE8104002F09BBC00BFFFF7DABF94
:10AAD00038B504464FF6FF7113F056F804F50055EB
:10AAE000D0B942F6B4002044FEF7DEFED5F8543A61
:10AAF0005B79DB0717D552F061FE204613F072FE3A
:10AB000095F82C3A04F54054184ADB43C3F3C013BC
:10AB100084F88D3C537138BD07212046D5F82C2A86
:10AB200002F006FBDDE742F23850204418F022F92B
:10AB30002046FFF771FBD5F8540A0D4A03681B69DC
:10AB4000934208D1D5F83C31B3F90E20B3F90A107D
:10AB500078F052F9CFE704F5805191F88A2491F802
:10AB6000B0169847D5F8540AECE700BF707302207E
:10AB7000EDA50008FFF7ACBFF8B500F18806054663
:10AB800000240F4F304622F0F5FF05E0D2F8EC200C
:10AB900057F82310914209D1304621F037FCE3B237
:10ABA0000134984205EB0312F0D8F8BD43F254107B
:10ABB00047F823202844BDE8F84074F0FBBA00BFF2
:10ABC0006C290220FFF7D8BFF8B500F50054054600
:10ABD00044F2506004F5A76304F6642704F668267F
:10ABE000D3F860213A60D3F86C313360D4F8503533
:10ABF00018442FF0C9FDC4F86C0A3A6804F52763BD
:10AC00004FF6FF7128461A6004F6742332681A6002
:10AC100012F0BAFF00B9F8BDD4F850252846092132
:10AC2000BDE8F84002F056BA00F5005090F82C3A12
:10AC300013F006034BD090F82D2AD10747D56FF3B8
:10AC40000002022B10B480F82D2AD0F834213FD016
:10AC500000F5276100F67423D0F83841D1ED005A91
:10AC6000B4F9084093ED006A00F5A76307EE904A37
:10AC7000B2F90840F8EEE77A07EE104AB8EEC77A64
:10AC800066EE676A65EEA77AE7EE256AE7EE067A72
:10AC900093ED5B7A93ED586A27EE877AA6EE867A73
:10ACA000BDEEC77A17EE101A118193ED586A93ED35
:10ACB0005B7A67EE867AD0F83831E6EEC77AFDEE39
:10ACC000E77A17EE902A1A815DF8044B70477047B7
:10ACD00000F6642100F66823BEE700BF38B50446DD
:10ACE00000F500552DED028B69B995F82C3A03F06B
:10ACF0000603042B02D0BDEC028B38BD11F0A6FE7A
:10AD0000B0F57A7FF7D3204611F0C2FED5F86C3A41
:10AD100040F2E6321B1A03F2F3139342EBD944F2EA
:10AD20005063134ADFED137A0344C5F86C0A82FBC3
:10AD30000312DB17C3EB621307EE103AB8EEC78AB3
:10AD400028EE278AB0EE480A07F100FBF0EE407AC1
:10AD500005F5276305F67425B0EE480AC3ED007AC1
:10AD600008F128F885ED000ABDEC028B38BD00BF64
:10AD70001F85EB5135FA8E3C2DE9F04FE34B06462B
:10AD80000446203041F2980504F59E5925442DEDE6
:10AD9000028B46F8083B89B063F036FADC4BDD499C
:10ADA00030461E603DF03EFD04F148001AF006FEFC
:10ADB00004F1880021F0A2FA04F5587018F040FD63
:10ADC00004F284401EF042F904F678102CF0E8FFFB
:10ADD00041F27800204459F005FE28463FF068FA19
:10ADE00041F20830204453F0A7FC41F234302044B3
:10ADF00040F0AEFC48465BF08DFD04F58053002228
:10AE000041F2D83083F8C82341F2C833C24A204403
:10AE10002344136038F018FC41F2284020446BF0C2
:10AE200007FCBE4B1A68002A40F00183BC4A41F27D
:10AE3000B8401C6004F500572260204402F06AFC10
:10AE400004ABB84A42F2B0004FF0010B42F238585E
:10AE5000204442F2702AA04442F6B406CDE90442EE
:10AE600093E8060040F07CF941F2844142F244103C
:10AE700026442144204442F023FA41F27A4342F22C
:10AE8000DC1023442044C7F8CC31062387F8D031A6
:10AE900047F0D0FF42F2F810204447F0CBFF42F2D7
:10AEA0002020C7F80CB2204453F064F904F50F5386
:10AEB0002A4641460AEB0400039335F061FA039BEE
:10AEC0002A4641461D46184637F012FA5B462A4686
:10AED0000AEB0401404616F065F930467CF0F8FABA
:10AEE000914B301DC7F8B4383DF074FC002800F0D9
:10AEF000998242F6E80042F6501542F6B416204414
:10AF000025443CF073F92644884BC7F83439284669
:10AF100014354DF0B9FEB542F9D142F63415254449
:10AF200005F1980083F0C6FF1E2340F27260C7F857
:10AF3000E8390023A7F8EC391BF090FBC7F8E409C7
:10AF400042F61020204483F0B5FF794B1A68002A9E
:10AF500000F06B82774B42F63420B7EE008A43F262
:10AF6000041AC7F8343900232044A244A7F8303A21
:10AF700004F5405687F8333A43F2541579F008FB4C
:10AF800007F6642342F67C20254483ED008A07F50A
:10AF90002763204483ED008A81F0F2FF42F69C3063
:10AFA000204482F0A9F9644B42F6FC304FF4007162
:10AFB000CDE90643614B2044009308AB13E90C0034
:10AFC00019F07EFE43F2E400B0EE480A204448F057
:10AFD00067F843F2F800B0EE480A204447F032FF29
:10AFE00050461AF01BFF002305F11C00C6F83481FF
:10AFF000C6F81C3143F21038C6F82031C6F82431A7
:10B00000A044C6F82831C6F82C31C6F830314C4B74
:10B01000C6F818311AF002FF4FF400432846494998
:10B02000C6F89431C6F898A13DF0FCFB43F29C10A1
:10B03000454B514620441D6053F064FD43F2F0102F
:10B04000204465F063FA43F28C20204466F08EFAC7
:10B0500043F29C2020443EF03DFF3C4B43F2B020A5
:10B06000C6F89C32204463F0FBFA43F2CC20384B04
:10B0700020443849C6F8DC9218603DF0D3FB43F217
:10B08000F020204459F0AEFCFF233349404686F8B7
:10B09000203386F828333DF0C5FB304B1D68002D6A
:10B0A00040F0C88143F6FC5943F23030C3F80080C9
:10B0B00043F63448A1442044494640F099FF43F602
:10B0C000A030204470F008FB08EB040069F04AFF50
:10B0D00043F6D04008EB0401204479F063FA204B9A
:10B0E0002049C6F8D03C062386F8243D1E4B196043
:10B0F0000B78002B3AD02B4601339BB203EB430273
:10B1000011F83220002AF7D130E000BFF088110892
:10B1100050720220F4FE1108288D022018740220BB
:10B12000708F110879A800083C8811081CAD12081E
:10B13000007C0220848F1108E9A60008608F1108A6
:10B14000B0F11208A0EF12082C8E022078881108A6
:10B15000308D0220F0C112086CDB1208B88D02207D
:10B1600074DA1108BCCE1108D473022044F27C3B7F
:10B1700043F64850B14A04F57755A3442044138060
:10B180004FF00008C6F844BD4FF0010A06F0C8FBB6
:10B19000AB4B43F68450C6F8483D204406F0C0FB54
:10B1A000A84B2846C6F8843D06F0BAFBA64B43F6EA
:10B1B0002460C6F8045EC6F8C03DA44B2044C6F81F
:10B1C0000C5EC6F8083EA24BC6F8145E4FF6FF753B
:10B1D000C6F8103E9F4BC6F8183E1AF01FFE43F605
:10B1E0003C6020441AF01AFE9B4B9C494846C6F826
:10B1F0004C3E9B4BC6F8908EA6F8505EC3F800906C
:10B200003DF010FBB6F8FC3D43F6DC60A6F81C5E92
:10B2100044F2303923F47F73A6F8345E86F8528EF8
:10B22000204423F0030386F8948E86F8B88E04F544
:10B230008045A6F8FC3DA14486F8BCAE7DF072FEC8
:10B24000884B44F20C00C6F8DC3E0026204406F091
:10B2500067FB854B44F24800EB60204406F060FB3E
:10B26000824B44F28C00AB64204406F059FB804BC7
:10B2700044F2CC00A5F8C880C5F88C30204406F014
:10B280004FFB7C4B44F20810C5F8CC30204406F04C
:10B2900047FB794B44F25C10C5F84461C5F80831AE
:10B2A0002044C5F84861C5F84C6106F039FB734B82
:10B2B00044F2A01085F89881C5F85C31204406F06E
:10B2C0002FFB6F4B44F2E01085F8DC81C5F8A0310C
:10B2D000204406F025FB6B4B44F21C20C5F8E031FE
:10B2E000204406F01DFB684B44F25C20C5F81C327C
:10B2F000204406F015FB654B44F2F020C5F8D462FB
:10B30000C5F85C322044C5F8D86206F009FB604BF2
:10B310004846A5F82CA3C5F8F0321AF07FFD09F1D4
:10B3200010001AF07BFD09F120001AF077FD09F1F9
:10B3300030001AF073FD584606F0F2FA554A44F20E
:10B34000B83044F27859C5F87C232044A14406F073
:10B35000E7FA514A44F2F430C5F8B82320440FF01C
:10B36000A5FB44F26840204406F0DAFA4B4A44F266
:10B37000A84085F8A484C5F86824204406F0D0FAD3
:10B38000474A44F2F840A5F8E484C5F8A8242044CC
:10B3900006F0C6FA434A44F2385085F83485C5F8B9
:10B3A000F824204406F0BCFA394B4846A5F874A5A9
:10B3B000C5F838351AF032FD09F110001AF02EFDEB
:10B3C00009F120001AF02AFD09F130001AF026FDDB
:10B3D000354B44F2C45085F8C1A5C5F83835204432
:10B3E0000AF0A6FD44F28460204406F099FA05F5BF
:10B3F000D96305F5D8622D492046C5F88416166034
:10B4000056601E605E60C5F8D48697F8503A23F007
:10B41000030343F0030387F8503A09B0BDEC028BF5
:10B42000BDE8F08F87F8B8B863E51D6092E5204865
:10B4300083F028FF1F4883F025FF00BFD073022050
:10B440007CDF1108E8DF110850E11108EDA60008C3
:10B45000F1A60008F5A600080000FFFF54501208EE
:10B460002473022014E21108BCE11108BCE21108A7
:10B4700024E311088CE31108ECE31108D4E511086A
:10B4800034E6110804E711086CE71108D4E7110845
:10B4900060E8110898E911082CE9110854E2110834
:10B4A00000ED1108A4E61108C4E81108D8ED110850
:10B4B000B0881108C488110838B5054C0A46054BF8
:10B4C00001462468256820462C68A047002038BD26
:10B4D000507002207829022010B5084C84F072F8D0
:10B4E000074B024620461A60FFF746FC2046054AF5
:10B4F0000549BDE8104006F123BF00BF78290220AE
:10B500005070022014920220F9A60008FA20704719
:10B51000054B93F82C0A00F00600A0F10200B0FAE7
:10B5200080F04009704700BF78490220054B93F82E
:10B530002C0A00F00600A0F10400B0FA80F04009E7
:10B54000704700BF78490220014812F045BB00BF98
:10B55000782902202DE9F047D0E9041283690446D6
:10B5600042F4E05241F4E05143F4E053C0E90412E4
:10B57000836122F077FB90F8203290F8D6220546BE
:10B5800000EBC31393F891300AB1012B5AD8002B6A
:10B5900058D13BF01DFF064620B190F90530002B35
:10B5A00040F0CA80DFF8E89199F9A03B3BB12369EC
:10B5B00043F080032361636943F0800363615DF0BE
:10B5C0007FFD074620B15DF011FD002840F0BD80F1
:10B5D000DFF8C08198F82D3A5B0707D5236943F45B
:10B5E00080332361636943F480336361664860F0AC
:10B5F000BDF918B1236943F080632361634BD3F82D
:10B6000000A0BAF1000F00F0B380192150463FF0BE
:10B610002DFC236908B143F4807343F4C0432361D4
:10B6200098F8303A023B142B1DD8DFE803F0147C65
:10B630007C7C7C7C1C7C1C1C1C141C147C7C7C7CFA
:10B64000147C1400D4E9042342F0200243F02003C8
:10B65000C4E904239DE7636943F400536361A3696C
:10B6600043F40053A361484860F092F918B163694C
:10B6700043F08063636195F82012284622F0AEFA09
:10B6800018B1A36943F02003A36198F82D3A580735
:10B6900003D598F84D3AD90760D546B1336833B130
:10B6A0003379DA0703D5A36943F04003A36199F91D
:10B6B000A03B1BB199F82C3C002B54D127B1384644
:10B6C0005DF094FC002855D12F4860F06BF918B953
:10B6D000A36943F08063A36199F89C3B013B012B74
:10B6E0000BD8D4E9042343F4800342F48002C4E974
:10B6F0000423A36943F48003A36198F8D431DB07E2
:10B700000FD5636943F480736361BAF1000F08D009
:10B71000192150463FF0CAFB18B1A36943F4807366
:10B72000A361BDE8F087A36943F4C043A3616369E3
:10B7300043F4C043636196E7D4E9042342F0400236
:10B7400043F04003C4E904232CE7236943F080035A
:10B750002361636943F08003636139E7A36943F4BC
:10B760008033A36199E7A36943F08003A361A5E750
:10B77000236952E738465DF083FC0028A4D0A36912
:10B7800043F08003A3619FE7F83F0220E0730220AB
:10B79000785902207849022010B582B04FF4FC702D
:10B7A000CDE900211AF050FF0446DDE900214BF0FD
:10B7B0004FFB024B2046236002B010BDF8911108E8
:10B7C00008B590F880308B4204D300EB8100D0F8AC
:10B7D000840008BD41F070FD00224FF4802141F04B
:10B7E00055FD002008BD00BF08B590F880308B42A1
:10B7F00004D300EB8100D0F8840008BD41F05CFD6B
:10B8000000224FF4802141F041FD002008BD00BF1F
:10B81000002070470020704700207047F0307047CC
:10B8200000F5A270704700BF00F5CC70704700BFF4
:10B8300003207047114A92F8303A033B142B19D871
:10B84000DFE803F00B0B0B0B0B181818181818185F
:10B85000180B0B180B180B180B0058201821D2F8D6
:10B86000543A23B15B79DB0748BF41F0C00040F098
:10B870000100704750201021F1E700BF78490220F5
:10B88000014B93F83C04704778390220034B93F93D
:10B89000A006003818BF0120704700BF7839022089
:10B8A000014B93F93E04704778390220024B93F81C
:10B8B0002C0AC009704700BF78490220704700BFBA
:10B8C00008B50C4BD3F8540A98B1383047F006FB52
:10B8D000B7EE001A90ED000ADFED070A2EF0A0FF88
:10B8E000DFED067A20EE270ABDEEC00A10EE103A10
:10B8F00018B208BD78490220000000000000C842CC
:10B90000A1F1190370B5044682B0232B13D8DFE8E8
:10B9100003F04212121212121212121212421212D8
:10B9200045121212121212121212121212121212C4
:10B9300012121712424202B0BDE870404FF0F8B93F
:10B94000007D4AF0ABF80546207D253549F0FAFA2E
:10B9500085422DDA217D1B4869F0F4FB1A4B1E68E5
:10B96000CEB1207D4AF09AF80546207D253549F074
:10B97000E9FA85421CDA00230DF10602392120463E
:10B98000ADF806304DF002FD28B1BDF80620304676
:10B99000217D65F049FA012002B070BD007D4AF0BA
:10B9A0007DF80546207D113549F0CCFA854202DB51
:10B9B000002002B070BD217D044840F0F7FD012059
:10B9C00002B070BDAC650220AC8D0220A85C0220E4
:10B9D000014807F057BC00BF386702200E4B30B556
:10B9E000D3F8A43683B004460D46DB070CD41146C9
:10B9F0000A4801927CF062FE019A2946204603B073
:10BA0000BDE8304050F0F6BC11460548019279F08F
:10BA1000D9F9019AEBE700BF7839022028480220C3
:10BA20004866022010B504464CF004F9054812F0AF
:10BA3000D3F8054A034606212046BDE810404CF0E5
:10BA400021B800BF78290220B48F110810B5044630
:10BA500082B0019183F038FC054B024601992046E3
:10BA6000C3F8402A02B0BDE810404AF035BF00BF1D
:10BA700078490220034A92F83031013382F830319C
:10BA80004AF010BC7849022000B583B00846019105
:10BA90001AF048FD38B10199054802F05FFE002018
:10BAA00003B05DF804FB042003B05DF804FB00BFA5
:10BAB00060700220014803F09DBB00BF782902207E
:10BAC000014803F007BB00BF7829022038B58B8BF3
:10BAD0000C460546CD2B05D021462846BDE838400A
:10BAE0004AF00EBC0B4890F8A21100F5CE7053F04E
:10BAF00001F90028F0D194ED020A0246DFED067A42
:10BB00000146DFED060A20EE270A054802F0B8FDDF
:10BB1000E2E700BF785902200AD7233C000000006A
:10BB20006070022038B50C464B7A897A0546E27A75
:10BB300043EA012343EA02439D2B05D021462846D0
:10BB4000BDE838404AF060BB0C4890F8A21100F5FF
:10BB5000CE7053F0CFF80028F0D1D4ED057A02462C
:10BB60009FED070A0146F8EEE77ADFED060A064880
:10BB700027EE800A02F084FDE0E700BF785902203A
:10BB80000AD7233C0000000060700220074A41F6FB
:10BB9000CF1310B541F6CF3492F93023002A08BFF5
:10BBA0001C464AF03FFB204310BD00BF78590220DD
:10BBB00010B504461AF04EFD204610BD10B50D4CD0
:10BBC00094F92C2A002A11DB04F58054D4F8440D92
:10BBD00003681B6B984758B9D4F8440D0368DB6AB7
:10BBE000984700280CBF0220032010BD012010BD83
:10BBF000042010BD7849022038B5F7EE000A91ED17
:10BC0000050A0C4605462EF0B7FC28B12946054822
:10BC1000BDE8384003F024BB21462846BDE8384043
:10BC20004EF018BA782902200B7ADB0705D5034AB3
:10BC3000CB68D2F880261344CB6070477849022045
:10BC4000044B187820B9044B93F82E0AC0F38010E7
:10BC5000704700BF5472022078490220094B93F8C4
:10BC6000DD202AB9A3F5805393F84D2AD20601D0DE
:10BC70000520704793F92C3A002BACBF0420032019
:10BC8000704700BF7859022008B5074B93F98834F4
:10BC9000032B03D0BDE808404BF01ABF034A022132
:10BCA0004BF0F0FE042008BD78390220C08F110847
:10BCB0008A8B202A0FD1D1ED007AF5EEC07AF1EE11
:10BCC00010FA06DD9FED0B7AF4EEC77AF1EE10FA6A
:10BCD00003D9032070474EF0E3BBFCEEE77A82B055
:10BCE000054A0020CDED017A9DF80430A2F8B23E5D
:10BCF00002B0704700007F4378390220084BD3F828
:10BD0000A42692070AD503F50053DFED067A93EDDA
:10BD1000420AB8EEC00A20EE270A70474AF04CB932
:10BD2000783902200AD7233C30B595B0044603A8E1
:10BD30001AF074F81A4B03A9D3F8440D03685B6B2F
:10BD4000984750B3257D83F0BFFADDED047A962144
:10BD5000059C0022F8EEE77A9FED127A0894002401
:10BD60003323019167EE877A4FF6F8718DF84E40D4
:10BD7000069C079028460B920C920D920E920F9201
:10BD800010921192129207AAADF84C10572100930D
:10BD9000CDED0A7A099448F0F7FB15B030BD00BF2D
:10BDA000785902200AD7233C70B54B4C05462DED3F
:10BDB000068BD4F8443D96B01A681846D369984764
:10BDC000002855D004F5805393F8DC31012B6CD05A
:10BDD000022B51D0D4F840014FF47C669FED3F0A0E
:10BDE000483031F02DFCD4F8443DF0EE407A9FED20
:10BDF0003B0A5B69B0EE418AB0EE60AACDED040A61
:10BE00001868F0EE67AACDED037AB1EE488A00F526
:10BE100090708DED051A31F013FCF0EE409AF0EEC3
:10BE2000608AB1EE419A2C7D83F04EFA02468C2056
:10BE3000002133230190204601240992109109AA80
:10BE4000119112911391149155210093ADF8546002
:10BE5000CDED0AAA8DED0BAA8DED0C8ACDED0D9AD4
:10BE6000CDED0E8A8DED0F9A8DF8564048F08CFB83
:10BE700016B0BDEC068B70BDD4F8443D40F6C776D5
:10BE80009FED160A5B699FED16AA1868F0EE4AAAA4
:10BE90009FED148A00F5907031F0D2FBF0EE409ADD
:10BEA000B1EE419AF0EE608ABDE7D4F8400140F669
:10BEB000F8769FED0A0ADFED0A8A483031F0C0FBC0
:10BEC0009FED089AF0EE40AAF0EE689AB1EE418A32
:10BED000B0EE60AAA7E700BF785902200AD7233C3A
:10BEE00000000000000000802DE9F043424E2DEDDF
:10BEF000048B96F82D2A8DB0930604D40DB0BDECBA
:10BF0000048BBDE8F08306F5805604469FED3B8A1E
:10BF1000D6F838019FED3A0A3C3031F091FB61EEE2
:10BF2000087AD6F8447D20EE089A8DED020A60EE7C
:10BF3000888AFDEEE77A3B68CDED030A38469B6BB5
:10BF400017EE902A8DED041A94F814900FFA82F8E7
:10BF5000984707EE900A3846F8EEE77A67EE887A57
:10BF6000FDEEE77A17EE903A1CB23B68DB6B984720
:10BF700007EE900A9FED237AF8EE677A67EE887AEB
:10BF8000F4EEC77AF1EE10FA32D5FCEEE77A17EE4E
:10BF9000903A9DB2D6F83C016EF06AF83B6838469C
:10BFA000B0EE408A1B6C9847DFED147A1A2300220A
:10BFB000B72128EE278A20EE270A0892484605AACC
:10BFC000ADF828808DED059ACDED068A8DED078AB6
:10BFD0008DED090AADF82A40ADF82C50CDE90031BD
:10BFE0003E2148F0D1FA0DB0BDEC048BBDE8F083E2
:10BFF0004FF6FF75CEE700BF784902200AD7233CF1
:10C000009F0CB34500FF7F472DE9F04F2DED048BCA
:10C010008BB0064617F0DAF80368524D4FF0010A6C
:10C020005B6B9847504F9FED518A81469FED509A28
:10C0300005F10308DFED4F8AB7F994340AF1FF3BAD
:10C0400043FA0BF3DB074AD5307D49F027FD044660
:10C05000307D183448F076FF844245DABBF1030F97
:10C060003DD8DFE80BF068574602434BD3F83C411C
:10C0700017F0ACF803686034DB699847D0ED027ABA
:10C0800077EE897AF1EE677A94ED005A622294EDA8
:10C09000036A1923D4ED046A25EE085A94ED057A53
:10C0A00026EE086AD4ED065A66EE886A27EE087A0C
:10C0B000C22165EE885ACDED047A8DED035A8DEDDF
:10C0C000066ACDED055ACDED076A8DED087A8DF83B
:10C0D00024A0CDE9003203AA307D48F055FAA845E6
:10C0E00002D015F801ABA7E70BB0BDEC048BBDE89F
:10C0F000F08F214B214AD3F8380103681B69934222
:10C1000029D100F5CC70D9ED027A00F1380467EE40
:10C11000A87AB9E7184B1A4AD3F838010368DB68E4
:10C1200093421CD100F5A270D9ED017A00F13804D8
:10C1300067EEA87AA8E7104B124AD3F838010368D3
:10C140009B68934209D1F030D9ED007A00F13804B0
:10C1500067EEA87A98E79847D5E79847F4E79847B5
:10C16000E2E700BFC5921108783902200AD7233CC4
:10C170000AE81C41E02E65427859022029B80008DF
:10C1800021B800081DB80008014811F017BD00BF14
:10C1900078290220014B93F8300A70477849022031
:10C1A000024B93F82D0AC0F34010704778490220E3
:10C1B000F8B500F50056054696F891316FF3000387
:10C1C00086F8913183F080F8244A04461368C31A34
:10C1D000B3F57A7F12D8224A1368E31A142B1ED8BB
:10C1E000204941F288320B68E31A934227D896F827
:10C1F000913143F0010386F89131F8BD42F63417CE
:10C20000106000212F4438464CF0F2FC03213846E0
:10C210004CF0EEFC124A1368E31A142BE0D942F6F4
:10C22000341714602F44384650F0D2F938464FF096
:10C23000D5FB41F2D830284437F052FBD0E742F624
:10C2400034100C60084A0621284447F0C9FB96F8D0
:10C25000913143F0010386F89131F8BD5870022006
:10C260005C70022054700220E48F110870B58B8B33
:10C2700086B00C46D02B00F0CE801AD8202B5CD88C
:10C28000102B40F2E780113B0F2B00F2E380DFE838
:10C2900013F0E700E100E100EF00D600F700E10055
:10C2A000E100E100E100E100E100E100E100E10086
:10C2B00012014AF21142934200F0348167D94AF2E6
:10C2C0001242934200F042814AF21342934240F0FC
:10C2D000C180CB4890F84D5A15F0010540F0B6806A
:10C2E000D0F8542A5279D30740F1B08090F92C2A23
:10C2F000002AC0F2EA81D1ED007A9FEDC27AF0EE19
:10C30000E77AF4EEC77AF1EE10FA06D490F8303AF4
:10C3100003F0EF03042B00F0998002221121BA48A8
:10C3200005F016FE002800F00A8140F6C411B74857
:10C3300008F06CFF284606B070BD732B00F01F811B
:10C34000B22B40F08780D1ED017AF5EEC07AF1EEA4
:10C3500010FA70DD91ED007ADFEDAD6AB4EEE67AA9
:10C36000F1EE10FA00F39081DFEDAA6A00259FED4F
:10C37000AA0AB4EEE67AA94B27EE800AD3F8400168
:10C38000F1EE10FA40F37D8171F06CF8D2E7B3F56D
:10C39000967F00F0A98040F6D812934210D1D1EDDB
:10C3A000017AFCEEE77ACDED037A9DF80C30012B93
:10C3B00000F0428101219A48002566F0CFFAB9E7E2
:10C3C000D12B47D1D1ED027A91ED046AFCEEE77AE8
:10C3D000D1ED016A91ED007ABCEEC66AFCEEE66A28
:10C3E00091ED030A17EE903ABCEEC77A01468DED47
:10C3F000056A9CB29DF81400CDED036A8DED047AB8
:10C4000001909DF80C309DF810207F48009410F0AA
:10C41000C1F805468EE7D1ED007AFCEEE77A17EE1B
:10C42000903A9DB2012D00F01B81022D00F0138186
:10C43000002D00F007810425284606B070BD0222B9
:10C440000921714805F084FD0028F4D00025284614
:10C4500006B070BD214606B0BDE870404EF088B809
:10C4600002220521684805F073FD0028EED1E2E7BD
:10C4700002220621644805F06BFD0028E6D1DAE7C8
:10C48000D1ED027A9FED5F7AF0EEE77A91ED060A40
:10C49000DFED616A614BF4EEC77A20EE260AD3F82D
:10C4A000440DF1EE10FA4CBF0121002111F0FEFF06
:10C4B0000028CBD1BFE7D1ED007AF5EEC07AF1EEDE
:10C4C00010FAB8DD9FED577AF4EEC77AF1EE10FA64
:10C4D000B1D8FCEEE77A544A0025CDED037A9DF8F9
:10C4E0000C30A2F8B23E25E7454CD4F8543A5B79BB
:10C4F000D807A0D502220321A4F5005005F028FD9D
:10C50000002898D0A4F5005004F580540121FDF7CF
:10C5100009FE94F8FC3D012B98D04448002533F0E7
:10C52000FFF807E7364890F84D3AD9078ED4022233
:10C530000521A0F5005005F00BFD002886D1022250
:10C5400031480025114605F003FDF3E62C4E96F820
:10C550004D5A15F001057FF479AFD6F8543A5B795E
:10C56000DA0740F1878096F92C3A0222002BC0F2BC
:10C5700096800921A6F5005005F0EAFCDAE691ED77
:10C58000000AB5EEC00AF1EE10FAFFF654AFDFED87
:10C59000287AB4EEE70AF1EE10FA3FF64CAFD1ED8F
:10C5A000037A9FED187AF0EEE76AF4EEC76AF1EECF
:10C5B00010FA0CD4F7EE000AB0EE670A2DF0DCFF9B
:10C5C00000283FF438AF94ED000AD4ED037ADFED94
:10C5D0000D6A002594ED027AF4EEE67AD4ED010AB4
:10C5E000FDEEC77A1348F1EE10FACDED037A9DF90E
:10C5F0000C10ACBF01222A4602F042F89AE600BFB6
:10C60000784902200000003478290220C069022005
:10C610009A9939403333F33F0000C84278590220D9
:10C62000885C022000007F43783902207467022072
:10C630000000B44360700220002126480D4666F0D9
:10C640008DF977E6294624485AF0CEFC312123485B
:10C6500000F03AFD6EE62148002503F0C1FA69E6D4
:10C6600029461D485AF0C0FC32211C48002500F024
:10C670002BFD5FE6012206F6B4001146FDF702FC31
:10C6800058E670F0E5FE55E6154B00259FED150ABE
:10C69000D3F8400127EE800A70F0F2FE4AE6052149
:10C6A000A6F5005005F054FC00283FF4CFAE94ED01
:10C6B000000A06F58056DFED0B7A0121D6F8440D0D
:10C6C00020EE270A11F0F2FE34E600F6B400FDF782
:10C6D0009DFC2FE6885C0220445C02207829022021
:10C6E000785902200000C842F6EE007A91ED007AF7
:10C6F000B4EEE77AF1EE10FA01DC0420704708B5D9
:10C700000248FDF783FC002008BD00BF2C52022028
:10C710002DE9F04F2DED028B8A7A9DB04B7A0C46B5
:10C72000054643EA0223CA7A43EA0243A62B28D8E5
:10C73000832B4CD86D2B00F29F80512B36D9523B66
:10C740001B2B00F29980DFE813F00E029700B8006F
:10C7500097009F0197009700970097009700970018
:10C760009700970097009700970097009700970011
:10C770009700970097009700970097009700970001
:10C78000AA00B3F5A57F00F04E8248D9B44A1A44F6
:10C7900022F07F42022A6FD82246297DB1481DB07F
:10C7A000BDEC028BBDE8F04F69F0E0BA002B00F061
:10C7B0004282452B60D1AC4ECA79B6F93C349A42DC
:10C7C00000F063821DB0BDEC028BBDE8F08F843BAE
:10C7D000222B51D8DFE813F02302500059005900F2
:10C7E00050005000500050005000500050005000C9
:10C7F000500050005000500050001B0250005000EC
:10C8000050005000500050005000500050005000A8
:10C810005000500050005000500050006300F32BB7
:10C8200028D1CD783D2200210CA8954228BF15467D
:10C8300007F1FEFF04F10C010CA82A4607F1D0FF16
:10C840000E9CDDE90C6546EA0503234300F01482E3
:10C8500008A819F0E3FA854B08A9854883FB04234F
:10C86000E41701220A96C4EBA3040B95099402F085
:10C8700031FCA7E7F62B8FD0214628461DB0BDEC32
:10C88000028BBDE8F04F4FF061BB0A46017D79484D
:10C890001DB0BDEC028BBDE8F04F3FF0BFBF0821DB
:10C8A000734811F071F92146024628461DB0BDECCF
:10C8B000028BBDE8F04F4BF017BACD78352200213E
:10C8C0000CA895426C4E28BF154607F1B1FF04F144
:10C8D0000C010CA82A4607F183FFD6F8440D036823
:10C8E000DB69984700283FF46DAF9DF86450EA1F5C
:10C8F000D2B2012D18BF022A8CBF4FF0010A4FF0AF
:10C90000000A3FF65FAFBDF86040002314F0070B4C
:10C910000593069304F03808079304F4806904F43F
:10C92000E07304F4006744D19FED546AA5F1080157
:10C93000DDED0E6ADDED0F7A01299DED0D7A66EED3
:10C94000866A67EEC67A27EE067ACDED066ACDEDE9
:10C95000077A8DED057A40F2BE82022A40F2CE823D
:10C96000039316F033FC90F85421D3077FF52AAFD8
:10C9700008A819F053FA16F029FC02469DED077A33
:10C9800008A9D2ED527AA6F6C820F8EEE77A77EE3B
:10C99000277ACDED077A14F0D9FA039B48B19DEDC3
:10C9A000097ADDED077AB8EEC77A77EEC77ACDED72
:10C9B000077A0022089209920A92B8F1000F18D162
:10C9C0009FED2E6AA5F10802DDED116ADDED127A08
:10C9D000012A9DED107A66EE866A67EEC67A27EE2A
:10C9E000067ACDED096ACDED0A7A8DED087A40F22E
:10C9F000A081B9F1000F40F034829DED160A083D88
:10CA00009FED1F7ADFED1D7A012D20EE070A8CBF06
:10CA10004FF0000A4FF0010A20EE270A002F40F0E5
:10CA20001D82DDED170A9FED167ADFED147A60EEB8
:10CA3000870A60EEA70AA60640F0F981002B3FF4B2
:10CA4000C1AEB7FA87F7B9FA89F308AA05A97F0931
:10CA50000C485B09CDE9007A0AF078FDB2E600BF28
:10CA6000EFD8FF00AC650220783902206766666661
:10CA700078290220A85C0220785902200000C842D0
:10CA8000E02E6542186B0220CE78352200210CA8DA
:10CA9000964228BF164607F1CBFE04F10C010CA804
:10CAA000324607F19DFEC04BD3F8440D0368DB69A5
:10CAB000984700283FF486AEBDF86040002314F08C
:10CAC000070605930693079300F0868114F48062AD
:10CAD00040F066819DED160A9FEDB47A9DF86400E2
:10CAE00020EE070ADFEDBB7A0838012820EE270A7E
:10CAF0008CBF0020012014F4006340F04E81DDED76
:10CB0000170A9FEDAA7ADFEDB37A60EE870A60EE2E
:10CB1000A70AA50604F4E07140F0138100293FF450
:10CB200051AE9FEDAC6AB3FA83F4DDED106AB2FA50
:10CB300082F39DED117A6409DDED127A66EE866A64
:10CB400027EE067A5B0967EEC67A08AA05A9CDED3D
:10CB5000086A8DED097ACDED0A7ACDE90040944856
:10CB60000AF0F4FC2EE6CD78272200210CA895428D
:10CB700028BF154607F15CFE04F10C010CA82A46FB
:10CB8000894D07F12DFED5F8440D0368DB69984700
:10CB900000283FF417AE9DF8564014F0C00F7FF404
:10CBA00011AEDFED840AB7EE001A9DED140A2DF0E8
:10CBB00037FEF6EE000AB0EE408A2DF0DDFC0028CC
:10CBC00040F08681F6EE007AB4EEE78AF1EE10FAD4
:10CBD00040F3968138EE678AD5F8403193ED080A24
:10CBE00038EE088A28EE000A0D9984F004020F98A6
:10CBF0000E9CC2F38002109B089108A90A90DDEDFB
:10CC0000130A6B4809940B930AF016FDDAE56A489B
:10CC10001DB0BDEC028BBDE8F04F6EF0C5BE67489D
:10CC20003EF0B6F8214666481DB0BDEC028BBDE86B
:10CC3000F04F5EF0EDBD634ECA79B6F93C349A42CE
:10CC40007FF4C0AD06F5805682F03EFBC6F8400A80
:10CC500080F01CFA437A33B180F018FA2B7D027A07
:10CC60009A423FF4AFAD80F011FA0123437280F095
:10CC70000DFA2B7D0372A5E5012153481DB0BDECD3
:10CC8000028BBDE8F04F02F0B5BACA7800240C312F
:10CC90000CA80B2A28BF0B22CDE90C44CDF8374055
:10CCA00007F19EFD9DF83A20B6F93A349A427FF496
:10CCB00089ADBDF93480A045FFF684AD06F58056F8
:10CCC00082F002FB9FED410A07464FF47A73BDF9EB
:10CCD0003220CDE900042846D6F834114FF04CFD3F
:10CCE00001239FED3A0A284601934FF47A73BDF968
:10CCF00030200097D6F838114FF03EFD9FED340AF2
:10CD0000424623462846CDE90074D6F83C114FF040
:10CD100033FD9FED2E0A4FF47A732846BDF9362075
:10CD2000CDE90074D6F840114FF026FDC6F8407AE0
:10CD300048E509AA08A924480393FDF7C7FB039B0C
:10CD400057E614F0380440F08F80002E00F08C80FD
:10CD500000293FF437AD9FED1F6A0124DDED106A15
:10CD6000B3FA83F39DED117AB2FA82F2DDED127A15
:10CD700066EE866A27EE067A5B0967EEC67A520986
:10CD800008A9CDED086A8DED097ACDED0A7ACDE9D5
:10CD9000000407480AF080FB14E5DFED060AB8E658
:10CDA00000209FED040AA6E678590220E02E654295
:10CDB000186B02200000000018650220103A0220C3
:10CDC000F83F022078390220782902200000FA4436
:10CDD00000007A440000C842DDE90D78384641463B
:10CDE0002DF024FF00283FF4EDAC284604AA9DF85E
:10CDF00064104FF0A9FC00283FF4E4ACDDED0F7A9D
:10CE000039461FED0C7A4246049B08A867EE877AE4
:10CE10000093FDEEE77A17EE903A19F017F805A99E
:10CE200008A819F091F900283FF4CCAC4EE6B8F10F
:10CE3000000F32D1BBF1000F2FD0002B3FF4C2AC5A
:10CE40000120B7FA87F3B9FA89F208A95B095209F8
:10CE5000CDE900A031480AF01FFBB3E4DFED300A52
:10CE6000E9E59FED2F0AD9E5B6FA86F6002C4FEAE0
:10CE7000561608BF0026002E3FF4A4AC00293FF44C
:10CE8000A1ACB3FA83F3B2FA82F2009005A95B0970
:10CE9000224852090AF01EFA94E4BBFA8BF2B8F168
:10CEA000000F4FEA521208BF0022002A3FF48AAC5A
:10CEB000002B3FF487ACB7FA87F3B9FA89F205A9DA
:10CEC000CDF800A05B09154852090AF003FA79E48D
:10CED0009FED130A88E6A6F5405005AE06AA039317
:10CEE0003146FDF7F3FA039B0E48039372F0D4FC2E
:10CEF0000146304630F07AFB039B5AE505AEF3E776
:10CF0000D5F8403137EEC88A93ED090A38EE088A21
:10CF1000B0EEC00A20EE480A66E600BF186B022099
:10CF200000000000905A0220F0B500F5405605467A
:10CF30008DB09FED390AD6F8380142F2441403AFA0
:10CF40003C302C4430F07CFB0CAACDED0A0A06AB39
:10CF50008DED0B1A8DED090A12E9070087E807002D
:10CF60009DED050A83E807002DF0F8FB39462046C1
:10CF70008DED050A43F04EF8D6F83C3105F5005129
:10CF800020460093D1F8542AD6F83831D1F8B01899
:10CF900043F0B8FB4FF48051284610F0F5FD90B3F4
:10CFA000D6F838011D4A03689B6893422DD1F030B2
:10CFB00000F13802C821204643F002FBD6F83801C0
:10CFC000174A0368DB68934223D100F5A27000F191
:10CFD0003802C921204643F0F3FAD6F83801114A45
:10CFE00003681B69934212D100F5CC7000F138023E
:10CFF000CA21204643F0E4FAD6F83C21CB21204652
:10D00000603243F0DDFA0DB0F0BD9847D0E79847A5
:10D01000ECE79847DBE700BF9F0CB3451DB800085D
:10D0200021B8000829B8000838B5054642F2441472
:10D0300015F09AFA2C4415F08BFA204642F008FEBF
:10D040002046BDE8384042F0A9BE00BF30B50023FD
:10D0500089B000F5005595220193A321069304465B
:10D06000CDF81B308DF805208DF80410CDE9023382
:10D07000CDE9043306238DF8063082F02DF9CDF882
:10D080000700D5F8540ACDF80B10D0F8D430C830CA
:10D09000CDF80F3045F022FF05F6FC320068D5F8D8
:10D0A000543A01A9D2F88022CDF8130042F244107C
:10D0B000D3F8D830CDF8172020441B22CDF81B30F0
:10D0C00040F0FAFA09B030BD034642F24410184469
:10D0D00040F032BF70B50D4684B04FF6FF71064682
:10D0E000144610F051FD08B904B070BD0023CDE91D
:10D0F0000033CDE90233A3238DF8003095238DF85A
:10D10000013003238DF8023082F0E6F8CDF80300F9
:10D1100042F244100B461022304469468DF80B5001
:10D12000CDF80730039440F0E1FA04B070BD00BFC1
:10D1300070B50D4684B04FF6FF710646144610F0E8
:10D1400023FD08B904B070BD0023CDE90033CDE95B
:10D150000233A3238DF8003095238DF8013004238A
:10D160008DF8023082F0B8F8CDF8030042F2441096
:10D170000B461022304469468DF80B50CDF807302D
:10D18000039440F0B3FA04B070BD00BF30B5002383
:10D19000A32204460D462DED048B87B0B0EE409AD5
:10D1A000F0EE608A0093B0EE418A05938DF800207E
:10D1B0009522CDE90133CDE9033307238DF8012012
:10D1C0008DF8023082F088F8CDF8030042F2441066
:10D1D0000B461822694620448DF80B50CDF80730D5
:10D1E0008DED039ACDED048A8DED058A40F064FA49
:10D1F00007B0BDEC048B30BDF8B590F8893300F56D
:10D200000055044600EB431395F8501A93F8AD23EC
:10D2100001F001011AB193F8AE23002A4ED19142D8
:10D2200011D095F8503A62F3000385F8503A40F077
:10D230002FFF95F8503A122113F0010F0CBF042272
:10D24000002240F0A7FE04F284474FF0000195F859
:10D25000506A38461CF046F9C6F34006C0B2C0EB2F
:10D26000401004EB800090F8FD34B3421DD04FF025
:10D27000000138461CF036F995F8503AC0B2C0EBC0
:10D28000401004EB800090F8FD2462F3410385F820
:10D29000503A40F0FDFE95F8503A032113F0020F8A
:10D2A0000CBF0422002240F075FE95F8503A94F825
:10D2B000A822C3F38101914203D1F8BD93F8AF23B3
:10D2C000ADE762F3830342F244104321204485F822
:10D2D000503ABDE8F84040F02FBE00BF2DE9F04FB6
:10D2E0002DED028B8DB080462F2200216846F0EE96
:10D2F000408AB0EE608A11EE10BA11EE90AA12EEDA
:10D30000109A12EE907A13EE106A13EE905A14EE01
:10D31000104A07F18DFAA3238DF8003095238DF87C
:10D3200001300B238DF8023081F0D6FF18EE903AD1
:10D33000CDF8030042F24410CDF80710CDF80B30C1
:10D340002F2218EE103A69464044CDF813B0CDF8BC
:10D350000F30CDF817A0CDF81B90CDF81F70CDF889
:10D360002360CDF82750CDF82B4040F0A5F90DB043
:10D37000BDEC028BBDE8F08F30B52DED088B8BB086
:10D38000282204460D4668460021B0EE40BAF0EE71
:10D3900060AAB0EE41AAF0EE619AB0EE429AF0EEC9
:10D3A000628AB0EE438A07F143FAA3238DF8003076
:10D3B00095238DF801300C238DF8023081F08CFF1D
:10D3C000CDF8030042F244100B462822694620445F
:10D3D0008DF80B50CDF807308DED03BACDED04AAD2
:10D3E0008DED05AACDED069A8DED079ACDED088A53
:10D3F0008DED098A40F060F90BB0BDEC088B30BDB3
:10D4000070B500F5405694B096F9A03B002B5DD066
:10D4100043F6A0350023044669460544049305936A
:10D420002846069300930193029303936EF070FADB
:10D4300002A928466EF092FA04A928466EF058FA1E
:10D440003222002107A807F1F3F9A3238DF81C303D
:10D4500095238DF81D3009238DF81E3081F03CFF97
:10D4600096F82C3CCDF81F002846CDF823108DF8F7
:10D4700027306EF0E7F9009B024642F2441007A9FC
:10D48000CDF82930019B20448DF82820CDF82D308F
:10D49000039B029ACDF83530059BCDF83120049AD4
:10D4A000CDF83D30D6F8CC3BCDF83920069AD6F8E9
:10D4B000F84BCDF8453096F8A33BCDF84120322209
:10D4C000CDF849408DF84D3040F0F6F814B070BDFD
:10D4D000F0B58BB0154606460F462422002101A860
:10D4E0001C4607F1A5F9A3238DF8043095238DF888
:10D4F00005300A238DF8063081F0EEFE2B682422D9
:10D50000CDF8070042F2441004936B683044CDF824
:10D510000B1001A90593AB686568069323688DF825
:10D520000F700793A3680895099340F0C5F80BB0F6
:10D53000F0BD00BF38B5044642F2441510F04CFB74
:10D540000C4925440246284640F022F804F50053D1
:10D55000284693F8312A93F8301A40F0F3F942F252
:10D560003850204415F0F8FD04F18800BDE838403B
:10D570001FF036BFB48F1108034642F24410A922AF
:10D58000014918443FF0CABEA0B111082DE9F0418D
:10D59000044643F230300023012220442DED028B5B
:10D5A00092B001A901933EF03BFE08B9554B01939F
:10D5B00004F54057D7F8440D0368DB689847002806
:10D5C00040F09180D7F83C319FED4F7AD3ED446A1B
:10D5D000D3ED4D7A86EE878AFDEEE77A17EE903A24
:10D5E0000FFA83F842F20C2602A92644304610F0C6
:10D5F000A3F800287CD03B22002103A804F50055A5
:10D6000007F116F9A3238DF80C3095238DF80D3012
:10D6100081F062FED7F83831CDF80F00D5F8540A02
:10D62000D3F8AC20D3F8B0303830CDF81720CDF88F
:10D630001B30CDF8131045F051FCB7EE001A90EDF9
:10D64000000ADFED320A2DF0EBF8D5F8540A10EE9F
:10D65000103A2F4ACDF81F3003681B6893424CD113
:10D66000D0F8A03043F21815CDF8233018EE103A58
:10D670002819CDF8273072F013F9DFED237A304600
:10D68000D7F8E030C0EE277ACDF82F3017EE903A79
:10D69000CDF82B30029BCDF8333010F061F8019AB1
:10D6A00010EE103A2819ADF83F80CDF83730CDF89C
:10D6B0003B2072F0F9F8BDEEC00A04F6781342F28E
:10D6C00044103B22D3F8E03303A9204410EE104A63
:10D6D000CDF84330ADF841403FF0EEFF12B0BDEC65
:10D6E000028BBDE8F0814FF000089FED088A79E7D2
:10D6F00040F0CEFC034B02937DE7984710EE103AC2
:10D70000B0E700BF2292CA7F0000C84200000000BC
:10D7100041A20008F8B50546083057F063F9314FCB
:10D7200005F1280005F5047478F0ECFD05F16800BA
:10D7300060F0A8FB4FF0804200232B482B4905F5F1
:10D740009266C5F8AC202A4AC5F88830C5F88C30F6
:10D75000C5F89030C5F8B030C5F8B420C5F8A800B9
:10D7600005F1BC00C5F8B810224978F06FFF05F547
:10D77000C0705BF013FC05F5E4705DF0D9FF05F5B2
:10D78000FE704FF0C5FD1C4BC5F8FC3120464FF034
:10D790007BF844F8287BB442F8D1184E204650F06C
:10D7A000DDFA002105F5146077F0D8FDC5F8F469BD
:10D7B00005F6F8107AF036FFA6F5DD6305F684204D
:10D7C000A6F5E876C5F8803A82F0D8FA05F69C20EE
:10D7D00063F078FC28460A49C5F8E86B3BF022F86C
:10D7E0002846F8BD48DA11080000C8410000E040B2
:10D7F0000AD7233CAC3C02205CDA11083C6F0220C3
:10D800003CCC11082DE9F0472DED028BADF5427DA2
:10D81000644C814690220DF1C80863497AAE09F53F
:10D82000805A40469FED618A06F1DAFF0DF1580CEF
:10D83000454656AF0FCCACE80F000FCCACE80F005C
:10D8400094E80F0004F598798CE80F0004F11001BA
:10D850004FF49072304606F1C3FF0DF1180E04F537
:10D86000A87C22AC9FED520AB9E80F00AEE80F0089
:10D8700099E80F008EE80F00BCE80F000FC4BCE869
:10D880000F000FC4BCE80F000FC49AF88A34013BA4
:10D89000022B98BFB0EE408A9CE80F0084E80F008E
:10D8A00028461035B0EE480A00213BF08FFBBD4200
:10D8B000F6D19FED400A16A8002134463BF086FBC6
:10D8C000C2AD9FED3C0A00211AA83BF07FFB9FED03
:10D8D000390A00211EA83BF079FB20461034B7EE30
:10D8E000000A00213BF072FBA542F6D19FED320AFF
:10D8F00006A8002102AC3BF069FB00210AA89FEDBD
:10D900002E0A3BF063FB2D4B0FCB84E80F0001A9DF
:10D9100020463BF01BFB88BB22AC20461034B7EE00
:10D92000000A00213BF052FBA045F6D19022244989
:10D9300038463C4606F154FF2046103400220121AF
:10D940003BF040FCB442F7D11E4D0EAC0FCD0FC4DE
:10D9500095E80F0084E80F000EA8002201213BF09B
:10D9600031FC0022012120463BF02CFC50F0C0F994
:10D970000DF5427DBDEC028BBDE8F0879DF90430CA
:10D98000F0EE007ADFED106AB7EE000A07EE103A0B
:10D99000E068B8EEC77AE7EE267A80EE270A3CF018
:10D9A000A3F9B9E7C47E1108347E11085C8FA23F49
:10D9B0006666663F530469396F12833A74801108B2
:10D9C0008480110814811108CDCCCC3D2DE9F04F95
:10D9D0002DED028B91B01D200DF1060150F09AF84B
:10D9E00020B911B0BDEC028BBDE8F08F9DF8063078
:10D9F0001121A74A0BA80133DBB28DF8063081F064
:10DA000021FB00220DF107010BA83AF0CBFB9DF89A
:10DA10000630A04A112104460BA881F013FB002216
:10DA20000DF107010BA83AF0BDFB9DF806309A4AAC
:10DA3000112105460BA881F005FB00220DF107011D
:10DA40000BA83AF0AFFB9DF80630944A112103F081
:10DA50003F0307460BA881F0F5FA0DF107010BA86B
:10DA600000223AF09FFB0646002CBAD0002DB8D019
:10DA7000002FB6D00028B4D020463AF03DFE002852
:10DA8000AFD128463AF038FE0028AAD138463AF0FD
:10DA900033FE0028A5D130463AF02EFE0028A0D152
:10DAA0007F4B0DF10C0C0DF11C0803F1100E0FCB88
:10DAB0008CE80F009EE80F0088E80F0002A960467E
:10DAC0003BF044FA02A9002862D04046BDF9088024
:10DAD0003BF03CFA1FFA88F3002840F0C280002B8C
